
ReceptorFirmware.elf:     file format elf32-avr

Sections:
Idx Name          Size      VMA       LMA       File off  Algn
  0 .data         000001f6  00800100  00005da8  00005e3c  2**0
                  CONTENTS, ALLOC, LOAD, DATA
  1 .text         00005da8  00000000  00000000  00000094  2**1
                  CONTENTS, ALLOC, LOAD, READONLY, CODE
  2 .bss          00000067  008002f6  008002f6  00006032  2**0
                  ALLOC
  3 .comment      0000005c  00000000  00000000  00006032  2**0
                  CONTENTS, READONLY
  4 .note.gnu.avr.deviceinfo 00000040  00000000  00000000  00006090  2**2
                  CONTENTS, READONLY
  5 .debug_aranges 000008b8  00000000  00000000  000060d0  2**0
                  CONTENTS, READONLY, DEBUGGING
  6 .debug_info   00019a6c  00000000  00000000  00006988  2**0
                  CONTENTS, READONLY, DEBUGGING
  7 .debug_abbrev 0000238b  00000000  00000000  000203f4  2**0
                  CONTENTS, READONLY, DEBUGGING
  8 .debug_line   0000542e  00000000  00000000  0002277f  2**0
                  CONTENTS, READONLY, DEBUGGING
  9 .debug_frame  000020a8  00000000  00000000  00027bb0  2**2
                  CONTENTS, READONLY, DEBUGGING
 10 .debug_str    00003c81  00000000  00000000  00029c58  2**0
                  CONTENTS, READONLY, DEBUGGING
 11 .debug_loc    0000ba2d  00000000  00000000  0002d8d9  2**0
                  CONTENTS, READONLY, DEBUGGING
 12 .debug_ranges 000012f0  00000000  00000000  00039306  2**0
                  CONTENTS, READONLY, DEBUGGING

Disassembly of section .text:

00000000 <__vectors>:
       0:	0c 94 37 00 	jmp	0x6e	; 0x6e <__dtors_end>
       4:	0c 94 5f 00 	jmp	0xbe	; 0xbe <__bad_interrupt>
       8:	0c 94 5f 00 	jmp	0xbe	; 0xbe <__bad_interrupt>
       c:	0c 94 7c 00 	jmp	0xf8	; 0xf8 <__vector_3>
      10:	0c 94 5f 00 	jmp	0xbe	; 0xbe <__bad_interrupt>
      14:	0c 94 5f 00 	jmp	0xbe	; 0xbe <__bad_interrupt>
      18:	0c 94 5f 00 	jmp	0xbe	; 0xbe <__bad_interrupt>
      1c:	0c 94 5f 00 	jmp	0xbe	; 0xbe <__bad_interrupt>
      20:	0c 94 5f 00 	jmp	0xbe	; 0xbe <__bad_interrupt>
      24:	0c 94 5f 00 	jmp	0xbe	; 0xbe <__bad_interrupt>
      28:	0c 94 5f 00 	jmp	0xbe	; 0xbe <__bad_interrupt>
      2c:	0c 94 5f 00 	jmp	0xbe	; 0xbe <__bad_interrupt>
      30:	0c 94 5f 00 	jmp	0xbe	; 0xbe <__bad_interrupt>
      34:	0c 94 5f 00 	jmp	0xbe	; 0xbe <__bad_interrupt>
      38:	0c 94 e3 00 	jmp	0x1c6	; 0x1c6 <__vector_14>
      3c:	0c 94 5f 00 	jmp	0xbe	; 0xbe <__bad_interrupt>
      40:	0c 94 5f 00 	jmp	0xbe	; 0xbe <__bad_interrupt>
      44:	0c 94 5f 00 	jmp	0xbe	; 0xbe <__bad_interrupt>
      48:	0c 94 a4 00 	jmp	0x148	; 0x148 <__vector_18>
      4c:	0c 94 5f 00 	jmp	0xbe	; 0xbe <__bad_interrupt>
      50:	0c 94 5f 00 	jmp	0xbe	; 0xbe <__bad_interrupt>
      54:	0c 94 5f 00 	jmp	0xbe	; 0xbe <__bad_interrupt>
      58:	0c 94 5f 00 	jmp	0xbe	; 0xbe <__bad_interrupt>
      5c:	0c 94 5f 00 	jmp	0xbe	; 0xbe <__bad_interrupt>
      60:	0c 94 5f 00 	jmp	0xbe	; 0xbe <__bad_interrupt>
      64:	0c 94 5f 00 	jmp	0xbe	; 0xbe <__bad_interrupt>

00000068 <__ctors_start>:
      68:	27 01       	movw	r4, r14
      6a:	5f 28       	or	r5, r15

0000006c <__ctors_end>:
      6c:	30 01       	movw	r6, r0

0000006e <__dtors_end>:
      6e:	11 24       	eor	r1, r1
      70:	1f be       	out	0x3f, r1	; 63
      72:	cf ef       	ldi	r28, 0xFF	; 255
      74:	d8 e0       	ldi	r29, 0x08	; 8
      76:	de bf       	out	0x3e, r29	; 62
      78:	cd bf       	out	0x3d, r28	; 61

0000007a <__do_copy_data>:
      7a:	12 e0       	ldi	r17, 0x02	; 2
      7c:	a0 e0       	ldi	r26, 0x00	; 0
      7e:	b1 e0       	ldi	r27, 0x01	; 1
      80:	e8 ea       	ldi	r30, 0xA8	; 168
      82:	fd e5       	ldi	r31, 0x5D	; 93
      84:	02 c0       	rjmp	.+4      	; 0x8a <__do_copy_data+0x10>
      86:	05 90       	lpm	r0, Z+
      88:	0d 92       	st	X+, r0
      8a:	a6 3f       	cpi	r26, 0xF6	; 246
      8c:	b1 07       	cpc	r27, r17
      8e:	d9 f7       	brne	.-10     	; 0x86 <__do_copy_data+0xc>

00000090 <__do_clear_bss>:
      90:	23 e0       	ldi	r18, 0x03	; 3
      92:	a6 ef       	ldi	r26, 0xF6	; 246
      94:	b2 e0       	ldi	r27, 0x02	; 2
      96:	01 c0       	rjmp	.+2      	; 0x9a <.do_clear_bss_start>

00000098 <.do_clear_bss_loop>:
      98:	1d 92       	st	X+, r1

0000009a <.do_clear_bss_start>:
      9a:	ad 35       	cpi	r26, 0x5D	; 93
      9c:	b2 07       	cpc	r27, r18
      9e:	e1 f7       	brne	.-8      	; 0x98 <.do_clear_bss_loop>

000000a0 <__do_global_ctors>:
      a0:	10 e0       	ldi	r17, 0x00	; 0
      a2:	c6 e3       	ldi	r28, 0x36	; 54
      a4:	d0 e0       	ldi	r29, 0x00	; 0
      a6:	04 c0       	rjmp	.+8      	; 0xb0 <__do_global_ctors+0x10>
      a8:	21 97       	sbiw	r28, 0x01	; 1
      aa:	fe 01       	movw	r30, r28
      ac:	0e 94 be 29 	call	0x537c	; 0x537c <__tablejump2__>
      b0:	c4 33       	cpi	r28, 0x34	; 52
      b2:	d1 07       	cpc	r29, r17
      b4:	c9 f7       	brne	.-14     	; 0xa8 <__do_global_ctors+0x8>
      b6:	0e 94 61 00 	call	0xc2	; 0xc2 <main>
      ba:	0c 94 c7 2e 	jmp	0x5d8e	; 0x5d8e <__do_global_dtors>

000000be <__bad_interrupt>:
      be:	0c 94 00 00 	jmp	0	; 0x0 <__vectors>

000000c2 <main>:
*/
SerialManager serialCom;

int main(void)
{	
	syst->init();
      c2:	80 91 55 03 	lds	r24, 0x0355	; 0x800355 <syst>
      c6:	90 91 56 03 	lds	r25, 0x0356	; 0x800356 <syst+0x1>
      ca:	0e 94 49 28 	call	0x5092	; 0x5092 <_ZN13SystemManager4initEv>
	
	rfModule.setSerial(&serialCom);
      ce:	66 ef       	ldi	r22, 0xF6	; 246
      d0:	72 e0       	ldi	r23, 0x02	; 2
      d2:	89 ef       	ldi	r24, 0xF9	; 249
      d4:	92 e0       	ldi	r25, 0x02	; 2
      d6:	0e 94 21 18 	call	0x3042	; 0x3042 <_ZN9RfManager9setSerialEP13SerialManager>
	serialCom.setRf(&rfModule);
      da:	69 ef       	ldi	r22, 0xF9	; 249
      dc:	72 e0       	ldi	r23, 0x02	; 2
      de:	86 ef       	ldi	r24, 0xF6	; 246
      e0:	92 e0       	ldi	r25, 0x02	; 2
      e2:	0e 94 c5 1b 	call	0x378a	; 0x378a <_ZN13SerialManager5setRfEP9RfManager>
	
    for(;;) 
    {
		serialCom.mainTask();
      e6:	86 ef       	ldi	r24, 0xF6	; 246
      e8:	92 e0       	ldi	r25, 0x02	; 2
      ea:	0e 94 bc 26 	call	0x4d78	; 0x4d78 <_ZN13SerialManager8mainTaskEv>
		rfModule.mainTask();
      ee:	89 ef       	ldi	r24, 0xF9	; 249
      f0:	92 e0       	ldi	r25, 0x02	; 2
      f2:	0e 94 bb 18 	call	0x3176	; 0x3176 <_ZN9RfManager8mainTaskEv>
      f6:	f7 cf       	rjmp	.-18     	; 0xe6 <main+0x24>

000000f8 <__vector_3>:

/**
* @brief RF module's external interrupt routine
*/
ISR(PCINT0_vect)
{	
      f8:	1f 92       	push	r1
      fa:	0f 92       	push	r0
      fc:	0f b6       	in	r0, 0x3f	; 63
      fe:	0f 92       	push	r0
     100:	11 24       	eor	r1, r1
     102:	2f 93       	push	r18
     104:	3f 93       	push	r19
     106:	4f 93       	push	r20
     108:	5f 93       	push	r21
     10a:	6f 93       	push	r22
     10c:	7f 93       	push	r23
     10e:	8f 93       	push	r24
     110:	9f 93       	push	r25
     112:	af 93       	push	r26
     114:	bf 93       	push	r27
     116:	ef 93       	push	r30
     118:	ff 93       	push	r31
	if((PINB & (1 << PINB0)) == 0) //falling edge
     11a:	18 99       	sbic	0x03, 0	; 3
     11c:	04 c0       	rjmp	.+8      	; 0x126 <__vector_3+0x2e>
		rfModule.intTask();
     11e:	89 ef       	ldi	r24, 0xF9	; 249
     120:	92 e0       	ldi	r25, 0x02	; 2
     122:	0e 94 30 07 	call	0xe60	; 0xe60 <_ZN9RfManager7intTaskEv>
}
     126:	ff 91       	pop	r31
     128:	ef 91       	pop	r30
     12a:	bf 91       	pop	r27
     12c:	af 91       	pop	r26
     12e:	9f 91       	pop	r25
     130:	8f 91       	pop	r24
     132:	7f 91       	pop	r23
     134:	6f 91       	pop	r22
     136:	5f 91       	pop	r21
     138:	4f 91       	pop	r20
     13a:	3f 91       	pop	r19
     13c:	2f 91       	pop	r18
     13e:	0f 90       	pop	r0
     140:	0f be       	out	0x3f, r0	; 63
     142:	0f 90       	pop	r0
     144:	1f 90       	pop	r1
     146:	18 95       	reti

00000148 <__vector_18>:

/**
* @brief UART receiving interrupt
*/
ISR(USART_RX_vect)
{
     148:	1f 92       	push	r1
     14a:	0f 92       	push	r0
     14c:	0f b6       	in	r0, 0x3f	; 63
     14e:	0f 92       	push	r0
     150:	11 24       	eor	r1, r1
     152:	2f 93       	push	r18
     154:	3f 93       	push	r19
     156:	4f 93       	push	r20
     158:	5f 93       	push	r21
     15a:	6f 93       	push	r22
     15c:	7f 93       	push	r23
     15e:	8f 93       	push	r24
     160:	9f 93       	push	r25
     162:	af 93       	push	r26
     164:	bf 93       	push	r27
     166:	ef 93       	push	r30
     168:	ff 93       	push	r31
	if(syst->uart()->buffer()->isFull())
     16a:	80 91 55 03 	lds	r24, 0x0355	; 0x800355 <syst>
     16e:	90 91 56 03 	lds	r25, 0x0356	; 0x800356 <syst+0x1>
     172:	0e 94 45 28 	call	0x508a	; 0x508a <_ZN13SystemManager4uartEv>
     176:	0e 94 91 28 	call	0x5122	; 0x5122 <_ZN11ControlUART6bufferEv>
     17a:	fc 01       	movw	r30, r24
     17c:	26 81       	ldd	r18, Z+6	; 0x06
     17e:	37 81       	ldd	r19, Z+7	; 0x07
     180:	80 81       	ld	r24, Z
     182:	91 81       	ldd	r25, Z+1	; 0x01
     184:	28 17       	cp	r18, r24
     186:	39 07       	cpc	r19, r25
     188:	29 f4       	brne	.+10     	; 0x194 <__vector_18+0x4c>
		wasteChar = UDR0;
     18a:	80 91 c6 00 	lds	r24, 0x00C6	; 0x8000c6 <__TEXT_REGION_LENGTH__+0x7e00c6>
     18e:	80 93 52 03 	sts	0x0352, r24	; 0x800352 <wasteChar>
     192:	08 c0       	rjmp	.+16     	; 0x1a4 <__vector_18+0x5c>
	else
		syst->uart()->intTask();
     194:	80 91 55 03 	lds	r24, 0x0355	; 0x800355 <syst>
     198:	90 91 56 03 	lds	r25, 0x0356	; 0x800356 <syst+0x1>
     19c:	0e 94 45 28 	call	0x508a	; 0x508a <_ZN13SystemManager4uartEv>
     1a0:	0e 94 76 29 	call	0x52ec	; 0x52ec <_ZN11ControlUART7intTaskEv>
}
     1a4:	ff 91       	pop	r31
     1a6:	ef 91       	pop	r30
     1a8:	bf 91       	pop	r27
     1aa:	af 91       	pop	r26
     1ac:	9f 91       	pop	r25
     1ae:	8f 91       	pop	r24
     1b0:	7f 91       	pop	r23
     1b2:	6f 91       	pop	r22
     1b4:	5f 91       	pop	r21
     1b6:	4f 91       	pop	r20
     1b8:	3f 91       	pop	r19
     1ba:	2f 91       	pop	r18
     1bc:	0f 90       	pop	r0
     1be:	0f be       	out	0x3f, r0	; 63
     1c0:	0f 90       	pop	r0
     1c2:	1f 90       	pop	r1
     1c4:	18 95       	reti

000001c6 <__vector_14>:

/**
* @brief Main timer interrupt
*/	
ISR(TIMER0_COMPA_vect)
{
     1c6:	1f 92       	push	r1
     1c8:	0f 92       	push	r0
     1ca:	0f b6       	in	r0, 0x3f	; 63
     1cc:	0f 92       	push	r0
     1ce:	11 24       	eor	r1, r1
     1d0:	2f 93       	push	r18
     1d2:	3f 93       	push	r19
     1d4:	4f 93       	push	r20
     1d6:	5f 93       	push	r21
     1d8:	6f 93       	push	r22
     1da:	7f 93       	push	r23
     1dc:	8f 93       	push	r24
     1de:	9f 93       	push	r25
     1e0:	af 93       	push	r26
     1e2:	bf 93       	push	r27
     1e4:	ef 93       	push	r30
     1e6:	ff 93       	push	r31
	++timerMsCount;
     1e8:	80 91 53 03 	lds	r24, 0x0353	; 0x800353 <timerMsCount>
     1ec:	90 91 54 03 	lds	r25, 0x0354	; 0x800354 <timerMsCount+0x1>
     1f0:	01 96       	adiw	r24, 0x01	; 1
     1f2:	90 93 54 03 	sts	0x0354, r25	; 0x800354 <timerMsCount+0x1>
     1f6:	80 93 53 03 	sts	0x0353, r24	; 0x800353 <timerMsCount>
	
	if(timerMsCount == MS_IN_S) // A second has passed
     1fa:	80 91 53 03 	lds	r24, 0x0353	; 0x800353 <timerMsCount>
     1fe:	90 91 54 03 	lds	r25, 0x0354	; 0x800354 <timerMsCount+0x1>
     202:	88 3e       	cpi	r24, 0xE8	; 232
     204:	93 40       	sbci	r25, 0x03	; 3
     206:	91 f4       	brne	.+36     	; 0x22c <__vector_14+0x66>
	{
		timerMsCount = 0;
     208:	10 92 54 03 	sts	0x0354, r1	; 0x800354 <timerMsCount+0x1>
     20c:	10 92 53 03 	sts	0x0353, r1	; 0x800353 <timerMsCount>
		
		rfModule.timerSecTask();
     210:	89 ef       	ldi	r24, 0xF9	; 249
     212:	92 e0       	ldi	r25, 0x02	; 2
     214:	0e 94 b8 07 	call	0xf70	; 0xf70 <_ZN9RfManager12timerSecTaskEv>
		
		if(!serialCom.isConnInit())
     218:	86 ef       	ldi	r24, 0xF6	; 246
     21a:	92 e0       	ldi	r25, 0x02	; 2
     21c:	0e 94 8d 1d 	call	0x3b1a	; 0x3b1a <_ZNK13SerialManager10isConnInitEv>
     220:	81 11       	cpse	r24, r1
     222:	04 c0       	rjmp	.+8      	; 0x22c <__vector_14+0x66>
			serialCom.requestInit();
     224:	86 ef       	ldi	r24, 0xF6	; 246
     226:	92 e0       	ldi	r25, 0x02	; 2
     228:	0e 94 af 1d 	call	0x3b5e	; 0x3b5e <_ZN13SerialManager11requestInitEv>
	}
}
     22c:	ff 91       	pop	r31
     22e:	ef 91       	pop	r30
     230:	bf 91       	pop	r27
     232:	af 91       	pop	r26
     234:	9f 91       	pop	r25
     236:	8f 91       	pop	r24
     238:	7f 91       	pop	r23
     23a:	6f 91       	pop	r22
     23c:	5f 91       	pop	r21
     23e:	4f 91       	pop	r20
     240:	3f 91       	pop	r19
     242:	2f 91       	pop	r18
     244:	0f 90       	pop	r0
     246:	0f be       	out	0x3f, r0	; 63
     248:	0f 90       	pop	r0
     24a:	1f 90       	pop	r1
     24c:	18 95       	reti

0000024e <_GLOBAL__sub_I_timerMsCount>:
volatile char wasteChar;

/**
* @brief Main instance of the RfManager
*/
RfManager rfModule;
     24e:	89 ef       	ldi	r24, 0xF9	; 249
     250:	92 e0       	ldi	r25, 0x02	; 2
     252:	0e 94 26 05 	call	0xa4c	; 0xa4c <_ZN9RfManagerC1Ev>

/**
* @brief Main instance of the SerialManager
*/
SerialManager serialCom;
     256:	86 ef       	ldi	r24, 0xF6	; 246
     258:	92 e0       	ldi	r25, 0x02	; 2
     25a:	0e 94 c1 1b 	call	0x3782	; 0x3782 <_ZN13SerialManagerC1Ev>
     25e:	08 95       	ret

00000260 <_GLOBAL__sub_D_timerMsCount>:
     260:	86 ef       	ldi	r24, 0xF6	; 246
     262:	92 e0       	ldi	r25, 0x02	; 2
     264:	0e 94 c4 1b 	call	0x3788	; 0x3788 <_ZN13SerialManagerD1Ev>
volatile char wasteChar;

/**
* @brief Main instance of the RfManager
*/
RfManager rfModule;
     268:	89 ef       	ldi	r24, 0xF9	; 249
     26a:	92 e0       	ldi	r25, 0x02	; 2
     26c:	0e 94 b7 05 	call	0xb6e	; 0xb6e <_ZN9RfManagerD1Ev>
     270:	08 95       	ret

00000272 <_ZN9ControlRfC1Ev>:
* @return 0 if auto-acknowledging is disabled, 1 if it's enabled
*/
bool ControlRf::isAutoAck(void) const
{
	return m_autoAck;
}
     272:	cf 93       	push	r28
     274:	df 93       	push	r29
     276:	fc 01       	movw	r30, r24
     278:	10 82       	st	Z, r1
     27a:	11 82       	std	Z+1, r1	; 0x01
     27c:	12 82       	std	Z+2, r1	; 0x02
     27e:	13 82       	std	Z+3, r1	; 0x03
     280:	14 82       	std	Z+4, r1	; 0x04
     282:	15 82       	std	Z+5, r1	; 0x05
     284:	11 86       	std	Z+9, r1	; 0x09
     286:	10 86       	std	Z+8, r1	; 0x08
     288:	16 82       	std	Z+6, r1	; 0x06
     28a:	17 82       	std	Z+7, r1	; 0x07
     28c:	80 e6       	ldi	r24, 0x60	; 96
     28e:	99 e0       	ldi	r25, 0x09	; 9
     290:	93 87       	std	Z+11, r25	; 0x0b
     292:	82 87       	std	Z+10, r24	; 0x0a
     294:	14 86       	std	Z+12, r1	; 0x0c
     296:	ef 01       	movw	r28, r30
     298:	63 96       	adiw	r28, 0x13	; 19
     29a:	25 e0       	ldi	r18, 0x05	; 5
     29c:	de 01       	movw	r26, r28
     29e:	1d 92       	st	X+, r1
     2a0:	2a 95       	dec	r18
     2a2:	e9 f7       	brne	.-6      	; 0x29e <_ZN9ControlRfC1Ev+0x2c>
     2a4:	df 01       	movw	r26, r30
     2a6:	59 96       	adiw	r26, 0x19	; 25
     2a8:	3d 96       	adiw	r30, 0x0d	; 13
     2aa:	ce 01       	movw	r24, r28
     2ac:	26 e0       	ldi	r18, 0x06	; 6
     2ae:	ed 01       	movw	r28, r26
     2b0:	32 2f       	mov	r19, r18
     2b2:	19 92       	st	Y+, r1
     2b4:	3a 95       	dec	r19
     2b6:	e9 f7       	brne	.-6      	; 0x2b2 <_ZN9ControlRfC1Ev+0x40>
     2b8:	11 92       	st	Z+, r1
     2ba:	16 96       	adiw	r26, 0x06	; 6
     2bc:	e8 17       	cp	r30, r24
     2be:	f9 07       	cpc	r31, r25
     2c0:	b1 f7       	brne	.-20     	; 0x2ae <_ZN9ControlRfC1Ev+0x3c>
     2c2:	df 91       	pop	r29
     2c4:	cf 91       	pop	r28
     2c6:	08 95       	ret

000002c8 <_ZN9ControlRfD1Ev>:
     2c8:	08 95       	ret

000002ca <_ZN9ControlRf7readRegEjjPh>:
     2ca:	cf 92       	push	r12
     2cc:	df 92       	push	r13
     2ce:	ef 92       	push	r14
     2d0:	ff 92       	push	r15
     2d2:	1f 93       	push	r17
     2d4:	cf 93       	push	r28
     2d6:	df 93       	push	r29
     2d8:	c6 2f       	mov	r28, r22
     2da:	7a 01       	movw	r14, r20
     2dc:	69 01       	movw	r12, r18
     2de:	85 e3       	ldi	r24, 0x35	; 53
     2e0:	8a 95       	dec	r24
     2e2:	f1 f7       	brne	.-4      	; 0x2e0 <_ZN9ControlRf7readRegEjjPh+0x16>
     2e4:	00 00       	nop
     2e6:	80 91 55 03 	lds	r24, 0x0355	; 0x800355 <syst>
     2ea:	90 91 56 03 	lds	r25, 0x0356	; 0x800356 <syst+0x1>
     2ee:	0e 94 47 28 	call	0x508e	; 0x508e <_ZN13SystemManager3spiEv>
     2f2:	60 e0       	ldi	r22, 0x00	; 0
     2f4:	0e 94 0f 27 	call	0x4e1e	; 0x4e1e <_ZN10ControlSPI12toggleCSNPinEb>
     2f8:	85 e3       	ldi	r24, 0x35	; 53
     2fa:	8a 95       	dec	r24
     2fc:	f1 f7       	brne	.-4      	; 0x2fa <_ZN9ControlRf7readRegEjjPh+0x30>
     2fe:	00 00       	nop
     300:	80 91 55 03 	lds	r24, 0x0355	; 0x800355 <syst>
     304:	90 91 56 03 	lds	r25, 0x0356	; 0x800356 <syst+0x1>
     308:	0e 94 47 28 	call	0x508e	; 0x508e <_ZN13SystemManager3spiEv>
     30c:	6c 2f       	mov	r22, r28
     30e:	0e 94 03 27 	call	0x4e06	; 0x4e06 <_ZN10ControlSPI8exchByteEh>
     312:	85 e3       	ldi	r24, 0x35	; 53
     314:	8a 95       	dec	r24
     316:	f1 f7       	brne	.-4      	; 0x314 <_ZN9ControlRf7readRegEjjPh+0x4a>
     318:	00 00       	nop
     31a:	e1 14       	cp	r14, r1
     31c:	f1 04       	cpc	r15, r1
     31e:	d1 f0       	breq	.+52     	; 0x354 <_ZN9ControlRf7readRegEjjPh+0x8a>
     320:	80 e0       	ldi	r24, 0x00	; 0
     322:	90 e0       	ldi	r25, 0x00	; 0
     324:	10 e0       	ldi	r17, 0x00	; 0
     326:	e6 01       	movw	r28, r12
     328:	c8 0f       	add	r28, r24
     32a:	d9 1f       	adc	r29, r25
     32c:	80 91 55 03 	lds	r24, 0x0355	; 0x800355 <syst>
     330:	90 91 56 03 	lds	r25, 0x0356	; 0x800356 <syst+0x1>
     334:	0e 94 47 28 	call	0x508e	; 0x508e <_ZN13SystemManager3spiEv>
     338:	6f ef       	ldi	r22, 0xFF	; 255
     33a:	0e 94 03 27 	call	0x4e06	; 0x4e06 <_ZN10ControlSPI8exchByteEh>
     33e:	88 83       	st	Y, r24
     340:	85 e3       	ldi	r24, 0x35	; 53
     342:	8a 95       	dec	r24
     344:	f1 f7       	brne	.-4      	; 0x342 <_ZN9ControlRf7readRegEjjPh+0x78>
     346:	00 00       	nop
     348:	1f 5f       	subi	r17, 0xFF	; 255
     34a:	81 2f       	mov	r24, r17
     34c:	90 e0       	ldi	r25, 0x00	; 0
     34e:	8e 15       	cp	r24, r14
     350:	9f 05       	cpc	r25, r15
     352:	48 f3       	brcs	.-46     	; 0x326 <_ZN9ControlRf7readRegEjjPh+0x5c>
     354:	80 91 55 03 	lds	r24, 0x0355	; 0x800355 <syst>
     358:	90 91 56 03 	lds	r25, 0x0356	; 0x800356 <syst+0x1>
     35c:	0e 94 47 28 	call	0x508e	; 0x508e <_ZN13SystemManager3spiEv>
     360:	61 e0       	ldi	r22, 0x01	; 1
     362:	0e 94 0f 27 	call	0x4e1e	; 0x4e1e <_ZN10ControlSPI12toggleCSNPinEb>
     366:	df 91       	pop	r29
     368:	cf 91       	pop	r28
     36a:	1f 91       	pop	r17
     36c:	ff 90       	pop	r15
     36e:	ef 90       	pop	r14
     370:	df 90       	pop	r13
     372:	cf 90       	pop	r12
     374:	08 95       	ret

00000376 <_ZN9ControlRf8writeRegEjPhj>:
     376:	ef 92       	push	r14
     378:	ff 92       	push	r15
     37a:	0f 93       	push	r16
     37c:	1f 93       	push	r17
     37e:	cf 93       	push	r28
     380:	df 93       	push	r29
     382:	eb 01       	movw	r28, r22
     384:	7a 01       	movw	r14, r20
     386:	89 01       	movw	r16, r18
     388:	85 e3       	ldi	r24, 0x35	; 53
     38a:	8a 95       	dec	r24
     38c:	f1 f7       	brne	.-4      	; 0x38a <_ZN9ControlRf8writeRegEjPhj+0x14>
     38e:	00 00       	nop
     390:	80 91 55 03 	lds	r24, 0x0355	; 0x800355 <syst>
     394:	90 91 56 03 	lds	r25, 0x0356	; 0x800356 <syst+0x1>
     398:	0e 94 47 28 	call	0x508e	; 0x508e <_ZN13SystemManager3spiEv>
     39c:	60 e0       	ldi	r22, 0x00	; 0
     39e:	0e 94 0f 27 	call	0x4e1e	; 0x4e1e <_ZN10ControlSPI12toggleCSNPinEb>
     3a2:	85 e3       	ldi	r24, 0x35	; 53
     3a4:	8a 95       	dec	r24
     3a6:	f1 f7       	brne	.-4      	; 0x3a4 <_ZN9ControlRf8writeRegEjPhj+0x2e>
     3a8:	00 00       	nop
     3aa:	c1 3e       	cpi	r28, 0xE1	; 225
     3ac:	d1 05       	cpc	r29, r1
     3ae:	19 f0       	breq	.+6      	; 0x3b6 <_ZN9ControlRf8writeRegEjPhj+0x40>
     3b0:	c0 3a       	cpi	r28, 0xA0	; 160
     3b2:	d1 05       	cpc	r29, r1
     3b4:	51 f4       	brne	.+20     	; 0x3ca <_ZN9ControlRf8writeRegEjPhj+0x54>
     3b6:	80 91 55 03 	lds	r24, 0x0355	; 0x800355 <syst>
     3ba:	90 91 56 03 	lds	r25, 0x0356	; 0x800356 <syst+0x1>
     3be:	0e 94 47 28 	call	0x508e	; 0x508e <_ZN13SystemManager3spiEv>
     3c2:	6c 2f       	mov	r22, r28
     3c4:	0e 94 03 27 	call	0x4e06	; 0x4e06 <_ZN10ControlSPI8exchByteEh>
     3c8:	0a c0       	rjmp	.+20     	; 0x3de <_ZN9ControlRf8writeRegEjPhj+0x68>
     3ca:	80 91 55 03 	lds	r24, 0x0355	; 0x800355 <syst>
     3ce:	90 91 56 03 	lds	r25, 0x0356	; 0x800356 <syst+0x1>
     3d2:	0e 94 47 28 	call	0x508e	; 0x508e <_ZN13SystemManager3spiEv>
     3d6:	6c 2f       	mov	r22, r28
     3d8:	60 5e       	subi	r22, 0xE0	; 224
     3da:	0e 94 03 27 	call	0x4e06	; 0x4e06 <_ZN10ControlSPI8exchByteEh>
     3de:	85 e3       	ldi	r24, 0x35	; 53
     3e0:	8a 95       	dec	r24
     3e2:	f1 f7       	brne	.-4      	; 0x3e0 <_ZN9ControlRf8writeRegEjPhj+0x6a>
     3e4:	00 00       	nop
     3e6:	01 15       	cp	r16, r1
     3e8:	11 05       	cpc	r17, r1
     3ea:	d1 f0       	breq	.+52     	; 0x420 <__LOCK_REGION_LENGTH__+0x20>
     3ec:	80 e0       	ldi	r24, 0x00	; 0
     3ee:	90 e0       	ldi	r25, 0x00	; 0
     3f0:	c0 e0       	ldi	r28, 0x00	; 0
     3f2:	f7 01       	movw	r30, r14
     3f4:	e8 0f       	add	r30, r24
     3f6:	f9 1f       	adc	r31, r25
     3f8:	d0 81       	ld	r29, Z
     3fa:	80 91 55 03 	lds	r24, 0x0355	; 0x800355 <syst>
     3fe:	90 91 56 03 	lds	r25, 0x0356	; 0x800356 <syst+0x1>
     402:	0e 94 47 28 	call	0x508e	; 0x508e <_ZN13SystemManager3spiEv>
     406:	6d 2f       	mov	r22, r29
     408:	0e 94 03 27 	call	0x4e06	; 0x4e06 <_ZN10ControlSPI8exchByteEh>
     40c:	85 e3       	ldi	r24, 0x35	; 53
     40e:	8a 95       	dec	r24
     410:	f1 f7       	brne	.-4      	; 0x40e <__LOCK_REGION_LENGTH__+0xe>
     412:	00 00       	nop
     414:	cf 5f       	subi	r28, 0xFF	; 255
     416:	8c 2f       	mov	r24, r28
     418:	90 e0       	ldi	r25, 0x00	; 0
     41a:	80 17       	cp	r24, r16
     41c:	91 07       	cpc	r25, r17
     41e:	48 f3       	brcs	.-46     	; 0x3f2 <_ZN9ControlRf8writeRegEjPhj+0x7c>
     420:	80 91 55 03 	lds	r24, 0x0355	; 0x800355 <syst>
     424:	90 91 56 03 	lds	r25, 0x0356	; 0x800356 <syst+0x1>
     428:	0e 94 47 28 	call	0x508e	; 0x508e <_ZN13SystemManager3spiEv>
     42c:	61 e0       	ldi	r22, 0x01	; 1
     42e:	0e 94 0f 27 	call	0x4e1e	; 0x4e1e <_ZN10ControlSPI12toggleCSNPinEb>
     432:	df 91       	pop	r29
     434:	cf 91       	pop	r28
     436:	1f 91       	pop	r17
     438:	0f 91       	pop	r16
     43a:	ff 90       	pop	r15
     43c:	ef 90       	pop	r14
     43e:	08 95       	ret

00000440 <_ZN9ControlRf8writeRegEjh>:
     440:	1f 93       	push	r17
     442:	cf 93       	push	r28
     444:	df 93       	push	r29
     446:	eb 01       	movw	r28, r22
     448:	14 2f       	mov	r17, r20
     44a:	85 e3       	ldi	r24, 0x35	; 53
     44c:	8a 95       	dec	r24
     44e:	f1 f7       	brne	.-4      	; 0x44c <_ZN9ControlRf8writeRegEjh+0xc>
     450:	00 00       	nop
     452:	80 91 55 03 	lds	r24, 0x0355	; 0x800355 <syst>
     456:	90 91 56 03 	lds	r25, 0x0356	; 0x800356 <syst+0x1>
     45a:	0e 94 47 28 	call	0x508e	; 0x508e <_ZN13SystemManager3spiEv>
     45e:	60 e0       	ldi	r22, 0x00	; 0
     460:	0e 94 0f 27 	call	0x4e1e	; 0x4e1e <_ZN10ControlSPI12toggleCSNPinEb>
     464:	85 e3       	ldi	r24, 0x35	; 53
     466:	8a 95       	dec	r24
     468:	f1 f7       	brne	.-4      	; 0x466 <_ZN9ControlRf8writeRegEjh+0x26>
     46a:	00 00       	nop
     46c:	c1 3e       	cpi	r28, 0xE1	; 225
     46e:	d1 05       	cpc	r29, r1
     470:	19 f0       	breq	.+6      	; 0x478 <_ZN9ControlRf8writeRegEjh+0x38>
     472:	c0 3a       	cpi	r28, 0xA0	; 160
     474:	d1 05       	cpc	r29, r1
     476:	51 f4       	brne	.+20     	; 0x48c <_ZN9ControlRf8writeRegEjh+0x4c>
     478:	80 91 55 03 	lds	r24, 0x0355	; 0x800355 <syst>
     47c:	90 91 56 03 	lds	r25, 0x0356	; 0x800356 <syst+0x1>
     480:	0e 94 47 28 	call	0x508e	; 0x508e <_ZN13SystemManager3spiEv>
     484:	6c 2f       	mov	r22, r28
     486:	0e 94 03 27 	call	0x4e06	; 0x4e06 <_ZN10ControlSPI8exchByteEh>
     48a:	0a c0       	rjmp	.+20     	; 0x4a0 <_ZN9ControlRf8writeRegEjh+0x60>
     48c:	80 91 55 03 	lds	r24, 0x0355	; 0x800355 <syst>
     490:	90 91 56 03 	lds	r25, 0x0356	; 0x800356 <syst+0x1>
     494:	0e 94 47 28 	call	0x508e	; 0x508e <_ZN13SystemManager3spiEv>
     498:	6c 2f       	mov	r22, r28
     49a:	60 5e       	subi	r22, 0xE0	; 224
     49c:	0e 94 03 27 	call	0x4e06	; 0x4e06 <_ZN10ControlSPI8exchByteEh>
     4a0:	85 e3       	ldi	r24, 0x35	; 53
     4a2:	8a 95       	dec	r24
     4a4:	f1 f7       	brne	.-4      	; 0x4a2 <_ZN9ControlRf8writeRegEjh+0x62>
     4a6:	00 00       	nop
     4a8:	80 91 55 03 	lds	r24, 0x0355	; 0x800355 <syst>
     4ac:	90 91 56 03 	lds	r25, 0x0356	; 0x800356 <syst+0x1>
     4b0:	0e 94 47 28 	call	0x508e	; 0x508e <_ZN13SystemManager3spiEv>
     4b4:	61 2f       	mov	r22, r17
     4b6:	0e 94 03 27 	call	0x4e06	; 0x4e06 <_ZN10ControlSPI8exchByteEh>
     4ba:	85 e3       	ldi	r24, 0x35	; 53
     4bc:	8a 95       	dec	r24
     4be:	f1 f7       	brne	.-4      	; 0x4bc <_ZN9ControlRf8writeRegEjh+0x7c>
     4c0:	00 00       	nop
     4c2:	80 91 55 03 	lds	r24, 0x0355	; 0x800355 <syst>
     4c6:	90 91 56 03 	lds	r25, 0x0356	; 0x800356 <syst+0x1>
     4ca:	0e 94 47 28 	call	0x508e	; 0x508e <_ZN13SystemManager3spiEv>
     4ce:	61 e0       	ldi	r22, 0x01	; 1
     4d0:	0e 94 0f 27 	call	0x4e1e	; 0x4e1e <_ZN10ControlSPI12toggleCSNPinEb>
     4d4:	df 91       	pop	r29
     4d6:	cf 91       	pop	r28
     4d8:	1f 91       	pop	r17
     4da:	08 95       	ret

000004dc <_ZN9ControlRf7resetRFEv>:
     4dc:	cf 93       	push	r28
     4de:	df 93       	push	r29
     4e0:	ec 01       	movw	r28, r24
     4e2:	85 e3       	ldi	r24, 0x35	; 53
     4e4:	8a 95       	dec	r24
     4e6:	f1 f7       	brne	.-4      	; 0x4e4 <_ZN9ControlRf7resetRFEv+0x8>
     4e8:	00 00       	nop
     4ea:	80 91 55 03 	lds	r24, 0x0355	; 0x800355 <syst>
     4ee:	90 91 56 03 	lds	r25, 0x0356	; 0x800356 <syst+0x1>
     4f2:	0e 94 47 28 	call	0x508e	; 0x508e <_ZN13SystemManager3spiEv>
     4f6:	60 e0       	ldi	r22, 0x00	; 0
     4f8:	0e 94 0f 27 	call	0x4e1e	; 0x4e1e <_ZN10ControlSPI12toggleCSNPinEb>
     4fc:	85 e3       	ldi	r24, 0x35	; 53
     4fe:	8a 95       	dec	r24
     500:	f1 f7       	brne	.-4      	; 0x4fe <_ZN9ControlRf7resetRFEv+0x22>
     502:	00 00       	nop
     504:	40 e7       	ldi	r20, 0x70	; 112
     506:	67 e0       	ldi	r22, 0x07	; 7
     508:	70 e0       	ldi	r23, 0x00	; 0
     50a:	ce 01       	movw	r24, r28
     50c:	0e 94 20 02 	call	0x440	; 0x440 <_ZN9ControlRf8writeRegEjh>
     510:	8a e6       	ldi	r24, 0x6A	; 106
     512:	8a 95       	dec	r24
     514:	f1 f7       	brne	.-4      	; 0x512 <_ZN9ControlRf7resetRFEv+0x36>
     516:	00 c0       	rjmp	.+0      	; 0x518 <_ZN9ControlRf7resetRFEv+0x3c>
     518:	80 91 55 03 	lds	r24, 0x0355	; 0x800355 <syst>
     51c:	90 91 56 03 	lds	r25, 0x0356	; 0x800356 <syst+0x1>
     520:	0e 94 47 28 	call	0x508e	; 0x508e <_ZN13SystemManager3spiEv>
     524:	61 e0       	ldi	r22, 0x01	; 1
     526:	0e 94 0f 27 	call	0x4e1e	; 0x4e1e <_ZN10ControlSPI12toggleCSNPinEb>
     52a:	df 91       	pop	r29
     52c:	cf 91       	pop	r28
     52e:	08 95       	ret

00000530 <_ZN9ControlRf11transmitMsgEPhj>:
     530:	ef 92       	push	r14
     532:	ff 92       	push	r15
     534:	0f 93       	push	r16
     536:	1f 93       	push	r17
     538:	cf 93       	push	r28
     53a:	df 93       	push	r29
     53c:	ec 01       	movw	r28, r24
     53e:	8b 01       	movw	r16, r22
     540:	7a 01       	movw	r14, r20
     542:	20 e0       	ldi	r18, 0x00	; 0
     544:	30 e0       	ldi	r19, 0x00	; 0
     546:	ab 01       	movw	r20, r22
     548:	61 ee       	ldi	r22, 0xE1	; 225
     54a:	70 e0       	ldi	r23, 0x00	; 0
     54c:	0e 94 bb 01 	call	0x376	; 0x376 <_ZN9ControlRf8writeRegEjPhj>
     550:	97 01       	movw	r18, r14
     552:	a8 01       	movw	r20, r16
     554:	60 ea       	ldi	r22, 0xA0	; 160
     556:	70 e0       	ldi	r23, 0x00	; 0
     558:	ce 01       	movw	r24, r28
     55a:	0e 94 bb 01 	call	0x376	; 0x376 <_ZN9ControlRf8writeRegEjPhj>
     55e:	8f e3       	ldi	r24, 0x3F	; 63
     560:	9c e9       	ldi	r25, 0x9C	; 156
     562:	01 97       	sbiw	r24, 0x01	; 1
     564:	f1 f7       	brne	.-4      	; 0x562 <_ZN9ControlRf11transmitMsgEPhj+0x32>
     566:	00 c0       	rjmp	.+0      	; 0x568 <_ZN9ControlRf11transmitMsgEPhj+0x38>
     568:	00 00       	nop
     56a:	80 91 55 03 	lds	r24, 0x0355	; 0x800355 <syst>
     56e:	90 91 56 03 	lds	r25, 0x0356	; 0x800356 <syst+0x1>
     572:	0e 94 47 28 	call	0x508e	; 0x508e <_ZN13SystemManager3spiEv>
     576:	61 e0       	ldi	r22, 0x01	; 1
     578:	0e 94 09 27 	call	0x4e12	; 0x4e12 <_ZN10ControlSPI11toggleCEPinEb>
     57c:	9a e6       	ldi	r25, 0x6A	; 106
     57e:	9a 95       	dec	r25
     580:	f1 f7       	brne	.-4      	; 0x57e <_ZN9ControlRf11transmitMsgEPhj+0x4e>
     582:	00 c0       	rjmp	.+0      	; 0x584 <_ZN9ControlRf11transmitMsgEPhj+0x54>
     584:	80 91 55 03 	lds	r24, 0x0355	; 0x800355 <syst>
     588:	90 91 56 03 	lds	r25, 0x0356	; 0x800356 <syst+0x1>
     58c:	0e 94 47 28 	call	0x508e	; 0x508e <_ZN13SystemManager3spiEv>
     590:	60 e0       	ldi	r22, 0x00	; 0
     592:	0e 94 09 27 	call	0x4e12	; 0x4e12 <_ZN10ControlSPI11toggleCEPinEb>
     596:	8f e3       	ldi	r24, 0x3F	; 63
     598:	9c e9       	ldi	r25, 0x9C	; 156
     59a:	01 97       	sbiw	r24, 0x01	; 1
     59c:	f1 f7       	brne	.-4      	; 0x59a <_ZN9ControlRf11transmitMsgEPhj+0x6a>
     59e:	00 c0       	rjmp	.+0      	; 0x5a0 <_ZN9ControlRf11transmitMsgEPhj+0x70>
     5a0:	00 00       	nop
     5a2:	ce 01       	movw	r24, r28
     5a4:	0e 94 6e 02 	call	0x4dc	; 0x4dc <_ZN9ControlRf7resetRFEv>
     5a8:	df 91       	pop	r29
     5aa:	cf 91       	pop	r28
     5ac:	1f 91       	pop	r17
     5ae:	0f 91       	pop	r16
     5b0:	ff 90       	pop	r15
     5b2:	ef 90       	pop	r14
     5b4:	08 95       	ret

000005b6 <_ZN9ControlRf10receiveMsgEPh>:
     5b6:	9b 01       	movw	r18, r22
     5b8:	fc 01       	movw	r30, r24
     5ba:	44 81       	ldd	r20, Z+4	; 0x04
     5bc:	50 e0       	ldi	r21, 0x00	; 0
     5be:	61 e6       	ldi	r22, 0x61	; 97
     5c0:	70 e0       	ldi	r23, 0x00	; 0
     5c2:	0e 94 65 01 	call	0x2ca	; 0x2ca <_ZN9ControlRf7readRegEjjPh>
     5c6:	08 95       	ret

000005c8 <_ZN9ControlRf10setPALevelEh>:
     5c8:	26 2f       	mov	r18, r22
     5ca:	2d 7f       	andi	r18, 0xFD	; 253
     5cc:	24 30       	cpi	r18, 0x04	; 4
     5ce:	11 f0       	breq	.+4      	; 0x5d4 <_ZN9ControlRf10setPALevelEh+0xc>
     5d0:	21 11       	cpse	r18, r1
     5d2:	08 c0       	rjmp	.+16     	; 0x5e4 <_ZN9ControlRf10setPALevelEh+0x1c>
     5d4:	fc 01       	movw	r30, r24
     5d6:	60 83       	st	Z, r22
     5d8:	43 81       	ldd	r20, Z+3	; 0x03
     5da:	46 2b       	or	r20, r22
     5dc:	66 e0       	ldi	r22, 0x06	; 6
     5de:	70 e0       	ldi	r23, 0x00	; 0
     5e0:	0e 94 20 02 	call	0x440	; 0x440 <_ZN9ControlRf8writeRegEjh>
     5e4:	08 95       	ret

000005e6 <_ZN9ControlRf10setAutoAckEb>:
     5e6:	fc 01       	movw	r30, r24
     5e8:	64 87       	std	Z+12, r22	; 0x0c
     5ea:	66 23       	and	r22, r22
     5ec:	31 f0       	breq	.+12     	; 0x5fa <_ZN9ControlRf10setAutoAckEb+0x14>
     5ee:	4f e3       	ldi	r20, 0x3F	; 63
     5f0:	61 e0       	ldi	r22, 0x01	; 1
     5f2:	70 e0       	ldi	r23, 0x00	; 0
     5f4:	0e 94 20 02 	call	0x440	; 0x440 <_ZN9ControlRf8writeRegEjh>
     5f8:	08 95       	ret
     5fa:	40 e0       	ldi	r20, 0x00	; 0
     5fc:	61 e0       	ldi	r22, 0x01	; 1
     5fe:	70 e0       	ldi	r23, 0x00	; 0
     600:	0e 94 20 02 	call	0x440	; 0x440 <_ZN9ControlRf8writeRegEjh>
     604:	08 95       	ret

00000606 <_ZN9ControlRf14setDataPipsNumEh>:
     606:	26 2f       	mov	r18, r22
     608:	30 e0       	ldi	r19, 0x00	; 0
     60a:	12 16       	cp	r1, r18
     60c:	13 06       	cpc	r1, r19
     60e:	2c f4       	brge	.+10     	; 0x61a <_ZN9ControlRf14setDataPipsNumEh+0x14>
     610:	27 30       	cpi	r18, 0x07	; 7
     612:	31 05       	cpc	r19, r1
     614:	1c f0       	brlt	.+6      	; 0x61c <_ZN9ControlRf14setDataPipsNumEh+0x16>
     616:	66 e0       	ldi	r22, 0x06	; 6
     618:	01 c0       	rjmp	.+2      	; 0x61c <_ZN9ControlRf14setDataPipsNumEh+0x16>
     61a:	61 e0       	ldi	r22, 0x01	; 1
     61c:	fc 01       	movw	r30, r24
     61e:	61 83       	std	Z+1, r22	; 0x01
     620:	08 95       	ret

00000622 <_ZN9ControlRf10setAddrLenEh>:
     622:	26 2f       	mov	r18, r22
     624:	30 e0       	ldi	r19, 0x00	; 0
     626:	23 30       	cpi	r18, 0x03	; 3
     628:	31 05       	cpc	r19, r1
     62a:	2c f0       	brlt	.+10     	; 0x636 <_ZN9ControlRf10setAddrLenEh+0x14>
     62c:	26 30       	cpi	r18, 0x06	; 6
     62e:	31 05       	cpc	r19, r1
     630:	24 f0       	brlt	.+8      	; 0x63a <_ZN9ControlRf10setAddrLenEh+0x18>
     632:	45 e0       	ldi	r20, 0x05	; 5
     634:	03 c0       	rjmp	.+6      	; 0x63c <_ZN9ControlRf10setAddrLenEh+0x1a>
     636:	43 e0       	ldi	r20, 0x03	; 3
     638:	01 c0       	rjmp	.+2      	; 0x63c <_ZN9ControlRf10setAddrLenEh+0x1a>
     63a:	46 2f       	mov	r20, r22
     63c:	fc 01       	movw	r30, r24
     63e:	42 83       	std	Z+2, r20	; 0x02
     640:	42 50       	subi	r20, 0x02	; 2
     642:	63 e0       	ldi	r22, 0x03	; 3
     644:	70 e0       	ldi	r23, 0x00	; 0
     646:	0e 94 20 02 	call	0x440	; 0x440 <_ZN9ControlRf8writeRegEjh>
     64a:	08 95       	ret

0000064c <_ZN9ControlRf17setChannelFreqMHZEj>:
     64c:	60 36       	cpi	r22, 0x60	; 96
     64e:	29 e0       	ldi	r18, 0x09	; 9
     650:	72 07       	cpc	r23, r18
     652:	38 f0       	brcs	.+14     	; 0x662 <_ZN9ControlRf17setChannelFreqMHZEj+0x16>
     654:	ab 01       	movw	r20, r22
     656:	60 3e       	cpi	r22, 0xE0	; 224
     658:	79 40       	sbci	r23, 0x09	; 9
     65a:	28 f0       	brcs	.+10     	; 0x666 <_ZN9ControlRf17setChannelFreqMHZEj+0x1a>
     65c:	4f ed       	ldi	r20, 0xDF	; 223
     65e:	59 e0       	ldi	r21, 0x09	; 9
     660:	02 c0       	rjmp	.+4      	; 0x666 <_ZN9ControlRf17setChannelFreqMHZEj+0x1a>
     662:	40 e6       	ldi	r20, 0x60	; 96
     664:	59 e0       	ldi	r21, 0x09	; 9
     666:	fc 01       	movw	r30, r24
     668:	53 87       	std	Z+11, r21	; 0x0b
     66a:	42 87       	std	Z+10, r20	; 0x0a
     66c:	40 56       	subi	r20, 0x60	; 96
     66e:	65 e0       	ldi	r22, 0x05	; 5
     670:	70 e0       	ldi	r23, 0x00	; 0
     672:	0e 94 20 02 	call	0x440	; 0x440 <_ZN9ControlRf8writeRegEjh>
     676:	08 95       	ret

00000678 <_ZN9ControlRf11setDataRateEh>:
     678:	60 32       	cpi	r22, 0x20	; 32
     67a:	19 f0       	breq	.+6      	; 0x682 <_ZN9ControlRf11setDataRateEh+0xa>
     67c:	26 2f       	mov	r18, r22
     67e:	27 7f       	andi	r18, 0xF7	; 247
     680:	41 f4       	brne	.+16     	; 0x692 <_ZN9ControlRf11setDataRateEh+0x1a>
     682:	fc 01       	movw	r30, r24
     684:	63 83       	std	Z+3, r22	; 0x03
     686:	40 81       	ld	r20, Z
     688:	46 2b       	or	r20, r22
     68a:	66 e0       	ldi	r22, 0x06	; 6
     68c:	70 e0       	ldi	r23, 0x00	; 0
     68e:	0e 94 20 02 	call	0x440	; 0x440 <_ZN9ControlRf8writeRegEjh>
     692:	08 95       	ret

00000694 <_ZN9ControlRf13setPayloadLenEh>:
     694:	cf 93       	push	r28
     696:	df 93       	push	r29
     698:	ec 01       	movw	r28, r24
     69a:	86 2f       	mov	r24, r22
     69c:	90 e0       	ldi	r25, 0x00	; 0
     69e:	18 16       	cp	r1, r24
     6a0:	19 06       	cpc	r1, r25
     6a2:	24 f4       	brge	.+8      	; 0x6ac <_ZN9ControlRf13setPayloadLenEh+0x18>
     6a4:	81 97       	sbiw	r24, 0x21	; 33
     6a6:	24 f0       	brlt	.+8      	; 0x6b0 <_ZN9ControlRf13setPayloadLenEh+0x1c>
     6a8:	40 e2       	ldi	r20, 0x20	; 32
     6aa:	03 c0       	rjmp	.+6      	; 0x6b2 <_ZN9ControlRf13setPayloadLenEh+0x1e>
     6ac:	41 e0       	ldi	r20, 0x01	; 1
     6ae:	01 c0       	rjmp	.+2      	; 0x6b2 <_ZN9ControlRf13setPayloadLenEh+0x1e>
     6b0:	46 2f       	mov	r20, r22
     6b2:	4c 83       	std	Y+4, r20	; 0x04
     6b4:	61 e1       	ldi	r22, 0x11	; 17
     6b6:	70 e0       	ldi	r23, 0x00	; 0
     6b8:	ce 01       	movw	r24, r28
     6ba:	0e 94 20 02 	call	0x440	; 0x440 <_ZN9ControlRf8writeRegEjh>
     6be:	4c 81       	ldd	r20, Y+4	; 0x04
     6c0:	62 e1       	ldi	r22, 0x12	; 18
     6c2:	70 e0       	ldi	r23, 0x00	; 0
     6c4:	ce 01       	movw	r24, r28
     6c6:	0e 94 20 02 	call	0x440	; 0x440 <_ZN9ControlRf8writeRegEjh>
     6ca:	4c 81       	ldd	r20, Y+4	; 0x04
     6cc:	63 e1       	ldi	r22, 0x13	; 19
     6ce:	70 e0       	ldi	r23, 0x00	; 0
     6d0:	ce 01       	movw	r24, r28
     6d2:	0e 94 20 02 	call	0x440	; 0x440 <_ZN9ControlRf8writeRegEjh>
     6d6:	4c 81       	ldd	r20, Y+4	; 0x04
     6d8:	64 e1       	ldi	r22, 0x14	; 20
     6da:	70 e0       	ldi	r23, 0x00	; 0
     6dc:	ce 01       	movw	r24, r28
     6de:	0e 94 20 02 	call	0x440	; 0x440 <_ZN9ControlRf8writeRegEjh>
     6e2:	4c 81       	ldd	r20, Y+4	; 0x04
     6e4:	65 e1       	ldi	r22, 0x15	; 21
     6e6:	70 e0       	ldi	r23, 0x00	; 0
     6e8:	ce 01       	movw	r24, r28
     6ea:	0e 94 20 02 	call	0x440	; 0x440 <_ZN9ControlRf8writeRegEjh>
     6ee:	4c 81       	ldd	r20, Y+4	; 0x04
     6f0:	66 e1       	ldi	r22, 0x16	; 22
     6f2:	70 e0       	ldi	r23, 0x00	; 0
     6f4:	ce 01       	movw	r24, r28
     6f6:	0e 94 20 02 	call	0x440	; 0x440 <_ZN9ControlRf8writeRegEjh>
     6fa:	df 91       	pop	r29
     6fc:	cf 91       	pop	r28
     6fe:	08 95       	ret

00000700 <_ZN9ControlRf13setRetryCountEh>:
     700:	fc 01       	movw	r30, r24
     702:	86 2f       	mov	r24, r22
     704:	90 e0       	ldi	r25, 0x00	; 0
     706:	40 97       	sbiw	r24, 0x10	; 16
     708:	14 f0       	brlt	.+4      	; 0x70e <_ZN9ControlRf13setRetryCountEh+0xe>
     70a:	4f e0       	ldi	r20, 0x0F	; 15
     70c:	01 c0       	rjmp	.+2      	; 0x710 <_ZN9ControlRf13setRetryCountEh+0x10>
     70e:	46 2f       	mov	r20, r22
     710:	45 83       	std	Z+5, r20	; 0x05
     712:	20 85       	ldd	r18, Z+8	; 0x08
     714:	31 85       	ldd	r19, Z+9	; 0x09
     716:	2a 5f       	subi	r18, 0xFA	; 250
     718:	31 09       	sbc	r19, r1
     71a:	36 95       	lsr	r19
     71c:	27 95       	ror	r18
     71e:	a3 e1       	ldi	r26, 0x13	; 19
     720:	b3 e8       	ldi	r27, 0x83	; 131
     722:	0e 94 af 29 	call	0x535e	; 0x535e <__umulhisi3>
     726:	96 95       	lsr	r25
     728:	87 95       	ror	r24
     72a:	96 95       	lsr	r25
     72c:	87 95       	ror	r24
     72e:	80 7f       	andi	r24, 0xF0	; 240
     730:	9f 70       	andi	r25, 0x0F	; 15
     732:	48 2b       	or	r20, r24
     734:	64 e0       	ldi	r22, 0x04	; 4
     736:	70 e0       	ldi	r23, 0x00	; 0
     738:	cf 01       	movw	r24, r30
     73a:	0e 94 20 02 	call	0x440	; 0x440 <_ZN9ControlRf8writeRegEjh>
     73e:	08 95       	ret

00000740 <_ZN9ControlRf13setRetryDelayEj>:
     740:	fc 01       	movw	r30, r24
     742:	6a 3f       	cpi	r22, 0xFA	; 250
     744:	71 05       	cpc	r23, r1
     746:	38 f0       	brcs	.+14     	; 0x756 <_ZN9ControlRf13setRetryDelayEj+0x16>
     748:	61 3a       	cpi	r22, 0xA1	; 161
     74a:	8f e0       	ldi	r24, 0x0F	; 15
     74c:	78 07       	cpc	r23, r24
     74e:	28 f0       	brcs	.+10     	; 0x75a <_ZN9ControlRf13setRetryDelayEj+0x1a>
     750:	60 ea       	ldi	r22, 0xA0	; 160
     752:	7f e0       	ldi	r23, 0x0F	; 15
     754:	02 c0       	rjmp	.+4      	; 0x75a <_ZN9ControlRf13setRetryDelayEj+0x1a>
     756:	6a ef       	ldi	r22, 0xFA	; 250
     758:	70 e0       	ldi	r23, 0x00	; 0
     75a:	71 87       	std	Z+9, r23	; 0x09
     75c:	60 87       	std	Z+8, r22	; 0x08
     75e:	6a 5f       	subi	r22, 0xFA	; 250
     760:	71 09       	sbc	r23, r1
     762:	9b 01       	movw	r18, r22
     764:	36 95       	lsr	r19
     766:	27 95       	ror	r18
     768:	a3 e1       	ldi	r26, 0x13	; 19
     76a:	b3 e8       	ldi	r27, 0x83	; 131
     76c:	0e 94 af 29 	call	0x535e	; 0x535e <__umulhisi3>
     770:	96 95       	lsr	r25
     772:	87 95       	ror	r24
     774:	96 95       	lsr	r25
     776:	87 95       	ror	r24
     778:	80 7f       	andi	r24, 0xF0	; 240
     77a:	9f 70       	andi	r25, 0x0F	; 15
     77c:	45 81       	ldd	r20, Z+5	; 0x05
     77e:	48 2b       	or	r20, r24
     780:	64 e0       	ldi	r22, 0x04	; 4
     782:	70 e0       	ldi	r23, 0x00	; 0
     784:	cf 01       	movw	r24, r30
     786:	0e 94 20 02 	call	0x440	; 0x440 <_ZN9ControlRf8writeRegEjh>
     78a:	08 95       	ret

0000078c <_ZN9ControlRf14enableDataPipsEPb>:
     78c:	0f 93       	push	r16
     78e:	1f 93       	push	r17
     790:	cf 93       	push	r28
     792:	df 93       	push	r29
     794:	8c 01       	movw	r16, r24
     796:	dc 01       	movw	r26, r24
     798:	1d 96       	adiw	r26, 0x0d	; 13
     79a:	e6 2f       	mov	r30, r22
     79c:	f7 2f       	mov	r31, r23
     79e:	60 e0       	ldi	r22, 0x00	; 0
     7a0:	70 e0       	ldi	r23, 0x00	; 0
     7a2:	40 e0       	ldi	r20, 0x00	; 0
     7a4:	ef 01       	movw	r28, r30
     7a6:	91 91       	ld	r25, Z+
     7a8:	9d 93       	st	X+, r25
     7aa:	28 81       	ld	r18, Y
     7ac:	30 e0       	ldi	r19, 0x00	; 0
     7ae:	06 2e       	mov	r0, r22
     7b0:	02 c0       	rjmp	.+4      	; 0x7b6 <_ZN9ControlRf14enableDataPipsEPb+0x2a>
     7b2:	22 0f       	add	r18, r18
     7b4:	33 1f       	adc	r19, r19
     7b6:	0a 94       	dec	r0
     7b8:	e2 f7       	brpl	.-8      	; 0x7b2 <_ZN9ControlRf14enableDataPipsEPb+0x26>
     7ba:	42 2b       	or	r20, r18
     7bc:	6f 5f       	subi	r22, 0xFF	; 255
     7be:	7f 4f       	sbci	r23, 0xFF	; 255
     7c0:	66 30       	cpi	r22, 0x06	; 6
     7c2:	71 05       	cpc	r23, r1
     7c4:	79 f7       	brne	.-34     	; 0x7a4 <_ZN9ControlRf14enableDataPipsEPb+0x18>
     7c6:	62 e0       	ldi	r22, 0x02	; 2
     7c8:	70 e0       	ldi	r23, 0x00	; 0
     7ca:	c8 01       	movw	r24, r16
     7cc:	0e 94 20 02 	call	0x440	; 0x440 <_ZN9ControlRf8writeRegEjh>
     7d0:	df 91       	pop	r29
     7d2:	cf 91       	pop	r28
     7d4:	1f 91       	pop	r17
     7d6:	0f 91       	pop	r16
     7d8:	08 95       	ret

000007da <_ZN9ControlRf14enableDataPipeEh>:
     7da:	26 2f       	mov	r18, r22
     7dc:	30 e0       	ldi	r19, 0x00	; 0
     7de:	26 30       	cpi	r18, 0x06	; 6
     7e0:	31 05       	cpc	r19, r1
     7e2:	0c f0       	brlt	.+2      	; 0x7e6 <_ZN9ControlRf14enableDataPipeEh+0xc>
     7e4:	65 e0       	ldi	r22, 0x05	; 5
     7e6:	fc 01       	movw	r30, r24
     7e8:	e6 0f       	add	r30, r22
     7ea:	f1 1d       	adc	r31, r1
     7ec:	21 e0       	ldi	r18, 0x01	; 1
     7ee:	25 87       	std	Z+13, r18	; 0x0d
     7f0:	fc 01       	movw	r30, r24
     7f2:	3d 96       	adiw	r30, 0x0d	; 13
     7f4:	60 e0       	ldi	r22, 0x00	; 0
     7f6:	70 e0       	ldi	r23, 0x00	; 0
     7f8:	40 e0       	ldi	r20, 0x00	; 0
     7fa:	21 91       	ld	r18, Z+
     7fc:	30 e0       	ldi	r19, 0x00	; 0
     7fe:	06 2e       	mov	r0, r22
     800:	02 c0       	rjmp	.+4      	; 0x806 <_ZN9ControlRf14enableDataPipeEh+0x2c>
     802:	22 0f       	add	r18, r18
     804:	33 1f       	adc	r19, r19
     806:	0a 94       	dec	r0
     808:	e2 f7       	brpl	.-8      	; 0x802 <_ZN9ControlRf14enableDataPipeEh+0x28>
     80a:	42 2b       	or	r20, r18
     80c:	6f 5f       	subi	r22, 0xFF	; 255
     80e:	7f 4f       	sbci	r23, 0xFF	; 255
     810:	66 30       	cpi	r22, 0x06	; 6
     812:	71 05       	cpc	r23, r1
     814:	91 f7       	brne	.-28     	; 0x7fa <_ZN9ControlRf14enableDataPipeEh+0x20>
     816:	62 e0       	ldi	r22, 0x02	; 2
     818:	70 e0       	ldi	r23, 0x00	; 0
     81a:	0e 94 20 02 	call	0x440	; 0x440 <_ZN9ControlRf8writeRegEjh>
     81e:	08 95       	ret

00000820 <_ZN9ControlRf16setListeningPipeEhPc>:
     820:	ef 92       	push	r14
     822:	ff 92       	push	r15
     824:	0f 93       	push	r16
     826:	1f 93       	push	r17
     828:	cf 93       	push	r28
     82a:	df 93       	push	r29
     82c:	8c 01       	movw	r16, r24
     82e:	7a 01       	movw	r14, r20
     830:	86 2f       	mov	r24, r22
     832:	90 e0       	ldi	r25, 0x00	; 0
     834:	06 97       	sbiw	r24, 0x06	; 6
     836:	0c f0       	brlt	.+2      	; 0x83a <_ZN9ControlRf16setListeningPipeEhPc+0x1a>
     838:	65 e0       	ldi	r22, 0x05	; 5
     83a:	c6 2f       	mov	r28, r22
     83c:	d0 e0       	ldi	r29, 0x00	; 0
     83e:	f8 01       	movw	r30, r16
     840:	22 81       	ldd	r18, Z+2	; 0x02
     842:	30 e0       	ldi	r19, 0x00	; 0
     844:	be 01       	movw	r22, r28
     846:	66 5f       	subi	r22, 0xF6	; 246
     848:	7f 4f       	sbci	r23, 0xFF	; 255
     84a:	a7 01       	movw	r20, r14
     84c:	c8 01       	movw	r24, r16
     84e:	0e 94 bb 01 	call	0x376	; 0x376 <_ZN9ControlRf8writeRegEjPhj>
     852:	ce 01       	movw	r24, r28
     854:	88 0f       	add	r24, r24
     856:	99 1f       	adc	r25, r25
     858:	8c 0f       	add	r24, r28
     85a:	9d 1f       	adc	r25, r29
     85c:	88 0f       	add	r24, r24
     85e:	99 1f       	adc	r25, r25
     860:	49 96       	adiw	r24, 0x19	; 25
     862:	b7 01       	movw	r22, r14
     864:	80 0f       	add	r24, r16
     866:	91 1f       	adc	r25, r17
     868:	0e 94 32 2b 	call	0x5664	; 0x5664 <strcpy>
     86c:	df 91       	pop	r29
     86e:	cf 91       	pop	r28
     870:	1f 91       	pop	r17
     872:	0f 91       	pop	r16
     874:	ff 90       	pop	r15
     876:	ef 90       	pop	r14
     878:	08 95       	ret

0000087a <_ZN9ControlRf21setListeningPipeAtPosEhch>:
     87a:	af 92       	push	r10
     87c:	bf 92       	push	r11
     87e:	cf 92       	push	r12
     880:	df 92       	push	r13
     882:	ef 92       	push	r14
     884:	ff 92       	push	r15
     886:	0f 93       	push	r16
     888:	1f 93       	push	r17
     88a:	cf 93       	push	r28
     88c:	df 93       	push	r29
     88e:	00 d0       	rcall	.+0      	; 0x890 <_ZN9ControlRf21setListeningPipeAtPosEhch+0x16>
     890:	00 d0       	rcall	.+0      	; 0x892 <_ZN9ControlRf21setListeningPipeAtPosEhch+0x18>
     892:	00 d0       	rcall	.+0      	; 0x894 <_ZN9ControlRf21setListeningPipeAtPosEhch+0x1a>
     894:	cd b7       	in	r28, 0x3d	; 61
     896:	de b7       	in	r29, 0x3e	; 62
     898:	7c 01       	movw	r14, r24
     89a:	a4 2e       	mov	r10, r20
     89c:	fe 01       	movw	r30, r28
     89e:	31 96       	adiw	r30, 0x01	; 1
     8a0:	86 e0       	ldi	r24, 0x06	; 6
     8a2:	df 01       	movw	r26, r30
     8a4:	1d 92       	st	X+, r1
     8a6:	8a 95       	dec	r24
     8a8:	e9 f7       	brne	.-6      	; 0x8a4 <_ZN9ControlRf21setListeningPipeAtPosEhch+0x2a>
     8aa:	86 2f       	mov	r24, r22
     8ac:	90 e0       	ldi	r25, 0x00	; 0
     8ae:	06 97       	sbiw	r24, 0x06	; 6
     8b0:	0c f0       	brlt	.+2      	; 0x8b4 <_ZN9ControlRf21setListeningPipeAtPosEhch+0x3a>
     8b2:	65 e0       	ldi	r22, 0x05	; 5
     8b4:	f7 01       	movw	r30, r14
     8b6:	42 81       	ldd	r20, Z+2	; 0x02
     8b8:	50 e0       	ldi	r21, 0x00	; 0
     8ba:	41 50       	subi	r20, 0x01	; 1
     8bc:	51 09       	sbc	r21, r1
     8be:	82 2f       	mov	r24, r18
     8c0:	90 e0       	ldi	r25, 0x00	; 0
     8c2:	fa 01       	movw	r30, r20
     8c4:	ff 27       	eor	r31, r31
     8c6:	e8 17       	cp	r30, r24
     8c8:	f9 07       	cpc	r31, r25
     8ca:	14 f4       	brge	.+4      	; 0x8d0 <_ZN9ControlRf21setListeningPipeAtPosEhch+0x56>
     8cc:	b4 2e       	mov	r11, r20
     8ce:	01 c0       	rjmp	.+2      	; 0x8d2 <_ZN9ControlRf21setListeningPipeAtPosEhch+0x58>
     8d0:	b2 2e       	mov	r11, r18
     8d2:	06 2f       	mov	r16, r22
     8d4:	10 e0       	ldi	r17, 0x00	; 0
     8d6:	68 01       	movw	r12, r16
     8d8:	fa e0       	ldi	r31, 0x0A	; 10
     8da:	cf 0e       	add	r12, r31
     8dc:	d1 1c       	adc	r13, r1
     8de:	9e 01       	movw	r18, r28
     8e0:	2f 5f       	subi	r18, 0xFF	; 255
     8e2:	3f 4f       	sbci	r19, 0xFF	; 255
     8e4:	45 e0       	ldi	r20, 0x05	; 5
     8e6:	50 e0       	ldi	r21, 0x00	; 0
     8e8:	b6 01       	movw	r22, r12
     8ea:	c7 01       	movw	r24, r14
     8ec:	0e 94 65 01 	call	0x2ca	; 0x2ca <_ZN9ControlRf7readRegEjjPh>
     8f0:	e1 e0       	ldi	r30, 0x01	; 1
     8f2:	f0 e0       	ldi	r31, 0x00	; 0
     8f4:	ec 0f       	add	r30, r28
     8f6:	fd 1f       	adc	r31, r29
     8f8:	eb 0d       	add	r30, r11
     8fa:	f1 1d       	adc	r31, r1
     8fc:	a0 82       	st	Z, r10
     8fe:	c8 01       	movw	r24, r16
     900:	88 0f       	add	r24, r24
     902:	99 1f       	adc	r25, r25
     904:	80 0f       	add	r24, r16
     906:	91 1f       	adc	r25, r17
     908:	88 0f       	add	r24, r24
     90a:	99 1f       	adc	r25, r25
     90c:	49 96       	adiw	r24, 0x19	; 25
     90e:	be 01       	movw	r22, r28
     910:	6f 5f       	subi	r22, 0xFF	; 255
     912:	7f 4f       	sbci	r23, 0xFF	; 255
     914:	8e 0d       	add	r24, r14
     916:	9f 1d       	adc	r25, r15
     918:	0e 94 32 2b 	call	0x5664	; 0x5664 <strcpy>
     91c:	d7 01       	movw	r26, r14
     91e:	12 96       	adiw	r26, 0x02	; 2
     920:	2c 91       	ld	r18, X
     922:	30 e0       	ldi	r19, 0x00	; 0
     924:	ae 01       	movw	r20, r28
     926:	4f 5f       	subi	r20, 0xFF	; 255
     928:	5f 4f       	sbci	r21, 0xFF	; 255
     92a:	b6 01       	movw	r22, r12
     92c:	c7 01       	movw	r24, r14
     92e:	0e 94 bb 01 	call	0x376	; 0x376 <_ZN9ControlRf8writeRegEjPhj>
     932:	26 96       	adiw	r28, 0x06	; 6
     934:	0f b6       	in	r0, 0x3f	; 63
     936:	f8 94       	cli
     938:	de bf       	out	0x3e, r29	; 62
     93a:	0f be       	out	0x3f, r0	; 63
     93c:	cd bf       	out	0x3d, r28	; 61
     93e:	df 91       	pop	r29
     940:	cf 91       	pop	r28
     942:	1f 91       	pop	r17
     944:	0f 91       	pop	r16
     946:	ff 90       	pop	r15
     948:	ef 90       	pop	r14
     94a:	df 90       	pop	r13
     94c:	cf 90       	pop	r12
     94e:	bf 90       	pop	r11
     950:	af 90       	pop	r10
     952:	08 95       	ret

00000954 <_ZN9ControlRf14setSendingPipeEPc>:
     954:	ef 92       	push	r14
     956:	ff 92       	push	r15
     958:	0f 93       	push	r16
     95a:	1f 93       	push	r17
     95c:	cf 93       	push	r28
     95e:	df 93       	push	r29
     960:	8c 01       	movw	r16, r24
     962:	7b 01       	movw	r14, r22
     964:	fc 01       	movw	r30, r24
     966:	c2 81       	ldd	r28, Z+2	; 0x02
     968:	d0 e0       	ldi	r29, 0x00	; 0
     96a:	ae 01       	movw	r20, r28
     96c:	43 96       	adiw	r24, 0x13	; 19
     96e:	0e 94 03 2b 	call	0x5606	; 0x5606 <memcpy>
     972:	9e 01       	movw	r18, r28
     974:	a7 01       	movw	r20, r14
     976:	60 e1       	ldi	r22, 0x10	; 16
     978:	70 e0       	ldi	r23, 0x00	; 0
     97a:	c8 01       	movw	r24, r16
     97c:	0e 94 bb 01 	call	0x376	; 0x376 <_ZN9ControlRf8writeRegEjPhj>
     980:	df 91       	pop	r29
     982:	cf 91       	pop	r28
     984:	1f 91       	pop	r17
     986:	0f 91       	pop	r16
     988:	ff 90       	pop	r15
     98a:	ef 90       	pop	r14
     98c:	08 95       	ret

0000098e <_ZN9ControlRf9setOpModeEb>:
     98e:	cf 93       	push	r28
     990:	df 93       	push	r29
     992:	ec 01       	movw	r28, r24
     994:	66 23       	and	r22, r22
     996:	69 f0       	breq	.+26     	; 0x9b2 <_ZN9ControlRf9setOpModeEb+0x24>
     998:	80 91 55 03 	lds	r24, 0x0355	; 0x800355 <syst>
     99c:	90 91 56 03 	lds	r25, 0x0356	; 0x800356 <syst+0x1>
     9a0:	0e 94 47 28 	call	0x508e	; 0x508e <_ZN13SystemManager3spiEv>
     9a4:	61 e0       	ldi	r22, 0x01	; 1
     9a6:	0e 94 09 27 	call	0x4e12	; 0x4e12 <_ZN10ControlSPI11toggleCEPinEb>
     9aa:	8f 81       	ldd	r24, Y+7	; 0x07
     9ac:	81 60       	ori	r24, 0x01	; 1
     9ae:	8f 83       	std	Y+7, r24	; 0x07
     9b0:	0c c0       	rjmp	.+24     	; 0x9ca <_ZN9ControlRf9setOpModeEb+0x3c>
     9b2:	80 91 55 03 	lds	r24, 0x0355	; 0x800355 <syst>
     9b6:	90 91 56 03 	lds	r25, 0x0356	; 0x800356 <syst+0x1>
     9ba:	0e 94 47 28 	call	0x508e	; 0x508e <_ZN13SystemManager3spiEv>
     9be:	60 e0       	ldi	r22, 0x00	; 0
     9c0:	0e 94 09 27 	call	0x4e12	; 0x4e12 <_ZN10ControlSPI11toggleCEPinEb>
     9c4:	8f 81       	ldd	r24, Y+7	; 0x07
     9c6:	8e 7f       	andi	r24, 0xFE	; 254
     9c8:	8f 83       	std	Y+7, r24	; 0x07
     9ca:	ae 01       	movw	r20, r28
     9cc:	49 5f       	subi	r20, 0xF9	; 249
     9ce:	5f 4f       	sbci	r21, 0xFF	; 255
     9d0:	21 e0       	ldi	r18, 0x01	; 1
     9d2:	30 e0       	ldi	r19, 0x00	; 0
     9d4:	60 e0       	ldi	r22, 0x00	; 0
     9d6:	70 e0       	ldi	r23, 0x00	; 0
     9d8:	ce 01       	movw	r24, r28
     9da:	0e 94 bb 01 	call	0x376	; 0x376 <_ZN9ControlRf8writeRegEjPhj>
     9de:	df 91       	pop	r29
     9e0:	cf 91       	pop	r28
     9e2:	08 95       	ret

000009e4 <_ZN9ControlRf9setConfigEh>:
     9e4:	fc 01       	movw	r30, r24
     9e6:	67 83       	std	Z+7, r22	; 0x07
     9e8:	ac 01       	movw	r20, r24
     9ea:	49 5f       	subi	r20, 0xF9	; 249
     9ec:	5f 4f       	sbci	r21, 0xFF	; 255
     9ee:	21 e0       	ldi	r18, 0x01	; 1
     9f0:	30 e0       	ldi	r19, 0x00	; 0
     9f2:	60 e0       	ldi	r22, 0x00	; 0
     9f4:	70 e0       	ldi	r23, 0x00	; 0
     9f6:	0e 94 bb 01 	call	0x376	; 0x376 <_ZN9ControlRf8writeRegEjPhj>
     9fa:	08 95       	ret

000009fc <_ZN9ControlRf10getPipAddrEhPc>:
     9fc:	fa 01       	movw	r30, r20
     9fe:	dc 01       	movw	r26, r24
     a00:	12 96       	adiw	r26, 0x02	; 2
     a02:	4c 91       	ld	r20, X
     a04:	50 e0       	ldi	r21, 0x00	; 0
     a06:	26 2f       	mov	r18, r22
     a08:	30 e0       	ldi	r19, 0x00	; 0
     a0a:	b9 01       	movw	r22, r18
     a0c:	66 0f       	add	r22, r22
     a0e:	77 1f       	adc	r23, r23
     a10:	62 0f       	add	r22, r18
     a12:	73 1f       	adc	r23, r19
     a14:	66 0f       	add	r22, r22
     a16:	77 1f       	adc	r23, r23
     a18:	67 5e       	subi	r22, 0xE7	; 231
     a1a:	7f 4f       	sbci	r23, 0xFF	; 255
     a1c:	68 0f       	add	r22, r24
     a1e:	79 1f       	adc	r23, r25
     a20:	cf 01       	movw	r24, r30
     a22:	0e 94 03 2b 	call	0x5606	; 0x5606 <memcpy>
     a26:	08 95       	ret

00000a28 <_ZNK9ControlRf14getDataPipsNumEv>:
     a28:	fc 01       	movw	r30, r24
     a2a:	81 81       	ldd	r24, Z+1	; 0x01
     a2c:	08 95       	ret

00000a2e <_ZNK9ControlRf10getAddrLenEv>:
     a2e:	fc 01       	movw	r30, r24
     a30:	82 81       	ldd	r24, Z+2	; 0x02
     a32:	08 95       	ret

00000a34 <_ZNK9ControlRf13getPayloadLenEv>:
     a34:	fc 01       	movw	r30, r24
     a36:	84 81       	ldd	r24, Z+4	; 0x04
     a38:	08 95       	ret

00000a3a <_ZNK9ControlRf12isPipeActiveEh>:
* @param idx Index of the datam pipe to check
* @return 0 if data pipe is disabled, 1 if it's enabled
*/
bool ControlRf::isPipeActive(uint8_t idx) const
{
	if(idx > MAX_DATA_PIPES - 1)
     a3a:	66 30       	cpi	r22, 0x06	; 6
     a3c:	28 f4       	brcc	.+10     	; 0xa48 <_ZNK9ControlRf12isPipeActiveEh+0xe>
	return false;
	
	return m_isPipeActive[idx];
     a3e:	fc 01       	movw	r30, r24
     a40:	e6 0f       	add	r30, r22
     a42:	f1 1d       	adc	r31, r1
     a44:	85 85       	ldd	r24, Z+13	; 0x0d
     a46:	08 95       	ret
* @return 0 if data pipe is disabled, 1 if it's enabled
*/
bool ControlRf::isPipeActive(uint8_t idx) const
{
	if(idx > MAX_DATA_PIPES - 1)
	return false;
     a48:	80 e0       	ldi	r24, 0x00	; 0
	
	return m_isPipeActive[idx];
}
     a4a:	08 95       	ret

00000a4c <_ZN9RfManagerC1Ev>:
* @return Pointer to the co-dependent SerialManager instance
*/
SerialManager* RfManager::serial()
{
	return m_ptr_serial;
}
     a4c:	8f 92       	push	r8
     a4e:	9f 92       	push	r9
     a50:	af 92       	push	r10
     a52:	bf 92       	push	r11
     a54:	cf 92       	push	r12
     a56:	df 92       	push	r13
     a58:	ef 92       	push	r14
     a5a:	ff 92       	push	r15
     a5c:	0f 93       	push	r16
     a5e:	1f 93       	push	r17
     a60:	cf 93       	push	r28
     a62:	df 93       	push	r29
     a64:	cd b7       	in	r28, 0x3d	; 61
     a66:	de b7       	in	r29, 0x3e	; 62
     a68:	ed 97       	sbiw	r28, 0x3d	; 61
     a6a:	0f b6       	in	r0, 0x3f	; 63
     a6c:	f8 94       	cli
     a6e:	de bf       	out	0x3e, r29	; 62
     a70:	0f be       	out	0x3f, r0	; 63
     a72:	cd bf       	out	0x3d, r28	; 61
     a74:	8c 01       	movw	r16, r24
     a76:	0e 94 39 01 	call	0x272	; 0x272 <_ZN9ControlRfC1Ev>
     a7a:	d8 01       	movw	r26, r16
     a7c:	de 96       	adiw	r26, 0x3e	; 62
     a7e:	1c 92       	st	X, r1
     a80:	1e 92       	st	-X, r1
     a82:	dd 97       	sbiw	r26, 0x3d	; 61
     a84:	48 01       	movw	r8, r16
     a86:	bf e3       	ldi	r27, 0x3F	; 63
     a88:	8b 0e       	add	r8, r27
     a8a:	91 1c       	adc	r9, r1
     a8c:	f4 01       	movw	r30, r8
     a8e:	11 82       	std	Z+1, r1	; 0x01
     a90:	10 82       	st	Z, r1
     a92:	58 01       	movw	r10, r16
     a94:	f1 e4       	ldi	r31, 0x41	; 65
     a96:	af 0e       	add	r10, r31
     a98:	b1 1c       	adc	r11, r1
     a9a:	d5 01       	movw	r26, r10
     a9c:	1d 92       	st	X+, r1
     a9e:	1c 92       	st	X, r1
     aa0:	78 01       	movw	r14, r16
     aa2:	bd e4       	ldi	r27, 0x4D	; 77
     aa4:	eb 0e       	add	r14, r27
     aa6:	f1 1c       	adc	r15, r1
     aa8:	68 94       	set
     aaa:	cc 24       	eor	r12, r12
     aac:	c7 f8       	bld	r12, 7
     aae:	d1 2c       	mov	r13, r1
     ab0:	f7 01       	movw	r30, r14
     ab2:	d1 82       	std	Z+1, r13	; 0x01
     ab4:	c0 82       	st	Z, r12
     ab6:	13 82       	std	Z+3, r1	; 0x03
     ab8:	12 82       	std	Z+2, r1	; 0x02
     aba:	15 82       	std	Z+5, r1	; 0x05
     abc:	14 82       	std	Z+4, r1	; 0x04
     abe:	17 82       	std	Z+7, r1	; 0x07
     ac0:	16 82       	std	Z+6, r1	; 0x06
     ac2:	80 e8       	ldi	r24, 0x80	; 128
     ac4:	90 e0       	ldi	r25, 0x00	; 0
     ac6:	0e 94 c4 29 	call	0x5388	; 0x5388 <malloc>
     aca:	d7 01       	movw	r26, r14
     acc:	19 96       	adiw	r26, 0x09	; 9
     ace:	9c 93       	st	X, r25
     ad0:	8e 93       	st	-X, r24
     ad2:	18 97       	sbiw	r26, 0x08	; 8
     ad4:	ce 01       	movw	r24, r28
     ad6:	01 96       	adiw	r24, 0x01	; 1
     ad8:	0e 94 39 01 	call	0x272	; 0x272 <_ZN9ControlRfC1Ev>
     adc:	ce 01       	movw	r24, r28
     ade:	01 96       	adiw	r24, 0x01	; 1
     ae0:	0e 94 64 01 	call	0x2c8	; 0x2c8 <_ZN9ControlRfD1Ev>
     ae4:	f8 01       	movw	r30, r16
     ae6:	16 ae       	std	Z+62, r1	; 0x3e
     ae8:	15 ae       	std	Z+61, r1	; 0x3d
     aea:	d4 01       	movw	r26, r8
     aec:	1d 92       	st	X+, r1
     aee:	1c 92       	st	X, r1
     af0:	f5 01       	movw	r30, r10
     af2:	11 82       	std	Z+1, r1	; 0x01
     af4:	10 82       	st	Z, r1
     af6:	80 e8       	ldi	r24, 0x80	; 128
     af8:	90 e0       	ldi	r25, 0x00	; 0
     afa:	0e 94 c4 29 	call	0x5388	; 0x5388 <malloc>
     afe:	d7 01       	movw	r26, r14
     b00:	cd 92       	st	X+, r12
     b02:	dc 92       	st	X, r13
     b04:	f8 01       	movw	r30, r16
     b06:	e1 5b       	subi	r30, 0xB1	; 177
     b08:	ff 4f       	sbci	r31, 0xFF	; 255
     b0a:	11 82       	std	Z+1, r1	; 0x01
     b0c:	10 82       	st	Z, r1
     b0e:	32 96       	adiw	r30, 0x02	; 2
     b10:	11 82       	std	Z+1, r1	; 0x01
     b12:	10 82       	st	Z, r1
     b14:	32 96       	adiw	r30, 0x02	; 2
     b16:	11 82       	std	Z+1, r1	; 0x01
     b18:	10 82       	st	Z, r1
     b1a:	32 96       	adiw	r30, 0x02	; 2
     b1c:	91 83       	std	Z+1, r25	; 0x01
     b1e:	80 83       	st	Z, r24
     b20:	0e 94 5c 2a 	call	0x54b8	; 0x54b8 <free>
     b24:	f8 01       	movw	r30, r16
     b26:	ed 5b       	subi	r30, 0xBD	; 189
     b28:	ff 4f       	sbci	r31, 0xFF	; 255
     b2a:	10 82       	st	Z, r1
     b2c:	31 96       	adiw	r30, 0x01	; 1
     b2e:	10 82       	st	Z, r1
     b30:	31 96       	adiw	r30, 0x01	; 1
     b32:	86 e0       	ldi	r24, 0x06	; 6
     b34:	df 01       	movw	r26, r30
     b36:	1d 92       	st	X+, r1
     b38:	8a 95       	dec	r24
     b3a:	e9 f7       	brne	.-6      	; 0xb36 <_ZN9RfManagerC1Ev+0xea>
     b3c:	36 96       	adiw	r30, 0x06	; 6
     b3e:	8a e2       	ldi	r24, 0x2A	; 42
     b40:	80 83       	st	Z, r24
     b42:	31 96       	adiw	r30, 0x01	; 1
     b44:	80 e3       	ldi	r24, 0x30	; 48
     b46:	80 83       	st	Z, r24
     b48:	ed 96       	adiw	r28, 0x3d	; 61
     b4a:	0f b6       	in	r0, 0x3f	; 63
     b4c:	f8 94       	cli
     b4e:	de bf       	out	0x3e, r29	; 62
     b50:	0f be       	out	0x3f, r0	; 63
     b52:	cd bf       	out	0x3d, r28	; 61
     b54:	df 91       	pop	r29
     b56:	cf 91       	pop	r28
     b58:	1f 91       	pop	r17
     b5a:	0f 91       	pop	r16
     b5c:	ff 90       	pop	r15
     b5e:	ef 90       	pop	r14
     b60:	df 90       	pop	r13
     b62:	cf 90       	pop	r12
     b64:	bf 90       	pop	r11
     b66:	af 90       	pop	r10
     b68:	9f 90       	pop	r9
     b6a:	8f 90       	pop	r8
     b6c:	08 95       	ret

00000b6e <_ZN9RfManagerD1Ev>:
     b6e:	ef 92       	push	r14
     b70:	ff 92       	push	r15
     b72:	0f 93       	push	r16
     b74:	1f 93       	push	r17
     b76:	cf 93       	push	r28
     b78:	df 93       	push	r29
     b7a:	ec 01       	movw	r28, r24
     b7c:	fc 01       	movw	r30, r24
     b7e:	e3 5b       	subi	r30, 0xB3	; 179
     b80:	ff 4f       	sbci	r31, 0xFF	; 255
     b82:	80 85       	ldd	r24, Z+8	; 0x08
     b84:	91 85       	ldd	r25, Z+9	; 0x09
     b86:	0e 94 5c 2a 	call	0x54b8	; 0x54b8 <free>
     b8a:	8d ad       	ldd	r24, Y+61	; 0x3d
     b8c:	9e ad       	ldd	r25, Y+62	; 0x3e
     b8e:	89 2b       	or	r24, r25
     b90:	b9 f0       	breq	.+46     	; 0xbc0 <_ZN9RfManagerD1Ev+0x52>
     b92:	8e 01       	movw	r16, r28
     b94:	01 5c       	subi	r16, 0xC1	; 193
     b96:	1f 4f       	sbci	r17, 0xFF	; 255
     b98:	f8 01       	movw	r30, r16
     b9a:	80 81       	ld	r24, Z
     b9c:	91 81       	ldd	r25, Z+1	; 0x01
     b9e:	fc 01       	movw	r30, r24
     ba0:	e4 84       	ldd	r14, Z+12	; 0x0c
     ba2:	f5 84       	ldd	r15, Z+13	; 0x0d
     ba4:	00 97       	sbiw	r24, 0x00	; 0
     ba6:	11 f0       	breq	.+4      	; 0xbac <_ZN9RfManagerD1Ev+0x3e>
     ba8:	0e 94 5c 2a 	call	0x54b8	; 0x54b8 <free>
     bac:	8d ad       	ldd	r24, Y+61	; 0x3d
     bae:	9e ad       	ldd	r25, Y+62	; 0x3e
     bb0:	01 97       	sbiw	r24, 0x01	; 1
     bb2:	9e af       	std	Y+62, r25	; 0x3e
     bb4:	8d af       	std	Y+61, r24	; 0x3d
     bb6:	f8 01       	movw	r30, r16
     bb8:	f1 82       	std	Z+1, r15	; 0x01
     bba:	e0 82       	st	Z, r14
     bbc:	89 2b       	or	r24, r25
     bbe:	61 f7       	brne	.-40     	; 0xb98 <_ZN9RfManagerD1Ev+0x2a>
     bc0:	ce 01       	movw	r24, r28
     bc2:	0e 94 64 01 	call	0x2c8	; 0x2c8 <_ZN9ControlRfD1Ev>
     bc6:	df 91       	pop	r29
     bc8:	cf 91       	pop	r28
     bca:	1f 91       	pop	r17
     bcc:	0f 91       	pop	r16
     bce:	ff 90       	pop	r15
     bd0:	ef 90       	pop	r14
     bd2:	08 95       	ret

00000bd4 <_ZN9RfManager8sendDataEPcS0_>:
     bd4:	0f 93       	push	r16
     bd6:	1f 93       	push	r17
     bd8:	cf 93       	push	r28
     bda:	df 93       	push	r29
     bdc:	ec 01       	movw	r28, r24
     bde:	8a 01       	movw	r16, r20
     be0:	0e 94 aa 04 	call	0x954	; 0x954 <_ZN9ControlRf14setSendingPipeEPc>
     be4:	60 e0       	ldi	r22, 0x00	; 0
     be6:	ce 01       	movw	r24, r28
     be8:	0e 94 c7 04 	call	0x98e	; 0x98e <_ZN9ControlRf9setOpModeEb>
     bec:	ce 01       	movw	r24, r28
     bee:	0e 94 1a 05 	call	0xa34	; 0xa34 <_ZNK9ControlRf13getPayloadLenEv>
     bf2:	48 2f       	mov	r20, r24
     bf4:	50 e0       	ldi	r21, 0x00	; 0
     bf6:	b8 01       	movw	r22, r16
     bf8:	ce 01       	movw	r24, r28
     bfa:	0e 94 98 02 	call	0x530	; 0x530 <_ZN9ControlRf11transmitMsgEPhj>
     bfe:	6d e0       	ldi	r22, 0x0D	; 13
     c00:	71 e0       	ldi	r23, 0x01	; 1
     c02:	ce 01       	movw	r24, r28
     c04:	0e 94 aa 04 	call	0x954	; 0x954 <_ZN9ControlRf14setSendingPipeEPc>
     c08:	61 e0       	ldi	r22, 0x01	; 1
     c0a:	ce 01       	movw	r24, r28
     c0c:	0e 94 c7 04 	call	0x98e	; 0x98e <_ZN9ControlRf9setOpModeEb>
     c10:	fe 01       	movw	r30, r28
     c12:	ec 5b       	subi	r30, 0xBC	; 188
     c14:	ff 4f       	sbci	r31, 0xFF	; 255
     c16:	80 81       	ld	r24, Z
     c18:	88 23       	and	r24, r24
     c1a:	49 f0       	breq	.+18     	; 0xc2e <_ZN9RfManager8sendDataEPcS0_+0x5a>
     c1c:	c9 5a       	subi	r28, 0xA9	; 169
     c1e:	df 4f       	sbci	r29, 0xFF	; 255
     c20:	43 e1       	ldi	r20, 0x13	; 19
     c22:	51 e0       	ldi	r21, 0x01	; 1
     c24:	b8 01       	movw	r22, r16
     c26:	88 81       	ld	r24, Y
     c28:	99 81       	ldd	r25, Y+1	; 0x01
     c2a:	0e 94 1e 1e 	call	0x3c3c	; 0x3c3c <_ZN13SerialManager18getMonitoredPacketEPcS0_>
     c2e:	df 91       	pop	r29
     c30:	cf 91       	pop	r28
     c32:	1f 91       	pop	r17
     c34:	0f 91       	pop	r16
     c36:	08 95       	ret

00000c38 <_ZN9RfManager7setPipeEhPc>:
     c38:	ef 92       	push	r14
     c3a:	ff 92       	push	r15
     c3c:	1f 93       	push	r17
     c3e:	cf 93       	push	r28
     c40:	df 93       	push	r29
     c42:	ec 01       	movw	r28, r24
     c44:	16 2f       	mov	r17, r22
     c46:	7a 01       	movw	r14, r20
     c48:	0e 94 1d 05 	call	0xa3a	; 0xa3a <_ZNK9ControlRf12isPipeActiveEh>
     c4c:	81 11       	cpse	r24, r1
     c4e:	08 c0       	rjmp	.+16     	; 0xc60 <_ZN9RfManager7setPipeEhPc+0x28>
     c50:	ce 01       	movw	r24, r28
     c52:	0e 94 14 05 	call	0xa28	; 0xa28 <_ZNK9ControlRf14getDataPipsNumEv>
     c56:	61 e0       	ldi	r22, 0x01	; 1
     c58:	68 0f       	add	r22, r24
     c5a:	ce 01       	movw	r24, r28
     c5c:	0e 94 03 03 	call	0x606	; 0x606 <_ZN9ControlRf14setDataPipsNumEh>
     c60:	a7 01       	movw	r20, r14
     c62:	61 2f       	mov	r22, r17
     c64:	ce 01       	movw	r24, r28
     c66:	0e 94 10 04 	call	0x820	; 0x820 <_ZN9ControlRf16setListeningPipeEhPc>
     c6a:	61 2f       	mov	r22, r17
     c6c:	ce 01       	movw	r24, r28
     c6e:	0e 94 ed 03 	call	0x7da	; 0x7da <_ZN9ControlRf14enableDataPipeEh>
     c72:	df 91       	pop	r29
     c74:	cf 91       	pop	r28
     c76:	1f 91       	pop	r17
     c78:	ff 90       	pop	r15
     c7a:	ef 90       	pop	r14
     c7c:	08 95       	ret

00000c7e <_ZN9RfManager18setPrintingPacketsEb>:
     c7e:	8c 5b       	subi	r24, 0xBC	; 188
     c80:	9f 4f       	sbci	r25, 0xFF	; 255
     c82:	fc 01       	movw	r30, r24
     c84:	60 83       	st	Z, r22
     c86:	08 95       	ret

00000c88 <_ZNK9RfManager12getDeviceNumEv>:
     c88:	fc 01       	movw	r30, r24
     c8a:	85 ad       	ldd	r24, Z+61	; 0x3d
     c8c:	08 95       	ret

00000c8e <_ZNK9RfManager18getDeviceNumOnPipeEh>:
     c8e:	86 0f       	add	r24, r22
     c90:	91 1d       	adc	r25, r1
     c92:	fc 01       	movw	r30, r24
     c94:	eb 5b       	subi	r30, 0xBB	; 187
     c96:	ff 4f       	sbci	r31, 0xFF	; 255
     c98:	80 81       	ld	r24, Z
     c9a:	08 95       	ret

00000c9c <_ZN9RfManager9setCommIDEc>:
     c9c:	ef 92       	push	r14
     c9e:	ff 92       	push	r15
     ca0:	0f 93       	push	r16
     ca2:	1f 93       	push	r17
     ca4:	cf 93       	push	r28
     ca6:	20 ed       	ldi	r18, 0xD0	; 208
     ca8:	26 0f       	add	r18, r22
     caa:	2b 32       	cpi	r18, 0x2B	; 43
     cac:	88 f4       	brcc	.+34     	; 0xcd0 <_ZN9RfManager9setCommIDEc+0x34>
     cae:	8c 01       	movw	r16, r24
     cb0:	fc 01       	movw	r30, r24
     cb2:	e5 5b       	subi	r30, 0xB5	; 181
     cb4:	ff 4f       	sbci	r31, 0xFF	; 255
     cb6:	60 83       	st	Z, r22
     cb8:	c0 e0       	ldi	r28, 0x00	; 0
     cba:	7f 01       	movw	r14, r30
     cbc:	22 e0       	ldi	r18, 0x02	; 2
     cbe:	f7 01       	movw	r30, r14
     cc0:	40 81       	ld	r20, Z
     cc2:	6c 2f       	mov	r22, r28
     cc4:	c8 01       	movw	r24, r16
     cc6:	0e 94 3d 04 	call	0x87a	; 0x87a <_ZN9ControlRf21setListeningPipeAtPosEhch>
     cca:	cf 5f       	subi	r28, 0xFF	; 255
     ccc:	c6 30       	cpi	r28, 0x06	; 6
     cce:	b1 f7       	brne	.-20     	; 0xcbc <_ZN9RfManager9setCommIDEc+0x20>
     cd0:	cf 91       	pop	r28
     cd2:	1f 91       	pop	r17
     cd4:	0f 91       	pop	r16
     cd6:	ff 90       	pop	r15
     cd8:	ef 90       	pop	r14
     cda:	08 95       	ret

00000cdc <_ZNK9RfManager9getCommIDEv>:
     cdc:	85 5b       	subi	r24, 0xB5	; 181
     cde:	9f 4f       	sbci	r25, 0xFF	; 255
     ce0:	fc 01       	movw	r30, r24
     ce2:	80 81       	ld	r24, Z
     ce4:	08 95       	ret

00000ce6 <_ZN9RfManager8unitListEv>:
     ce6:	cd 96       	adiw	r24, 0x3d	; 61
     ce8:	08 95       	ret

00000cea <_ZN9RfManager4initEv>:
     cea:	0f 93       	push	r16
     cec:	1f 93       	push	r17
     cee:	cf 93       	push	r28
     cf0:	df 93       	push	r29
     cf2:	cd b7       	in	r28, 0x3d	; 61
     cf4:	de b7       	in	r29, 0x3e	; 62
     cf6:	a6 97       	sbiw	r28, 0x26	; 38
     cf8:	0f b6       	in	r0, 0x3f	; 63
     cfa:	f8 94       	cli
     cfc:	de bf       	out	0x3e, r29	; 62
     cfe:	0f be       	out	0x3f, r0	; 63
     d00:	cd bf       	out	0x3d, r28	; 61
     d02:	8c 01       	movw	r16, r24
     d04:	86 e0       	ldi	r24, 0x06	; 6
     d06:	e6 e0       	ldi	r30, 0x06	; 6
     d08:	f1 e0       	ldi	r31, 0x01	; 1
     d0a:	de 01       	movw	r26, r28
     d0c:	91 96       	adiw	r26, 0x21	; 33
     d0e:	01 90       	ld	r0, Z+
     d10:	0d 92       	st	X+, r0
     d12:	8a 95       	dec	r24
     d14:	e1 f7       	brne	.-8      	; 0xd0e <_ZN9RfManager4initEv+0x24>
     d16:	80 91 55 03 	lds	r24, 0x0355	; 0x800355 <syst>
     d1a:	90 91 56 03 	lds	r25, 0x0356	; 0x800356 <syst+0x1>
     d1e:	0e 94 42 28 	call	0x5084	; 0x5084 <_ZNK13SystemManager6isInitEv>
     d22:	88 23       	and	r24, r24
     d24:	09 f4       	brne	.+2      	; 0xd28 <_ZN9RfManager4initEv+0x3e>
     d26:	91 c0       	rjmp	.+290    	; 0xe4a <_ZN9RfManager4initEv+0x160>
     d28:	2f ef       	ldi	r18, 0xFF	; 255
     d2a:	81 ee       	ldi	r24, 0xE1	; 225
     d2c:	94 e0       	ldi	r25, 0x04	; 4
     d2e:	21 50       	subi	r18, 0x01	; 1
     d30:	80 40       	sbci	r24, 0x00	; 0
     d32:	90 40       	sbci	r25, 0x00	; 0
     d34:	e1 f7       	brne	.-8      	; 0xd2e <_ZN9RfManager4initEv+0x44>
     d36:	00 c0       	rjmp	.+0      	; 0xd38 <_ZN9RfManager4initEv+0x4e>
     d38:	00 00       	nop
     d3a:	61 e0       	ldi	r22, 0x01	; 1
     d3c:	c8 01       	movw	r24, r16
     d3e:	0e 94 f3 02 	call	0x5e6	; 0x5e6 <_ZN9ControlRf10setAutoAckEb>
     d42:	66 e0       	ldi	r22, 0x06	; 6
     d44:	c8 01       	movw	r24, r16
     d46:	0e 94 03 03 	call	0x606	; 0x606 <_ZN9ControlRf14setDataPipsNumEh>
     d4a:	be 01       	movw	r22, r28
     d4c:	6f 5d       	subi	r22, 0xDF	; 223
     d4e:	7f 4f       	sbci	r23, 0xFF	; 255
     d50:	c8 01       	movw	r24, r16
     d52:	0e 94 c6 03 	call	0x78c	; 0x78c <_ZN9ControlRf14enableDataPipsEPb>
     d56:	65 e0       	ldi	r22, 0x05	; 5
     d58:	c8 01       	movw	r24, r16
     d5a:	0e 94 11 03 	call	0x622	; 0x622 <_ZN9ControlRf10setAddrLenEh>
     d5e:	69 eb       	ldi	r22, 0xB9	; 185
     d60:	79 e0       	ldi	r23, 0x09	; 9
     d62:	c8 01       	movw	r24, r16
     d64:	0e 94 26 03 	call	0x64c	; 0x64c <_ZN9ControlRf17setChannelFreqMHZEj>
     d68:	60 e0       	ldi	r22, 0x00	; 0
     d6a:	c8 01       	movw	r24, r16
     d6c:	0e 94 3c 03 	call	0x678	; 0x678 <_ZN9ControlRf11setDataRateEh>
     d70:	60 e0       	ldi	r22, 0x00	; 0
     d72:	c8 01       	movw	r24, r16
     d74:	0e 94 e4 02 	call	0x5c8	; 0x5c8 <_ZN9ControlRf10setPALevelEh>
     d78:	47 e1       	ldi	r20, 0x17	; 23
     d7a:	51 e0       	ldi	r21, 0x01	; 1
     d7c:	60 e0       	ldi	r22, 0x00	; 0
     d7e:	c8 01       	movw	r24, r16
     d80:	0e 94 10 04 	call	0x820	; 0x820 <_ZN9ControlRf16setListeningPipeEhPc>
     d84:	4d e1       	ldi	r20, 0x1D	; 29
     d86:	51 e0       	ldi	r21, 0x01	; 1
     d88:	61 e0       	ldi	r22, 0x01	; 1
     d8a:	c8 01       	movw	r24, r16
     d8c:	0e 94 10 04 	call	0x820	; 0x820 <_ZN9ControlRf16setListeningPipeEhPc>
     d90:	43 e2       	ldi	r20, 0x23	; 35
     d92:	51 e0       	ldi	r21, 0x01	; 1
     d94:	62 e0       	ldi	r22, 0x02	; 2
     d96:	c8 01       	movw	r24, r16
     d98:	0e 94 10 04 	call	0x820	; 0x820 <_ZN9ControlRf16setListeningPipeEhPc>
     d9c:	49 e2       	ldi	r20, 0x29	; 41
     d9e:	51 e0       	ldi	r21, 0x01	; 1
     da0:	63 e0       	ldi	r22, 0x03	; 3
     da2:	c8 01       	movw	r24, r16
     da4:	0e 94 10 04 	call	0x820	; 0x820 <_ZN9ControlRf16setListeningPipeEhPc>
     da8:	4f e2       	ldi	r20, 0x2F	; 47
     daa:	51 e0       	ldi	r21, 0x01	; 1
     dac:	64 e0       	ldi	r22, 0x04	; 4
     dae:	c8 01       	movw	r24, r16
     db0:	0e 94 10 04 	call	0x820	; 0x820 <_ZN9ControlRf16setListeningPipeEhPc>
     db4:	45 e3       	ldi	r20, 0x35	; 53
     db6:	51 e0       	ldi	r21, 0x01	; 1
     db8:	65 e0       	ldi	r22, 0x05	; 5
     dba:	c8 01       	movw	r24, r16
     dbc:	0e 94 10 04 	call	0x820	; 0x820 <_ZN9ControlRf16setListeningPipeEhPc>
     dc0:	6d e0       	ldi	r22, 0x0D	; 13
     dc2:	71 e0       	ldi	r23, 0x01	; 1
     dc4:	c8 01       	movw	r24, r16
     dc6:	0e 94 aa 04 	call	0x954	; 0x954 <_ZN9ControlRf14setSendingPipeEPc>
     dca:	60 e2       	ldi	r22, 0x20	; 32
     dcc:	c8 01       	movw	r24, r16
     dce:	0e 94 4a 03 	call	0x694	; 0x694 <_ZN9ControlRf13setPayloadLenEh>
     dd2:	6f e0       	ldi	r22, 0x0F	; 15
     dd4:	c8 01       	movw	r24, r16
     dd6:	0e 94 80 03 	call	0x700	; 0x700 <_ZN9ControlRf13setRetryCountEh>
     dda:	60 ea       	ldi	r22, 0xA0	; 160
     ddc:	7f e0       	ldi	r23, 0x0F	; 15
     dde:	c8 01       	movw	r24, r16
     de0:	0e 94 a0 03 	call	0x740	; 0x740 <_ZN9ControlRf13setRetryDelayEj>
     de4:	6f e3       	ldi	r22, 0x3F	; 63
     de6:	c8 01       	movw	r24, r16
     de8:	0e 94 f2 04 	call	0x9e4	; 0x9e4 <_ZN9ControlRf9setConfigEh>
     dec:	9e 01       	movw	r18, r28
     dee:	2f 5f       	subi	r18, 0xFF	; 255
     df0:	3f 4f       	sbci	r19, 0xFF	; 255
     df2:	40 e2       	ldi	r20, 0x20	; 32
     df4:	50 e0       	ldi	r21, 0x00	; 0
     df6:	61 e6       	ldi	r22, 0x61	; 97
     df8:	70 e0       	ldi	r23, 0x00	; 0
     dfa:	c8 01       	movw	r24, r16
     dfc:	0e 94 65 01 	call	0x2ca	; 0x2ca <_ZN9ControlRf7readRegEjjPh>
     e00:	c8 01       	movw	r24, r16
     e02:	0e 94 6e 02 	call	0x4dc	; 0x4dc <_ZN9ControlRf7resetRFEv>
     e06:	f8 01       	movw	r30, r16
     e08:	eb 5b       	subi	r30, 0xBB	; 187
     e0a:	ff 4f       	sbci	r31, 0xFF	; 255
     e0c:	86 e0       	ldi	r24, 0x06	; 6
     e0e:	df 01       	movw	r26, r30
     e10:	1d 92       	st	X+, r1
     e12:	8a 95       	dec	r24
     e14:	e9 f7       	brne	.-6      	; 0xe10 <_ZN9RfManager4initEv+0x126>
     e16:	37 96       	adiw	r30, 0x07	; 7
     e18:	82 e5       	ldi	r24, 0x52	; 82
     e1a:	80 83       	st	Z, r24
     e1c:	bf ef       	ldi	r27, 0xFF	; 255
     e1e:	21 ee       	ldi	r18, 0xE1	; 225
     e20:	84 e0       	ldi	r24, 0x04	; 4
     e22:	b1 50       	subi	r27, 0x01	; 1
     e24:	20 40       	sbci	r18, 0x00	; 0
     e26:	80 40       	sbci	r24, 0x00	; 0
     e28:	e1 f7       	brne	.-8      	; 0xe22 <_ZN9RfManager4initEv+0x138>
     e2a:	00 c0       	rjmp	.+0      	; 0xe2c <_ZN9RfManager4initEv+0x142>
     e2c:	00 00       	nop
     e2e:	80 91 55 03 	lds	r24, 0x0355	; 0x800355 <syst>
     e32:	90 91 56 03 	lds	r25, 0x0356	; 0x800356 <syst+0x1>
     e36:	0e 94 47 28 	call	0x508e	; 0x508e <_ZN13SystemManager3spiEv>
     e3a:	61 e0       	ldi	r22, 0x01	; 1
     e3c:	0e 94 09 27 	call	0x4e12	; 0x4e12 <_ZN10ControlSPI11toggleCEPinEb>
     e40:	f8 01       	movw	r30, r16
     e42:	ed 5b       	subi	r30, 0xBD	; 189
     e44:	ff 4f       	sbci	r31, 0xFF	; 255
     e46:	81 e0       	ldi	r24, 0x01	; 1
     e48:	80 83       	st	Z, r24
     e4a:	a6 96       	adiw	r28, 0x26	; 38
     e4c:	0f b6       	in	r0, 0x3f	; 63
     e4e:	f8 94       	cli
     e50:	de bf       	out	0x3e, r29	; 62
     e52:	0f be       	out	0x3f, r0	; 63
     e54:	cd bf       	out	0x3d, r28	; 61
     e56:	df 91       	pop	r29
     e58:	cf 91       	pop	r28
     e5a:	1f 91       	pop	r17
     e5c:	0f 91       	pop	r16
     e5e:	08 95       	ret

00000e60 <_ZN9RfManager7intTaskEv>:
     e60:	9f 92       	push	r9
     e62:	af 92       	push	r10
     e64:	bf 92       	push	r11
     e66:	cf 92       	push	r12
     e68:	df 92       	push	r13
     e6a:	ef 92       	push	r14
     e6c:	ff 92       	push	r15
     e6e:	0f 93       	push	r16
     e70:	1f 93       	push	r17
     e72:	cf 93       	push	r28
     e74:	df 93       	push	r29
     e76:	cd b7       	in	r28, 0x3d	; 61
     e78:	de b7       	in	r29, 0x3e	; 62
     e7a:	a0 97       	sbiw	r28, 0x20	; 32
     e7c:	0f b6       	in	r0, 0x3f	; 63
     e7e:	f8 94       	cli
     e80:	de bf       	out	0x3e, r29	; 62
     e82:	0f be       	out	0x3f, r0	; 63
     e84:	cd bf       	out	0x3d, r28	; 61
     e86:	fc 01       	movw	r30, r24
     e88:	ed 5b       	subi	r30, 0xBD	; 189
     e8a:	ff 4f       	sbci	r31, 0xFF	; 255
     e8c:	20 81       	ld	r18, Z
     e8e:	22 23       	and	r18, r18
     e90:	09 f4       	brne	.+2      	; 0xe94 <_ZN9RfManager7intTaskEv+0x34>
     e92:	5c c0       	rjmp	.+184    	; 0xf4c <_ZN9RfManager7intTaskEv+0xec>
     e94:	8c 01       	movw	r16, r24
     e96:	80 91 55 03 	lds	r24, 0x0355	; 0x800355 <syst>
     e9a:	90 91 56 03 	lds	r25, 0x0356	; 0x800356 <syst+0x1>
     e9e:	0e 94 47 28 	call	0x508e	; 0x508e <_ZN13SystemManager3spiEv>
     ea2:	60 e0       	ldi	r22, 0x00	; 0
     ea4:	0e 94 09 27 	call	0x4e12	; 0x4e12 <_ZN10ControlSPI11toggleCEPinEb>
     ea8:	be 01       	movw	r22, r28
     eaa:	6f 5f       	subi	r22, 0xFF	; 255
     eac:	7f 4f       	sbci	r23, 0xFF	; 255
     eae:	c8 01       	movw	r24, r16
     eb0:	0e 94 db 02 	call	0x5b6	; 0x5b6 <_ZN9ControlRf10receiveMsgEPh>
     eb4:	ce 01       	movw	r24, r28
     eb6:	01 96       	adiw	r24, 0x01	; 1
     eb8:	7c 01       	movw	r14, r24
     eba:	5e 01       	movw	r10, r28
     ebc:	91 e2       	ldi	r25, 0x21	; 33
     ebe:	a9 0e       	add	r10, r25
     ec0:	b1 1c       	adc	r11, r1
     ec2:	40 e0       	ldi	r20, 0x00	; 0
     ec4:	f8 01       	movw	r30, r16
     ec6:	e3 5b       	subi	r30, 0xB3	; 179
     ec8:	ff 4f       	sbci	r31, 0xFF	; 255
     eca:	99 24       	eor	r9, r9
     ecc:	93 94       	inc	r9
     ece:	d7 01       	movw	r26, r14
     ed0:	2d 91       	ld	r18, X+
     ed2:	7d 01       	movw	r14, r26
     ed4:	a0 85       	ldd	r26, Z+8	; 0x08
     ed6:	b1 85       	ldd	r27, Z+9	; 0x09
     ed8:	82 81       	ldd	r24, Z+2	; 0x02
     eda:	93 81       	ldd	r25, Z+3	; 0x03
     edc:	a8 0f       	add	r26, r24
     ede:	b9 1f       	adc	r27, r25
     ee0:	2c 93       	st	X, r18
     ee2:	c0 80       	ld	r12, Z
     ee4:	d1 80       	ldd	r13, Z+1	; 0x01
     ee6:	82 81       	ldd	r24, Z+2	; 0x02
     ee8:	93 81       	ldd	r25, Z+3	; 0x03
     eea:	01 96       	adiw	r24, 0x01	; 1
     eec:	b6 01       	movw	r22, r12
     eee:	0e 94 79 29 	call	0x52f2	; 0x52f2 <__udivmodhi4>
     ef2:	28 2f       	mov	r18, r24
     ef4:	39 2f       	mov	r19, r25
     ef6:	82 83       	std	Z+2, r24	; 0x02
     ef8:	93 83       	std	Z+3, r25	; 0x03
     efa:	84 81       	ldd	r24, Z+4	; 0x04
     efc:	95 81       	ldd	r25, Z+5	; 0x05
     efe:	28 17       	cp	r18, r24
     f00:	39 07       	cpc	r19, r25
     f02:	41 f0       	breq	.+16     	; 0xf14 <_ZN9RfManager7intTaskEv+0xb4>
     f04:	41 11       	cpse	r20, r1
     f06:	07 c0       	rjmp	.+14     	; 0xf16 <_ZN9RfManager7intTaskEv+0xb6>
     f08:	86 81       	ldd	r24, Z+6	; 0x06
     f0a:	97 81       	ldd	r25, Z+7	; 0x07
     f0c:	01 96       	adiw	r24, 0x01	; 1
     f0e:	97 83       	std	Z+7, r25	; 0x07
     f10:	86 83       	std	Z+6, r24	; 0x06
     f12:	01 c0       	rjmp	.+2      	; 0xf16 <_ZN9RfManager7intTaskEv+0xb6>
     f14:	49 2d       	mov	r20, r9
     f16:	ea 14       	cp	r14, r10
     f18:	fb 04       	cpc	r15, r11
     f1a:	c9 f6       	brne	.-78     	; 0xece <_ZN9RfManager7intTaskEv+0x6e>
     f1c:	44 23       	and	r20, r20
     f1e:	51 f0       	breq	.+20     	; 0xf34 <_ZN9RfManager7intTaskEv+0xd4>
     f20:	f8 01       	movw	r30, r16
     f22:	e3 5b       	subi	r30, 0xB3	; 179
     f24:	ff 4f       	sbci	r31, 0xFF	; 255
     f26:	c9 01       	movw	r24, r18
     f28:	01 96       	adiw	r24, 0x01	; 1
     f2a:	b6 01       	movw	r22, r12
     f2c:	0e 94 79 29 	call	0x52f2	; 0x52f2 <__udivmodhi4>
     f30:	95 83       	std	Z+5, r25	; 0x05
     f32:	84 83       	std	Z+4, r24	; 0x04
     f34:	c8 01       	movw	r24, r16
     f36:	0e 94 6e 02 	call	0x4dc	; 0x4dc <_ZN9ControlRf7resetRFEv>
     f3a:	80 91 55 03 	lds	r24, 0x0355	; 0x800355 <syst>
     f3e:	90 91 56 03 	lds	r25, 0x0356	; 0x800356 <syst+0x1>
     f42:	0e 94 47 28 	call	0x508e	; 0x508e <_ZN13SystemManager3spiEv>
     f46:	61 e0       	ldi	r22, 0x01	; 1
     f48:	0e 94 09 27 	call	0x4e12	; 0x4e12 <_ZN10ControlSPI11toggleCEPinEb>
     f4c:	a0 96       	adiw	r28, 0x20	; 32
     f4e:	0f b6       	in	r0, 0x3f	; 63
     f50:	f8 94       	cli
     f52:	de bf       	out	0x3e, r29	; 62
     f54:	0f be       	out	0x3f, r0	; 63
     f56:	cd bf       	out	0x3d, r28	; 61
     f58:	df 91       	pop	r29
     f5a:	cf 91       	pop	r28
     f5c:	1f 91       	pop	r17
     f5e:	0f 91       	pop	r16
     f60:	ff 90       	pop	r15
     f62:	ef 90       	pop	r14
     f64:	df 90       	pop	r13
     f66:	cf 90       	pop	r12
     f68:	bf 90       	pop	r11
     f6a:	af 90       	pop	r10
     f6c:	9f 90       	pop	r9
     f6e:	08 95       	ret

00000f70 <_ZN9RfManager12timerSecTaskEv>:
     f70:	ef 92       	push	r14
     f72:	ff 92       	push	r15
     f74:	0f 93       	push	r16
     f76:	1f 93       	push	r17
     f78:	cf 93       	push	r28
     f7a:	df 93       	push	r29
     f7c:	dc 01       	movw	r26, r24
     f7e:	fc 01       	movw	r30, r24
     f80:	ed 5b       	subi	r30, 0xBD	; 189
     f82:	ff 4f       	sbci	r31, 0xFF	; 255
     f84:	80 81       	ld	r24, Z
     f86:	88 23       	and	r24, r24
     f88:	09 f4       	brne	.+2      	; 0xf8c <_ZN9RfManager12timerSecTaskEv+0x1c>
     f8a:	31 c1       	rjmp	.+610    	; 0x11ee <_ZN9RfManager12timerSecTaskEv+0x27e>
     f8c:	dd 96       	adiw	r26, 0x3d	; 61
     f8e:	4d 91       	ld	r20, X+
     f90:	5c 91       	ld	r21, X
     f92:	de 97       	sbiw	r26, 0x3e	; 62
     f94:	41 15       	cp	r20, r1
     f96:	51 05       	cpc	r21, r1
     f98:	09 f4       	brne	.+2      	; 0xf9c <_ZN9RfManager12timerSecTaskEv+0x2c>
     f9a:	29 c1       	rjmp	.+594    	; 0x11ee <_ZN9RfManager12timerSecTaskEv+0x27e>
     f9c:	20 e0       	ldi	r18, 0x00	; 0
     f9e:	30 e0       	ldi	r19, 0x00	; 0
     fa0:	60 e0       	ldi	r22, 0x00	; 0
     fa2:	7d 01       	movw	r14, r26
     fa4:	81 e4       	ldi	r24, 0x41	; 65
     fa6:	e8 0e       	add	r14, r24
     fa8:	f1 1c       	adc	r15, r1
     faa:	cd 01       	movw	r24, r26
     fac:	cf 96       	adiw	r24, 0x3f	; 63
     fae:	8a 01       	movw	r16, r20
     fb0:	01 50       	subi	r16, 0x01	; 1
     fb2:	11 09       	sbc	r17, r1
     fb4:	02 17       	cp	r16, r18
     fb6:	13 07       	cpc	r17, r19
     fb8:	38 f4       	brcc	.+14     	; 0xfc8 <_ZN9RfManager12timerSecTaskEv+0x58>
     fba:	e7 01       	movw	r28, r14
     fbc:	e8 81       	ld	r30, Y
     fbe:	f9 81       	ldd	r31, Y+1	; 0x01
     fc0:	40 85       	ldd	r20, Z+8	; 0x08
     fc2:	41 11       	cpse	r20, r1
     fc4:	4b c0       	rjmp	.+150    	; 0x105c <_ZN9RfManager12timerSecTaskEv+0xec>
     fc6:	4d c0       	rjmp	.+154    	; 0x1062 <_ZN9RfManager12timerSecTaskEv+0xf2>
     fc8:	56 95       	lsr	r21
     fca:	47 95       	ror	r20
     fcc:	24 17       	cp	r18, r20
     fce:	35 07       	cpc	r19, r21
     fd0:	90 f4       	brcc	.+36     	; 0xff6 <_ZN9RfManager12timerSecTaskEv+0x86>
     fd2:	ec 01       	movw	r28, r24
     fd4:	e8 81       	ld	r30, Y
     fd6:	f9 81       	ldd	r31, Y+1	; 0x01
     fd8:	21 15       	cp	r18, r1
     fda:	31 05       	cpc	r19, r1
     fdc:	09 f4       	brne	.+2      	; 0xfe0 <_ZN9RfManager12timerSecTaskEv+0x70>
     fde:	f7 c0       	rjmp	.+494    	; 0x11ce <_ZN9RfManager12timerSecTaskEv+0x25e>
     fe0:	40 e0       	ldi	r20, 0x00	; 0
     fe2:	50 e0       	ldi	r21, 0x00	; 0
     fe4:	04 84       	ldd	r0, Z+12	; 0x0c
     fe6:	f5 85       	ldd	r31, Z+13	; 0x0d
     fe8:	e0 2d       	mov	r30, r0
     fea:	4f 5f       	subi	r20, 0xFF	; 255
     fec:	5f 4f       	sbci	r21, 0xFF	; 255
     fee:	42 17       	cp	r20, r18
     ff0:	53 07       	cpc	r21, r19
     ff2:	c1 f7       	brne	.-16     	; 0xfe4 <_ZN9RfManager12timerSecTaskEv+0x74>
     ff4:	e0 c0       	rjmp	.+448    	; 0x11b6 <_ZN9RfManager12timerSecTaskEv+0x246>
     ff6:	e7 01       	movw	r28, r14
     ff8:	e8 81       	ld	r30, Y
     ffa:	f9 81       	ldd	r31, Y+1	; 0x01
     ffc:	20 17       	cp	r18, r16
     ffe:	31 07       	cpc	r19, r17
    1000:	08 f0       	brcs	.+2      	; 0x1004 <_ZN9RfManager12timerSecTaskEv+0x94>
    1002:	e9 c0       	rjmp	.+466    	; 0x11d6 <_ZN9RfManager12timerSecTaskEv+0x266>
    1004:	a8 01       	movw	r20, r16
    1006:	06 84       	ldd	r0, Z+14	; 0x0e
    1008:	f7 85       	ldd	r31, Z+15	; 0x0f
    100a:	e0 2d       	mov	r30, r0
    100c:	41 50       	subi	r20, 0x01	; 1
    100e:	51 09       	sbc	r21, r1
    1010:	42 17       	cp	r20, r18
    1012:	53 07       	cpc	r21, r19
    1014:	c1 f7       	brne	.-16     	; 0x1006 <_ZN9RfManager12timerSecTaskEv+0x96>
    1016:	df c0       	rjmp	.+446    	; 0x11d6 <_ZN9RfManager12timerSecTaskEv+0x266>
    1018:	24 17       	cp	r18, r20
    101a:	35 07       	cpc	r19, r21
    101c:	88 f4       	brcc	.+34     	; 0x1040 <_ZN9RfManager12timerSecTaskEv+0xd0>
    101e:	ec 01       	movw	r28, r24
    1020:	e8 81       	ld	r30, Y
    1022:	f9 81       	ldd	r31, Y+1	; 0x01
    1024:	21 15       	cp	r18, r1
    1026:	31 05       	cpc	r19, r1
    1028:	c9 f0       	breq	.+50     	; 0x105c <_ZN9RfManager12timerSecTaskEv+0xec>
    102a:	40 e0       	ldi	r20, 0x00	; 0
    102c:	50 e0       	ldi	r21, 0x00	; 0
    102e:	04 84       	ldd	r0, Z+12	; 0x0c
    1030:	f5 85       	ldd	r31, Z+13	; 0x0d
    1032:	e0 2d       	mov	r30, r0
    1034:	4f 5f       	subi	r20, 0xFF	; 255
    1036:	5f 4f       	sbci	r21, 0xFF	; 255
    1038:	42 17       	cp	r20, r18
    103a:	53 07       	cpc	r21, r19
    103c:	c1 f7       	brne	.-16     	; 0x102e <_ZN9RfManager12timerSecTaskEv+0xbe>
    103e:	0e c0       	rjmp	.+28     	; 0x105c <_ZN9RfManager12timerSecTaskEv+0xec>
    1040:	e7 01       	movw	r28, r14
    1042:	e8 81       	ld	r30, Y
    1044:	f9 81       	ldd	r31, Y+1	; 0x01
    1046:	20 17       	cp	r18, r16
    1048:	31 07       	cpc	r19, r17
    104a:	40 f4       	brcc	.+16     	; 0x105c <_ZN9RfManager12timerSecTaskEv+0xec>
    104c:	06 84       	ldd	r0, Z+14	; 0x0e
    104e:	f7 85       	ldd	r31, Z+15	; 0x0f
    1050:	e0 2d       	mov	r30, r0
    1052:	01 50       	subi	r16, 0x01	; 1
    1054:	11 09       	sbc	r17, r1
    1056:	02 17       	cp	r16, r18
    1058:	13 07       	cpc	r17, r19
    105a:	c1 f7       	brne	.-16     	; 0x104c <_ZN9RfManager12timerSecTaskEv+0xdc>
    105c:	41 85       	ldd	r20, Z+9	; 0x09
    105e:	4f 5f       	subi	r20, 0xFF	; 255
    1060:	41 87       	std	Z+9, r20	; 0x09
    1062:	dd 96       	adiw	r26, 0x3d	; 61
    1064:	4d 91       	ld	r20, X+
    1066:	5c 91       	ld	r21, X
    1068:	de 97       	sbiw	r26, 0x3e	; 62
    106a:	8a 01       	movw	r16, r20
    106c:	01 50       	subi	r16, 0x01	; 1
    106e:	11 09       	sbc	r17, r1
    1070:	02 17       	cp	r16, r18
    1072:	13 07       	cpc	r17, r19
    1074:	38 f4       	brcc	.+14     	; 0x1084 <_ZN9RfManager12timerSecTaskEv+0x114>
    1076:	e7 01       	movw	r28, r14
    1078:	e8 81       	ld	r30, Y
    107a:	f9 81       	ldd	r31, Y+1	; 0x01
    107c:	42 85       	ldd	r20, Z+10	; 0x0a
    107e:	41 11       	cpse	r20, r1
    1080:	4b c0       	rjmp	.+150    	; 0x1118 <_ZN9RfManager12timerSecTaskEv+0x1a8>
    1082:	57 c0       	rjmp	.+174    	; 0x1132 <_ZN9RfManager12timerSecTaskEv+0x1c2>
    1084:	56 95       	lsr	r21
    1086:	47 95       	ror	r20
    1088:	24 17       	cp	r18, r20
    108a:	35 07       	cpc	r19, r21
    108c:	90 f4       	brcc	.+36     	; 0x10b2 <_ZN9RfManager12timerSecTaskEv+0x142>
    108e:	ec 01       	movw	r28, r24
    1090:	e8 81       	ld	r30, Y
    1092:	f9 81       	ldd	r31, Y+1	; 0x01
    1094:	21 15       	cp	r18, r1
    1096:	31 05       	cpc	r19, r1
    1098:	09 f4       	brne	.+2      	; 0x109c <_ZN9RfManager12timerSecTaskEv+0x12c>
    109a:	82 c0       	rjmp	.+260    	; 0x11a0 <_ZN9RfManager12timerSecTaskEv+0x230>
    109c:	40 e0       	ldi	r20, 0x00	; 0
    109e:	50 e0       	ldi	r21, 0x00	; 0
    10a0:	04 84       	ldd	r0, Z+12	; 0x0c
    10a2:	f5 85       	ldd	r31, Z+13	; 0x0d
    10a4:	e0 2d       	mov	r30, r0
    10a6:	4f 5f       	subi	r20, 0xFF	; 255
    10a8:	5f 4f       	sbci	r21, 0xFF	; 255
    10aa:	42 17       	cp	r20, r18
    10ac:	53 07       	cpc	r21, r19
    10ae:	c1 f7       	brne	.-16     	; 0x10a0 <_ZN9RfManager12timerSecTaskEv+0x130>
    10b0:	9a c0       	rjmp	.+308    	; 0x11e6 <_ZN9RfManager12timerSecTaskEv+0x276>
    10b2:	e7 01       	movw	r28, r14
    10b4:	e8 81       	ld	r30, Y
    10b6:	f9 81       	ldd	r31, Y+1	; 0x01
    10b8:	20 17       	cp	r18, r16
    10ba:	31 07       	cpc	r19, r17
    10bc:	08 f0       	brcs	.+2      	; 0x10c0 <_ZN9RfManager12timerSecTaskEv+0x150>
    10be:	8f c0       	rjmp	.+286    	; 0x11de <_ZN9RfManager12timerSecTaskEv+0x26e>
    10c0:	a8 01       	movw	r20, r16
    10c2:	06 84       	ldd	r0, Z+14	; 0x0e
    10c4:	f7 85       	ldd	r31, Z+15	; 0x0f
    10c6:	e0 2d       	mov	r30, r0
    10c8:	41 50       	subi	r20, 0x01	; 1
    10ca:	51 09       	sbc	r21, r1
    10cc:	42 17       	cp	r20, r18
    10ce:	53 07       	cpc	r21, r19
    10d0:	c1 f7       	brne	.-16     	; 0x10c2 <_ZN9RfManager12timerSecTaskEv+0x152>
    10d2:	85 c0       	rjmp	.+266    	; 0x11de <_ZN9RfManager12timerSecTaskEv+0x26e>
    10d4:	24 17       	cp	r18, r20
    10d6:	35 07       	cpc	r19, r21
    10d8:	88 f4       	brcc	.+34     	; 0x10fc <_ZN9RfManager12timerSecTaskEv+0x18c>
    10da:	ec 01       	movw	r28, r24
    10dc:	e8 81       	ld	r30, Y
    10de:	f9 81       	ldd	r31, Y+1	; 0x01
    10e0:	21 15       	cp	r18, r1
    10e2:	31 05       	cpc	r19, r1
    10e4:	c9 f0       	breq	.+50     	; 0x1118 <_ZN9RfManager12timerSecTaskEv+0x1a8>
    10e6:	40 e0       	ldi	r20, 0x00	; 0
    10e8:	50 e0       	ldi	r21, 0x00	; 0
    10ea:	04 84       	ldd	r0, Z+12	; 0x0c
    10ec:	f5 85       	ldd	r31, Z+13	; 0x0d
    10ee:	e0 2d       	mov	r30, r0
    10f0:	4f 5f       	subi	r20, 0xFF	; 255
    10f2:	5f 4f       	sbci	r21, 0xFF	; 255
    10f4:	42 17       	cp	r20, r18
    10f6:	53 07       	cpc	r21, r19
    10f8:	c1 f7       	brne	.-16     	; 0x10ea <_ZN9RfManager12timerSecTaskEv+0x17a>
    10fa:	0e c0       	rjmp	.+28     	; 0x1118 <_ZN9RfManager12timerSecTaskEv+0x1a8>
    10fc:	e7 01       	movw	r28, r14
    10fe:	e8 81       	ld	r30, Y
    1100:	f9 81       	ldd	r31, Y+1	; 0x01
    1102:	20 17       	cp	r18, r16
    1104:	31 07       	cpc	r19, r17
    1106:	40 f4       	brcc	.+16     	; 0x1118 <_ZN9RfManager12timerSecTaskEv+0x1a8>
    1108:	06 84       	ldd	r0, Z+14	; 0x0e
    110a:	f7 85       	ldd	r31, Z+15	; 0x0f
    110c:	e0 2d       	mov	r30, r0
    110e:	01 50       	subi	r16, 0x01	; 1
    1110:	11 09       	sbc	r17, r1
    1112:	02 17       	cp	r16, r18
    1114:	13 07       	cpc	r17, r19
    1116:	c1 f7       	brne	.-16     	; 0x1108 <_ZN9RfManager12timerSecTaskEv+0x198>
    1118:	43 85       	ldd	r20, Z+11	; 0x0b
    111a:	4f 5f       	subi	r20, 0xFF	; 255
    111c:	43 87       	std	Z+11, r20	; 0x0b
    111e:	dd 96       	adiw	r26, 0x3d	; 61
    1120:	ed 91       	ld	r30, X+
    1122:	fc 91       	ld	r31, X
    1124:	de 97       	sbiw	r26, 0x3e	; 62
    1126:	af 01       	movw	r20, r30
    1128:	41 50       	subi	r20, 0x01	; 1
    112a:	51 09       	sbc	r21, r1
    112c:	42 17       	cp	r20, r18
    112e:	53 07       	cpc	r21, r19
    1130:	20 f4       	brcc	.+8      	; 0x113a <_ZN9RfManager12timerSecTaskEv+0x1ca>
    1132:	e7 01       	movw	r28, r14
    1134:	e8 81       	ld	r30, Y
    1136:	f9 81       	ldd	r31, Y+1	; 0x01
    1138:	24 c0       	rjmp	.+72     	; 0x1182 <_ZN9RfManager12timerSecTaskEv+0x212>
    113a:	f6 95       	lsr	r31
    113c:	e7 95       	ror	r30
    113e:	2e 17       	cp	r18, r30
    1140:	3f 07       	cpc	r19, r31
    1142:	88 f4       	brcc	.+34     	; 0x1166 <_ZN9RfManager12timerSecTaskEv+0x1f6>
    1144:	ec 01       	movw	r28, r24
    1146:	e8 81       	ld	r30, Y
    1148:	f9 81       	ldd	r31, Y+1	; 0x01
    114a:	21 15       	cp	r18, r1
    114c:	31 05       	cpc	r19, r1
    114e:	c9 f0       	breq	.+50     	; 0x1182 <_ZN9RfManager12timerSecTaskEv+0x212>
    1150:	40 e0       	ldi	r20, 0x00	; 0
    1152:	50 e0       	ldi	r21, 0x00	; 0
    1154:	04 84       	ldd	r0, Z+12	; 0x0c
    1156:	f5 85       	ldd	r31, Z+13	; 0x0d
    1158:	e0 2d       	mov	r30, r0
    115a:	4f 5f       	subi	r20, 0xFF	; 255
    115c:	5f 4f       	sbci	r21, 0xFF	; 255
    115e:	42 17       	cp	r20, r18
    1160:	53 07       	cpc	r21, r19
    1162:	c1 f7       	brne	.-16     	; 0x1154 <_ZN9RfManager12timerSecTaskEv+0x1e4>
    1164:	0e c0       	rjmp	.+28     	; 0x1182 <_ZN9RfManager12timerSecTaskEv+0x212>
    1166:	e7 01       	movw	r28, r14
    1168:	e8 81       	ld	r30, Y
    116a:	f9 81       	ldd	r31, Y+1	; 0x01
    116c:	24 17       	cp	r18, r20
    116e:	35 07       	cpc	r19, r21
    1170:	40 f4       	brcc	.+16     	; 0x1182 <_ZN9RfManager12timerSecTaskEv+0x212>
    1172:	06 84       	ldd	r0, Z+14	; 0x0e
    1174:	f7 85       	ldd	r31, Z+15	; 0x0f
    1176:	e0 2d       	mov	r30, r0
    1178:	41 50       	subi	r20, 0x01	; 1
    117a:	51 09       	sbc	r21, r1
    117c:	42 17       	cp	r20, r18
    117e:	53 07       	cpc	r21, r19
    1180:	c1 f7       	brne	.-16     	; 0x1172 <_ZN9RfManager12timerSecTaskEv+0x202>
    1182:	27 81       	ldd	r18, Z+7	; 0x07
    1184:	2f 5f       	subi	r18, 0xFF	; 255
    1186:	27 83       	std	Z+7, r18	; 0x07
    1188:	6f 5f       	subi	r22, 0xFF	; 255
    118a:	26 2f       	mov	r18, r22
    118c:	30 e0       	ldi	r19, 0x00	; 0
    118e:	dd 96       	adiw	r26, 0x3d	; 61
    1190:	4d 91       	ld	r20, X+
    1192:	5c 91       	ld	r21, X
    1194:	de 97       	sbiw	r26, 0x3e	; 62
    1196:	24 17       	cp	r18, r20
    1198:	35 07       	cpc	r19, r21
    119a:	08 f4       	brcc	.+2      	; 0x119e <_ZN9RfManager12timerSecTaskEv+0x22e>
    119c:	08 cf       	rjmp	.-496    	; 0xfae <_ZN9RfManager12timerSecTaskEv+0x3e>
    119e:	27 c0       	rjmp	.+78     	; 0x11ee <_ZN9RfManager12timerSecTaskEv+0x27e>
    11a0:	72 85       	ldd	r23, Z+10	; 0x0a
    11a2:	71 11       	cpse	r23, r1
    11a4:	97 cf       	rjmp	.-210    	; 0x10d4 <_ZN9RfManager12timerSecTaskEv+0x164>
    11a6:	dd 96       	adiw	r26, 0x3d	; 61
    11a8:	ed 91       	ld	r30, X+
    11aa:	fc 91       	ld	r31, X
    11ac:	de 97       	sbiw	r26, 0x3e	; 62
    11ae:	af 01       	movw	r20, r30
    11b0:	41 50       	subi	r20, 0x01	; 1
    11b2:	51 09       	sbc	r21, r1
    11b4:	c2 cf       	rjmp	.-124    	; 0x113a <_ZN9RfManager12timerSecTaskEv+0x1ca>
    11b6:	40 85       	ldd	r20, Z+8	; 0x08
    11b8:	41 11       	cpse	r20, r1
    11ba:	31 cf       	rjmp	.-414    	; 0x101e <_ZN9RfManager12timerSecTaskEv+0xae>
    11bc:	52 cf       	rjmp	.-348    	; 0x1062 <_ZN9RfManager12timerSecTaskEv+0xf2>
    11be:	dd 96       	adiw	r26, 0x3d	; 61
    11c0:	4d 91       	ld	r20, X+
    11c2:	5c 91       	ld	r21, X
    11c4:	de 97       	sbiw	r26, 0x3e	; 62
    11c6:	8a 01       	movw	r16, r20
    11c8:	01 50       	subi	r16, 0x01	; 1
    11ca:	11 09       	sbc	r17, r1
    11cc:	5b cf       	rjmp	.-330    	; 0x1084 <_ZN9RfManager12timerSecTaskEv+0x114>
    11ce:	70 85       	ldd	r23, Z+8	; 0x08
    11d0:	77 23       	and	r23, r23
    11d2:	a9 f3       	breq	.-22     	; 0x11be <_ZN9RfManager12timerSecTaskEv+0x24e>
    11d4:	21 cf       	rjmp	.-446    	; 0x1018 <_ZN9RfManager12timerSecTaskEv+0xa8>
    11d6:	40 85       	ldd	r20, Z+8	; 0x08
    11d8:	41 11       	cpse	r20, r1
    11da:	32 cf       	rjmp	.-412    	; 0x1040 <_ZN9RfManager12timerSecTaskEv+0xd0>
    11dc:	42 cf       	rjmp	.-380    	; 0x1062 <_ZN9RfManager12timerSecTaskEv+0xf2>
    11de:	42 85       	ldd	r20, Z+10	; 0x0a
    11e0:	44 23       	and	r20, r20
    11e2:	09 f3       	breq	.-62     	; 0x11a6 <_ZN9RfManager12timerSecTaskEv+0x236>
    11e4:	8b cf       	rjmp	.-234    	; 0x10fc <_ZN9RfManager12timerSecTaskEv+0x18c>
    11e6:	42 85       	ldd	r20, Z+10	; 0x0a
    11e8:	41 11       	cpse	r20, r1
    11ea:	77 cf       	rjmp	.-274    	; 0x10da <_ZN9RfManager12timerSecTaskEv+0x16a>
    11ec:	dc cf       	rjmp	.-72     	; 0x11a6 <_ZN9RfManager12timerSecTaskEv+0x236>
    11ee:	df 91       	pop	r29
    11f0:	cf 91       	pop	r28
    11f2:	1f 91       	pop	r17
    11f4:	0f 91       	pop	r16
    11f6:	ff 90       	pop	r15
    11f8:	ef 90       	pop	r14
    11fa:	08 95       	ret

000011fc <_ZN9RfManager13extractPacketEv>:
    11fc:	4f 92       	push	r4
    11fe:	5f 92       	push	r5
    1200:	6f 92       	push	r6
    1202:	7f 92       	push	r7
    1204:	8f 92       	push	r8
    1206:	9f 92       	push	r9
    1208:	af 92       	push	r10
    120a:	bf 92       	push	r11
    120c:	cf 92       	push	r12
    120e:	df 92       	push	r13
    1210:	ef 92       	push	r14
    1212:	ff 92       	push	r15
    1214:	0f 93       	push	r16
    1216:	1f 93       	push	r17
    1218:	cf 93       	push	r28
    121a:	df 93       	push	r29
    121c:	cd b7       	in	r28, 0x3d	; 61
    121e:	de b7       	in	r29, 0x3e	; 62
    1220:	a0 97       	sbiw	r28, 0x20	; 32
    1222:	0f b6       	in	r0, 0x3f	; 63
    1224:	f8 94       	cli
    1226:	de bf       	out	0x3e, r29	; 62
    1228:	0f be       	out	0x3f, r0	; 63
    122a:	cd bf       	out	0x3d, r28	; 61
    122c:	3c 01       	movw	r6, r24
    122e:	6b 01       	movw	r12, r22
    1230:	fb 01       	movw	r30, r22
    1232:	e3 5b       	subi	r30, 0xB3	; 179
    1234:	ff 4f       	sbci	r31, 0xFF	; 255
    1236:	e0 84       	ldd	r14, Z+8	; 0x08
    1238:	f1 84       	ldd	r15, Z+9	; 0x09
    123a:	44 80       	ldd	r4, Z+4	; 0x04
    123c:	55 80       	ldd	r5, Z+5	; 0x05
    123e:	20 81       	ld	r18, Z
    1240:	31 81       	ldd	r19, Z+1	; 0x01
    1242:	c2 01       	movw	r24, r4
    1244:	b9 01       	movw	r22, r18
    1246:	0e 94 79 29 	call	0x52f2	; 0x52f2 <__udivmodhi4>
    124a:	d7 01       	movw	r26, r14
    124c:	a8 0f       	add	r26, r24
    124e:	b9 1f       	adc	r27, r25
    1250:	4c 91       	ld	r20, X
    1252:	49 83       	std	Y+1, r20	; 0x01
    1254:	02 81       	ldd	r16, Z+2	; 0x02
    1256:	13 81       	ldd	r17, Z+3	; 0x03
    1258:	80 17       	cp	r24, r16
    125a:	91 07       	cpc	r25, r17
    125c:	e1 f0       	breq	.+56     	; 0x1296 <_ZN9RfManager13extractPacketEv+0x9a>
    125e:	fe 01       	movw	r30, r28
    1260:	32 96       	adiw	r30, 0x02	; 2
    1262:	4e 01       	movw	r8, r28
    1264:	81 e2       	ldi	r24, 0x21	; 33
    1266:	88 0e       	add	r8, r24
    1268:	91 1c       	adc	r9, r1
    126a:	ce 01       	movw	r24, r28
    126c:	01 96       	adiw	r24, 0x01	; 1
    126e:	52 01       	movw	r10, r4
    1270:	a8 1a       	sub	r10, r24
    1272:	b9 0a       	sbc	r11, r25
    1274:	c5 01       	movw	r24, r10
    1276:	8e 0f       	add	r24, r30
    1278:	9f 1f       	adc	r25, r31
    127a:	b9 01       	movw	r22, r18
    127c:	0e 94 79 29 	call	0x52f2	; 0x52f2 <__udivmodhi4>
    1280:	d7 01       	movw	r26, r14
    1282:	a8 0f       	add	r26, r24
    1284:	b9 1f       	adc	r27, r25
    1286:	4c 91       	ld	r20, X
    1288:	41 93       	st	Z+, r20
    128a:	80 17       	cp	r24, r16
    128c:	91 07       	cpc	r25, r17
    128e:	19 f0       	breq	.+6      	; 0x1296 <_ZN9RfManager13extractPacketEv+0x9a>
    1290:	e8 15       	cp	r30, r8
    1292:	f9 05       	cpc	r31, r9
    1294:	79 f7       	brne	.-34     	; 0x1274 <_ZN9RfManager13extractPacketEv+0x78>
    1296:	f6 01       	movw	r30, r12
    1298:	e3 5b       	subi	r30, 0xB3	; 179
    129a:	ff 4f       	sbci	r31, 0xFF	; 255
    129c:	06 80       	ldd	r0, Z+6	; 0x06
    129e:	f7 81       	ldd	r31, Z+7	; 0x07
    12a0:	e0 2d       	mov	r30, r0
    12a2:	e0 32       	cpi	r30, 0x20	; 32
    12a4:	f1 05       	cpc	r31, r1
    12a6:	40 f4       	brcc	.+16     	; 0x12b8 <_ZN9RfManager13extractPacketEv+0xbc>
    12a8:	f6 01       	movw	r30, r12
    12aa:	e3 5b       	subi	r30, 0xB3	; 179
    12ac:	ff 4f       	sbci	r31, 0xFF	; 255
    12ae:	15 83       	std	Z+5, r17	; 0x05
    12b0:	04 83       	std	Z+4, r16	; 0x04
    12b2:	e0 e0       	ldi	r30, 0x00	; 0
    12b4:	f0 e0       	ldi	r31, 0x00	; 0
    12b6:	0e c0       	rjmp	.+28     	; 0x12d4 <_ZN9RfManager13extractPacketEv+0xd8>
    12b8:	86 01       	movw	r16, r12
    12ba:	03 5b       	subi	r16, 0xB3	; 179
    12bc:	1f 4f       	sbci	r17, 0xFF	; 255
    12be:	c2 01       	movw	r24, r4
    12c0:	80 96       	adiw	r24, 0x20	; 32
    12c2:	b9 01       	movw	r22, r18
    12c4:	0e 94 79 29 	call	0x52f2	; 0x52f2 <__udivmodhi4>
    12c8:	d8 01       	movw	r26, r16
    12ca:	15 96       	adiw	r26, 0x05	; 5
    12cc:	9c 93       	st	X, r25
    12ce:	8e 93       	st	-X, r24
    12d0:	14 97       	sbiw	r26, 0x04	; 4
    12d2:	b0 97       	sbiw	r30, 0x20	; 32
    12d4:	d6 01       	movw	r26, r12
    12d6:	a3 5b       	subi	r26, 0xB3	; 179
    12d8:	bf 4f       	sbci	r27, 0xFF	; 255
    12da:	17 96       	adiw	r26, 0x07	; 7
    12dc:	fc 93       	st	X, r31
    12de:	ee 93       	st	-X, r30
    12e0:	16 97       	sbiw	r26, 0x06	; 6
    12e2:	f6 01       	movw	r30, r12
    12e4:	ec 5b       	subi	r30, 0xBC	; 188
    12e6:	ff 4f       	sbci	r31, 0xFF	; 255
    12e8:	80 81       	ld	r24, Z
    12ea:	88 23       	and	r24, r24
    12ec:	51 f0       	breq	.+20     	; 0x1302 <_ZN9RfManager13extractPacketEv+0x106>
    12ee:	4b e3       	ldi	r20, 0x3B	; 59
    12f0:	51 e0       	ldi	r21, 0x01	; 1
    12f2:	be 01       	movw	r22, r28
    12f4:	6f 5f       	subi	r22, 0xFF	; 255
    12f6:	7f 4f       	sbci	r23, 0xFF	; 255
    12f8:	73 96       	adiw	r30, 0x13	; 19
    12fa:	80 81       	ld	r24, Z
    12fc:	91 81       	ldd	r25, Z+1	; 0x01
    12fe:	0e 94 1e 1e 	call	0x3c3c	; 0x3c3c <_ZN13SerialManager18getMonitoredPacketEPcS0_>
    1302:	85 e0       	ldi	r24, 0x05	; 5
    1304:	fe 01       	movw	r30, r28
    1306:	32 96       	adiw	r30, 0x02	; 2
    1308:	d3 01       	movw	r26, r6
    130a:	01 90       	ld	r0, Z+
    130c:	0d 92       	st	X+, r0
    130e:	8a 95       	dec	r24
    1310:	e1 f7       	brne	.-8      	; 0x130a <_ZN9RfManager13extractPacketEv+0x10e>
    1312:	f3 01       	movw	r30, r6
    1314:	15 82       	std	Z+5, r1	; 0x05
    1316:	85 e0       	ldi	r24, 0x05	; 5
    1318:	fe 01       	movw	r30, r28
    131a:	37 96       	adiw	r30, 0x07	; 7
    131c:	d3 01       	movw	r26, r6
    131e:	16 96       	adiw	r26, 0x06	; 6
    1320:	01 90       	ld	r0, Z+
    1322:	0d 92       	st	X+, r0
    1324:	8a 95       	dec	r24
    1326:	e1 f7       	brne	.-8      	; 0x1320 <_ZN9RfManager13extractPacketEv+0x124>
    1328:	d3 01       	movw	r26, r6
    132a:	1b 96       	adiw	r26, 0x0b	; 11
    132c:	1c 92       	st	X, r1
    132e:	1b 97       	sbiw	r26, 0x0b	; 11
    1330:	8c 85       	ldd	r24, Y+12	; 0x0c
    1332:	9d 85       	ldd	r25, Y+13	; 0x0d
    1334:	1d 96       	adiw	r26, 0x0d	; 13
    1336:	9c 93       	st	X, r25
    1338:	8e 93       	st	-X, r24
    133a:	1c 97       	sbiw	r26, 0x0c	; 12
    133c:	8e 85       	ldd	r24, Y+14	; 0x0e
    133e:	9f 85       	ldd	r25, Y+15	; 0x0f
    1340:	1f 96       	adiw	r26, 0x0f	; 15
    1342:	9c 93       	st	X, r25
    1344:	8e 93       	st	-X, r24
    1346:	1e 97       	sbiw	r26, 0x0e	; 14
    1348:	50 96       	adiw	r26, 0x10	; 16
    134a:	1c 92       	st	X, r1
    134c:	50 97       	sbiw	r26, 0x10	; 16
    134e:	80 e1       	ldi	r24, 0x10	; 16
    1350:	fe 01       	movw	r30, r28
    1352:	70 96       	adiw	r30, 0x10	; 16
    1354:	51 96       	adiw	r26, 0x11	; 17
    1356:	01 90       	ld	r0, Z+
    1358:	0d 92       	st	X+, r0
    135a:	8a 95       	dec	r24
    135c:	e1 f7       	brne	.-8      	; 0x1356 <_ZN9RfManager13extractPacketEv+0x15a>
    135e:	f3 01       	movw	r30, r6
    1360:	11 a2       	std	Z+33, r1	; 0x21
    1362:	f6 01       	movw	r30, r12
    1364:	ec 5b       	subi	r30, 0xBC	; 188
    1366:	ff 4f       	sbci	r31, 0xFF	; 255
    1368:	80 81       	ld	r24, Z
    136a:	88 23       	and	r24, r24
    136c:	51 f0       	breq	.+20     	; 0x1382 <_ZN9RfManager13extractPacketEv+0x186>
    136e:	73 96       	adiw	r30, 0x13	; 19
    1370:	4b e3       	ldi	r20, 0x3B	; 59
    1372:	51 e0       	ldi	r21, 0x01	; 1
    1374:	be 01       	movw	r22, r28
    1376:	6f 5f       	subi	r22, 0xFF	; 255
    1378:	7f 4f       	sbci	r23, 0xFF	; 255
    137a:	80 81       	ld	r24, Z
    137c:	91 81       	ldd	r25, Z+1	; 0x01
    137e:	0e 94 1e 1e 	call	0x3c3c	; 0x3c3c <_ZN13SerialManager18getMonitoredPacketEPcS0_>
    1382:	c3 01       	movw	r24, r6
    1384:	a0 96       	adiw	r28, 0x20	; 32
    1386:	0f b6       	in	r0, 0x3f	; 63
    1388:	f8 94       	cli
    138a:	de bf       	out	0x3e, r29	; 62
    138c:	0f be       	out	0x3f, r0	; 63
    138e:	cd bf       	out	0x3d, r28	; 61
    1390:	df 91       	pop	r29
    1392:	cf 91       	pop	r28
    1394:	1f 91       	pop	r17
    1396:	0f 91       	pop	r16
    1398:	ff 90       	pop	r15
    139a:	ef 90       	pop	r14
    139c:	df 90       	pop	r13
    139e:	cf 90       	pop	r12
    13a0:	bf 90       	pop	r11
    13a2:	af 90       	pop	r10
    13a4:	9f 90       	pop	r9
    13a6:	8f 90       	pop	r8
    13a8:	7f 90       	pop	r7
    13aa:	6f 90       	pop	r6
    13ac:	5f 90       	pop	r5
    13ae:	4f 90       	pop	r4
    13b0:	08 95       	ret

000013b2 <_ZN9RfManager10sendPacketE8RfPacket>:
    13b2:	cf 93       	push	r28
    13b4:	df 93       	push	r29
    13b6:	cd b7       	in	r28, 0x3d	; 61
    13b8:	de b7       	in	r29, 0x3e	; 62
    13ba:	a0 97       	sbiw	r28, 0x20	; 32
    13bc:	0f b6       	in	r0, 0x3f	; 63
    13be:	f8 94       	cli
    13c0:	de bf       	out	0x3e, r29	; 62
    13c2:	0f be       	out	0x3f, r0	; 63
    13c4:	cd bf       	out	0x3d, r28	; 61
    13c6:	ae 01       	movw	r20, r28
    13c8:	4f 5f       	subi	r20, 0xFF	; 255
    13ca:	5f 4f       	sbci	r21, 0xFF	; 255
    13cc:	20 e2       	ldi	r18, 0x20	; 32
    13ce:	fa 01       	movw	r30, r20
    13d0:	11 92       	st	Z+, r1
    13d2:	2a 95       	dec	r18
    13d4:	e9 f7       	brne	.-6      	; 0x13d0 <_ZN9RfManager10sendPacketE8RfPacket+0x1e>
    13d6:	2c e3       	ldi	r18, 0x3C	; 60
    13d8:	29 83       	std	Y+1, r18	; 0x01
    13da:	25 e0       	ldi	r18, 0x05	; 5
    13dc:	fe 01       	movw	r30, r28
    13de:	b5 96       	adiw	r30, 0x25	; 37
    13e0:	de 01       	movw	r26, r28
    13e2:	12 96       	adiw	r26, 0x02	; 2
    13e4:	01 90       	ld	r0, Z+
    13e6:	0d 92       	st	X+, r0
    13e8:	2a 95       	dec	r18
    13ea:	e1 f7       	brne	.-8      	; 0x13e4 <_ZN9RfManager10sendPacketE8RfPacket+0x32>
    13ec:	25 e0       	ldi	r18, 0x05	; 5
    13ee:	fe 01       	movw	r30, r28
    13f0:	bb 96       	adiw	r30, 0x2b	; 43
    13f2:	de 01       	movw	r26, r28
    13f4:	17 96       	adiw	r26, 0x07	; 7
    13f6:	01 90       	ld	r0, Z+
    13f8:	0d 92       	st	X+, r0
    13fa:	2a 95       	dec	r18
    13fc:	e1 f7       	brne	.-8      	; 0x13f6 <_ZN9RfManager10sendPacketE8RfPacket+0x44>
    13fe:	29 a9       	ldd	r18, Y+49	; 0x31
    1400:	3a a9       	ldd	r19, Y+50	; 0x32
    1402:	3d 87       	std	Y+13, r19	; 0x0d
    1404:	2c 87       	std	Y+12, r18	; 0x0c
    1406:	2b a9       	ldd	r18, Y+51	; 0x33
    1408:	3c a9       	ldd	r19, Y+52	; 0x34
    140a:	3f 87       	std	Y+15, r19	; 0x0f
    140c:	2e 87       	std	Y+14, r18	; 0x0e
    140e:	20 e1       	ldi	r18, 0x10	; 16
    1410:	fe 01       	movw	r30, r28
    1412:	f6 96       	adiw	r30, 0x36	; 54
    1414:	de 01       	movw	r26, r28
    1416:	50 96       	adiw	r26, 0x10	; 16
    1418:	01 90       	ld	r0, Z+
    141a:	0d 92       	st	X+, r0
    141c:	2a 95       	dec	r18
    141e:	e1 f7       	brne	.-8      	; 0x1418 <_ZN9RfManager10sendPacketE8RfPacket+0x66>
    1420:	2e e3       	ldi	r18, 0x3E	; 62
    1422:	28 a3       	std	Y+32, r18	; 0x20
    1424:	be 01       	movw	r22, r28
    1426:	65 5d       	subi	r22, 0xD5	; 213
    1428:	7f 4f       	sbci	r23, 0xFF	; 255
    142a:	0e 94 ea 05 	call	0xbd4	; 0xbd4 <_ZN9RfManager8sendDataEPcS0_>
    142e:	a0 96       	adiw	r28, 0x20	; 32
    1430:	0f b6       	in	r0, 0x3f	; 63
    1432:	f8 94       	cli
    1434:	de bf       	out	0x3e, r29	; 62
    1436:	0f be       	out	0x3f, r0	; 63
    1438:	cd bf       	out	0x3d, r28	; 61
    143a:	df 91       	pop	r29
    143c:	cf 91       	pop	r28
    143e:	08 95       	ret

00001440 <_ZN9RfManager10receptPONGE8RfPacket>:
    1440:	5f 92       	push	r5
    1442:	6f 92       	push	r6
    1444:	7f 92       	push	r7
    1446:	8f 92       	push	r8
    1448:	9f 92       	push	r9
    144a:	af 92       	push	r10
    144c:	bf 92       	push	r11
    144e:	cf 92       	push	r12
    1450:	df 92       	push	r13
    1452:	ef 92       	push	r14
    1454:	ff 92       	push	r15
    1456:	0f 93       	push	r16
    1458:	1f 93       	push	r17
    145a:	cf 93       	push	r28
    145c:	df 93       	push	r29
    145e:	cd b7       	in	r28, 0x3d	; 61
    1460:	de b7       	in	r29, 0x3e	; 62
    1462:	dc 01       	movw	r26, r24
    1464:	dd 96       	adiw	r26, 0x3d	; 61
    1466:	2d 91       	ld	r18, X+
    1468:	3c 91       	ld	r19, X
    146a:	de 97       	sbiw	r26, 0x3e	; 62
    146c:	23 2b       	or	r18, r19
    146e:	09 f4       	brne	.+2      	; 0x1472 <_ZN9RfManager10receptPONGE8RfPacket+0x32>
    1470:	e7 c0       	rjmp	.+462    	; 0x1640 <_ZN9RfManager10receptPONGE8RfPacket+0x200>
    1472:	6c 01       	movw	r12, r24
    1474:	00 e0       	ldi	r16, 0x00	; 0
    1476:	10 e0       	ldi	r17, 0x00	; 0
    1478:	51 2c       	mov	r5, r1
    147a:	4c 01       	movw	r8, r24
    147c:	b1 e4       	ldi	r27, 0x41	; 65
    147e:	8b 0e       	add	r8, r27
    1480:	91 1c       	adc	r9, r1
    1482:	3c 01       	movw	r6, r24
    1484:	ef e3       	ldi	r30, 0x3F	; 63
    1486:	6e 0e       	add	r6, r30
    1488:	71 1c       	adc	r7, r1
    148a:	c6 01       	movw	r24, r12
    148c:	0e 94 17 05 	call	0xa2e	; 0xa2e <_ZNK9ControlRf10getAddrLenEv>
    1490:	48 2f       	mov	r20, r24
    1492:	50 e0       	ldi	r21, 0x00	; 0
    1494:	d6 01       	movw	r26, r12
    1496:	dd 96       	adiw	r26, 0x3d	; 61
    1498:	ad 90       	ld	r10, X+
    149a:	bc 90       	ld	r11, X
    149c:	de 97       	sbiw	r26, 0x3e	; 62
    149e:	75 01       	movw	r14, r10
    14a0:	b1 e0       	ldi	r27, 0x01	; 1
    14a2:	eb 1a       	sub	r14, r27
    14a4:	f1 08       	sbc	r15, r1
    14a6:	e0 16       	cp	r14, r16
    14a8:	f1 06       	cpc	r15, r17
    14aa:	68 f4       	brcc	.+26     	; 0x14c6 <_ZN9RfManager10receptPONGE8RfPacket+0x86>
    14ac:	f4 01       	movw	r30, r8
    14ae:	e0 80       	ld	r14, Z
    14b0:	f1 80       	ldd	r15, Z+1	; 0x01
    14b2:	be 01       	movw	r22, r28
    14b4:	6d 5d       	subi	r22, 0xDD	; 221
    14b6:	7f 4f       	sbci	r23, 0xFF	; 255
    14b8:	c7 01       	movw	r24, r14
    14ba:	0e 94 39 2b 	call	0x5672	; 0x5672 <strncmp>
    14be:	89 2b       	or	r24, r25
    14c0:	09 f4       	brne	.+2      	; 0x14c4 <_ZN9RfManager10receptPONGE8RfPacket+0x84>
    14c2:	51 c0       	rjmp	.+162    	; 0x1566 <_ZN9RfManager10receptPONGE8RfPacket+0x126>
    14c4:	83 c0       	rjmp	.+262    	; 0x15cc <_ZN9RfManager10receptPONGE8RfPacket+0x18c>
    14c6:	b6 94       	lsr	r11
    14c8:	a7 94       	ror	r10
    14ca:	0a 15       	cp	r16, r10
    14cc:	1b 05       	cpc	r17, r11
    14ce:	90 f4       	brcc	.+36     	; 0x14f4 <_ZN9RfManager10receptPONGE8RfPacket+0xb4>
    14d0:	d3 01       	movw	r26, r6
    14d2:	ed 91       	ld	r30, X+
    14d4:	fc 91       	ld	r31, X
    14d6:	01 15       	cp	r16, r1
    14d8:	11 05       	cpc	r17, r1
    14da:	09 f4       	brne	.+2      	; 0x14de <_ZN9RfManager10receptPONGE8RfPacket+0x9e>
    14dc:	82 c0       	rjmp	.+260    	; 0x15e2 <_ZN9RfManager10receptPONGE8RfPacket+0x1a2>
    14de:	20 e0       	ldi	r18, 0x00	; 0
    14e0:	30 e0       	ldi	r19, 0x00	; 0
    14e2:	04 84       	ldd	r0, Z+12	; 0x0c
    14e4:	f5 85       	ldd	r31, Z+13	; 0x0d
    14e6:	e0 2d       	mov	r30, r0
    14e8:	2f 5f       	subi	r18, 0xFF	; 255
    14ea:	3f 4f       	sbci	r19, 0xFF	; 255
    14ec:	20 17       	cp	r18, r16
    14ee:	31 07       	cpc	r19, r17
    14f0:	c1 f7       	brne	.-16     	; 0x14e2 <_ZN9RfManager10receptPONGE8RfPacket+0xa2>
    14f2:	92 c0       	rjmp	.+292    	; 0x1618 <_ZN9RfManager10receptPONGE8RfPacket+0x1d8>
    14f4:	d4 01       	movw	r26, r8
    14f6:	ed 91       	ld	r30, X+
    14f8:	fc 91       	ld	r31, X
    14fa:	0e 15       	cp	r16, r14
    14fc:	1f 05       	cpc	r17, r15
    14fe:	08 f0       	brcs	.+2      	; 0x1502 <_ZN9RfManager10receptPONGE8RfPacket+0xc2>
    1500:	95 c0       	rjmp	.+298    	; 0x162c <_ZN9RfManager10receptPONGE8RfPacket+0x1ec>
    1502:	97 01       	movw	r18, r14
    1504:	06 84       	ldd	r0, Z+14	; 0x0e
    1506:	f7 85       	ldd	r31, Z+15	; 0x0f
    1508:	e0 2d       	mov	r30, r0
    150a:	21 50       	subi	r18, 0x01	; 1
    150c:	31 09       	sbc	r19, r1
    150e:	20 17       	cp	r18, r16
    1510:	31 07       	cpc	r19, r17
    1512:	c1 f7       	brne	.-16     	; 0x1504 <_ZN9RfManager10receptPONGE8RfPacket+0xc4>
    1514:	8b c0       	rjmp	.+278    	; 0x162c <_ZN9RfManager10receptPONGE8RfPacket+0x1ec>
    1516:	0a 15       	cp	r16, r10
    1518:	1b 05       	cpc	r17, r11
    151a:	88 f4       	brcc	.+34     	; 0x153e <_ZN9RfManager10receptPONGE8RfPacket+0xfe>
    151c:	d3 01       	movw	r26, r6
    151e:	ed 91       	ld	r30, X+
    1520:	fc 91       	ld	r31, X
    1522:	01 15       	cp	r16, r1
    1524:	11 05       	cpc	r17, r1
    1526:	09 f4       	brne	.+2      	; 0x152a <_ZN9RfManager10receptPONGE8RfPacket+0xea>
    1528:	66 c0       	rjmp	.+204    	; 0x15f6 <_ZN9RfManager10receptPONGE8RfPacket+0x1b6>
    152a:	80 e0       	ldi	r24, 0x00	; 0
    152c:	90 e0       	ldi	r25, 0x00	; 0
    152e:	04 84       	ldd	r0, Z+12	; 0x0c
    1530:	f5 85       	ldd	r31, Z+13	; 0x0d
    1532:	e0 2d       	mov	r30, r0
    1534:	01 96       	adiw	r24, 0x01	; 1
    1536:	80 17       	cp	r24, r16
    1538:	91 07       	cpc	r25, r17
    153a:	c9 f7       	brne	.-14     	; 0x152e <_ZN9RfManager10receptPONGE8RfPacket+0xee>
    153c:	11 c0       	rjmp	.+34     	; 0x1560 <_ZN9RfManager10receptPONGE8RfPacket+0x120>
    153e:	d4 01       	movw	r26, r8
    1540:	ed 91       	ld	r30, X+
    1542:	fc 91       	ld	r31, X
    1544:	0e 15       	cp	r16, r14
    1546:	1f 05       	cpc	r17, r15
    1548:	68 f4       	brcc	.+26     	; 0x1564 <_ZN9RfManager10receptPONGE8RfPacket+0x124>
    154a:	06 84       	ldd	r0, Z+14	; 0x0e
    154c:	f7 85       	ldd	r31, Z+15	; 0x0f
    154e:	e0 2d       	mov	r30, r0
    1550:	b1 e0       	ldi	r27, 0x01	; 1
    1552:	eb 1a       	sub	r14, r27
    1554:	f1 08       	sbc	r15, r1
    1556:	e0 16       	cp	r14, r16
    1558:	f1 06       	cpc	r15, r17
    155a:	b9 f7       	brne	.-18     	; 0x154a <_ZN9RfManager10receptPONGE8RfPacket+0x10a>
    155c:	7f 01       	movw	r14, r30
    155e:	03 c0       	rjmp	.+6      	; 0x1566 <_ZN9RfManager10receptPONGE8RfPacket+0x126>
    1560:	7f 01       	movw	r14, r30
    1562:	01 c0       	rjmp	.+2      	; 0x1566 <_ZN9RfManager10receptPONGE8RfPacket+0x126>
    1564:	7f 01       	movw	r14, r30
    1566:	f7 01       	movw	r30, r14
    1568:	10 86       	std	Z+8, r1	; 0x08
    156a:	d6 01       	movw	r26, r12
    156c:	dd 96       	adiw	r26, 0x3d	; 61
    156e:	2d 91       	ld	r18, X+
    1570:	3c 91       	ld	r19, X
    1572:	de 97       	sbiw	r26, 0x3e	; 62
    1574:	c9 01       	movw	r24, r18
    1576:	01 97       	sbiw	r24, 0x01	; 1
    1578:	80 17       	cp	r24, r16
    157a:	91 07       	cpc	r25, r17
    157c:	20 f4       	brcc	.+8      	; 0x1586 <_ZN9RfManager10receptPONGE8RfPacket+0x146>
    157e:	d4 01       	movw	r26, r8
    1580:	ed 91       	ld	r30, X+
    1582:	fc 91       	ld	r31, X
    1584:	22 c0       	rjmp	.+68     	; 0x15ca <_ZN9RfManager10receptPONGE8RfPacket+0x18a>
    1586:	36 95       	lsr	r19
    1588:	27 95       	ror	r18
    158a:	02 17       	cp	r16, r18
    158c:	13 07       	cpc	r17, r19
    158e:	80 f4       	brcc	.+32     	; 0x15b0 <_ZN9RfManager10receptPONGE8RfPacket+0x170>
    1590:	d3 01       	movw	r26, r6
    1592:	ed 91       	ld	r30, X+
    1594:	fc 91       	ld	r31, X
    1596:	01 15       	cp	r16, r1
    1598:	11 05       	cpc	r17, r1
    159a:	b9 f0       	breq	.+46     	; 0x15ca <_ZN9RfManager10receptPONGE8RfPacket+0x18a>
    159c:	80 e0       	ldi	r24, 0x00	; 0
    159e:	90 e0       	ldi	r25, 0x00	; 0
    15a0:	04 84       	ldd	r0, Z+12	; 0x0c
    15a2:	f5 85       	ldd	r31, Z+13	; 0x0d
    15a4:	e0 2d       	mov	r30, r0
    15a6:	01 96       	adiw	r24, 0x01	; 1
    15a8:	80 17       	cp	r24, r16
    15aa:	91 07       	cpc	r25, r17
    15ac:	c9 f7       	brne	.-14     	; 0x15a0 <_ZN9RfManager10receptPONGE8RfPacket+0x160>
    15ae:	0d c0       	rjmp	.+26     	; 0x15ca <_ZN9RfManager10receptPONGE8RfPacket+0x18a>
    15b0:	d4 01       	movw	r26, r8
    15b2:	ed 91       	ld	r30, X+
    15b4:	fc 91       	ld	r31, X
    15b6:	08 17       	cp	r16, r24
    15b8:	19 07       	cpc	r17, r25
    15ba:	38 f4       	brcc	.+14     	; 0x15ca <_ZN9RfManager10receptPONGE8RfPacket+0x18a>
    15bc:	06 84       	ldd	r0, Z+14	; 0x0e
    15be:	f7 85       	ldd	r31, Z+15	; 0x0f
    15c0:	e0 2d       	mov	r30, r0
    15c2:	01 97       	sbiw	r24, 0x01	; 1
    15c4:	80 17       	cp	r24, r16
    15c6:	91 07       	cpc	r25, r17
    15c8:	c9 f7       	brne	.-14     	; 0x15bc <_ZN9RfManager10receptPONGE8RfPacket+0x17c>
    15ca:	11 86       	std	Z+9, r1	; 0x09
    15cc:	53 94       	inc	r5
    15ce:	05 2d       	mov	r16, r5
    15d0:	10 e0       	ldi	r17, 0x00	; 0
    15d2:	f6 01       	movw	r30, r12
    15d4:	85 ad       	ldd	r24, Z+61	; 0x3d
    15d6:	96 ad       	ldd	r25, Z+62	; 0x3e
    15d8:	08 17       	cp	r16, r24
    15da:	19 07       	cpc	r17, r25
    15dc:	08 f4       	brcc	.+2      	; 0x15e0 <_ZN9RfManager10receptPONGE8RfPacket+0x1a0>
    15de:	55 cf       	rjmp	.-342    	; 0x148a <_ZN9RfManager10receptPONGE8RfPacket+0x4a>
    15e0:	2f c0       	rjmp	.+94     	; 0x1640 <_ZN9RfManager10receptPONGE8RfPacket+0x200>
    15e2:	be 01       	movw	r22, r28
    15e4:	6d 5d       	subi	r22, 0xDD	; 221
    15e6:	7f 4f       	sbci	r23, 0xFF	; 255
    15e8:	cf 01       	movw	r24, r30
    15ea:	0e 94 39 2b 	call	0x5672	; 0x5672 <strncmp>
    15ee:	89 2b       	or	r24, r25
    15f0:	09 f4       	brne	.+2      	; 0x15f4 <_ZN9RfManager10receptPONGE8RfPacket+0x1b4>
    15f2:	91 cf       	rjmp	.-222    	; 0x1516 <_ZN9RfManager10receptPONGE8RfPacket+0xd6>
    15f4:	eb cf       	rjmp	.-42     	; 0x15cc <_ZN9RfManager10receptPONGE8RfPacket+0x18c>
    15f6:	10 86       	std	Z+8, r1	; 0x08
    15f8:	d6 01       	movw	r26, r12
    15fa:	dd 96       	adiw	r26, 0x3d	; 61
    15fc:	2d 91       	ld	r18, X+
    15fe:	3c 91       	ld	r19, X
    1600:	de 97       	sbiw	r26, 0x3e	; 62
    1602:	c9 01       	movw	r24, r18
    1604:	01 97       	sbiw	r24, 0x01	; 1
    1606:	36 95       	lsr	r19
    1608:	27 95       	ror	r18
    160a:	02 17       	cp	r16, r18
    160c:	13 07       	cpc	r17, r19
    160e:	80 f6       	brcc	.-96     	; 0x15b0 <_ZN9RfManager10receptPONGE8RfPacket+0x170>
    1610:	d3 01       	movw	r26, r6
    1612:	ed 91       	ld	r30, X+
    1614:	fc 91       	ld	r31, X
    1616:	d9 cf       	rjmp	.-78     	; 0x15ca <_ZN9RfManager10receptPONGE8RfPacket+0x18a>
    1618:	be 01       	movw	r22, r28
    161a:	6d 5d       	subi	r22, 0xDD	; 221
    161c:	7f 4f       	sbci	r23, 0xFF	; 255
    161e:	cf 01       	movw	r24, r30
    1620:	0e 94 39 2b 	call	0x5672	; 0x5672 <strncmp>
    1624:	89 2b       	or	r24, r25
    1626:	09 f4       	brne	.+2      	; 0x162a <_ZN9RfManager10receptPONGE8RfPacket+0x1ea>
    1628:	79 cf       	rjmp	.-270    	; 0x151c <_ZN9RfManager10receptPONGE8RfPacket+0xdc>
    162a:	d0 cf       	rjmp	.-96     	; 0x15cc <_ZN9RfManager10receptPONGE8RfPacket+0x18c>
    162c:	be 01       	movw	r22, r28
    162e:	6d 5d       	subi	r22, 0xDD	; 221
    1630:	7f 4f       	sbci	r23, 0xFF	; 255
    1632:	cf 01       	movw	r24, r30
    1634:	0e 94 39 2b 	call	0x5672	; 0x5672 <strncmp>
    1638:	89 2b       	or	r24, r25
    163a:	09 f4       	brne	.+2      	; 0x163e <_ZN9RfManager10receptPONGE8RfPacket+0x1fe>
    163c:	80 cf       	rjmp	.-256    	; 0x153e <_ZN9RfManager10receptPONGE8RfPacket+0xfe>
    163e:	c6 cf       	rjmp	.-116    	; 0x15cc <_ZN9RfManager10receptPONGE8RfPacket+0x18c>
    1640:	df 91       	pop	r29
    1642:	cf 91       	pop	r28
    1644:	1f 91       	pop	r17
    1646:	0f 91       	pop	r16
    1648:	ff 90       	pop	r15
    164a:	ef 90       	pop	r14
    164c:	df 90       	pop	r13
    164e:	cf 90       	pop	r12
    1650:	bf 90       	pop	r11
    1652:	af 90       	pop	r10
    1654:	9f 90       	pop	r9
    1656:	8f 90       	pop	r8
    1658:	7f 90       	pop	r7
    165a:	6f 90       	pop	r6
    165c:	5f 90       	pop	r5
    165e:	08 95       	ret

00001660 <_ZN9RfManager10receptCPOSE8RfPacket>:
    1660:	cf 93       	push	r28
    1662:	df 93       	push	r29
    1664:	00 d0       	rcall	.+0      	; 0x1666 <_ZN9RfManager10receptCPOSE8RfPacket+0x6>
    1666:	1f 92       	push	r1
    1668:	cd b7       	in	r28, 0x3d	; 61
    166a:	de b7       	in	r29, 0x3e	; 62
    166c:	29 8d       	ldd	r18, Y+25	; 0x19
    166e:	3a 8d       	ldd	r19, Y+26	; 0x1a
    1670:	4b 8d       	ldd	r20, Y+27	; 0x1b
    1672:	29 83       	std	Y+1, r18	; 0x01
    1674:	3a 83       	std	Y+2, r19	; 0x02
    1676:	4b 83       	std	Y+3, r20	; 0x03
    1678:	89 5a       	subi	r24, 0xA9	; 169
    167a:	9f 4f       	sbci	r25, 0xFF	; 255
    167c:	ae 01       	movw	r20, r28
    167e:	4f 5f       	subi	r20, 0xFF	; 255
    1680:	5f 4f       	sbci	r21, 0xFF	; 255
    1682:	be 01       	movw	r22, r28
    1684:	68 5f       	subi	r22, 0xF8	; 248
    1686:	7f 4f       	sbci	r23, 0xFF	; 255
    1688:	fc 01       	movw	r30, r24
    168a:	80 81       	ld	r24, Z
    168c:	91 81       	ldd	r25, Z+1	; 0x01
    168e:	0e 94 c7 20 	call	0x418e	; 0x418e <_ZN13SerialManager8recvCPOSEPcPh>
    1692:	0f 90       	pop	r0
    1694:	0f 90       	pop	r0
    1696:	0f 90       	pop	r0
    1698:	df 91       	pop	r29
    169a:	cf 91       	pop	r28
    169c:	08 95       	ret

0000169e <_ZN9RfManager10receptLBATE8RfPacket>:
    169e:	0f 93       	push	r16
    16a0:	1f 93       	push	r17
    16a2:	cf 93       	push	r28
    16a4:	df 93       	push	r29
    16a6:	cd b7       	in	r28, 0x3d	; 61
    16a8:	de b7       	in	r29, 0x3e	; 62
    16aa:	68 8d       	ldd	r22, Y+24	; 0x18
    16ac:	29 8d       	ldd	r18, Y+25	; 0x19
    16ae:	02 2f       	mov	r16, r18
    16b0:	10 e0       	ldi	r17, 0x00	; 0
    16b2:	20 e0       	ldi	r18, 0x00	; 0
    16b4:	30 e0       	ldi	r19, 0x00	; 0
    16b6:	98 01       	movw	r18, r16
    16b8:	11 27       	eor	r17, r17
    16ba:	00 27       	eor	r16, r16
    16bc:	36 2b       	or	r19, r22
    16be:	6b 8d       	ldd	r22, Y+27	; 0x1b
    16c0:	06 2b       	or	r16, r22
    16c2:	6a 8d       	ldd	r22, Y+26	; 0x1a
    16c4:	a9 01       	movw	r20, r18
    16c6:	98 01       	movw	r18, r16
    16c8:	36 2b       	or	r19, r22
    16ca:	89 5a       	subi	r24, 0xA9	; 169
    16cc:	9f 4f       	sbci	r25, 0xFF	; 255
    16ce:	be 01       	movw	r22, r28
    16d0:	69 5f       	subi	r22, 0xF9	; 249
    16d2:	7f 4f       	sbci	r23, 0xFF	; 255
    16d4:	fc 01       	movw	r30, r24
    16d6:	80 81       	ld	r24, Z
    16d8:	91 81       	ldd	r25, Z+1	; 0x01
    16da:	0e 94 8e 21 	call	0x431c	; 0x431c <_ZN13SerialManager8recvLBATEPcm>
    16de:	df 91       	pop	r29
    16e0:	cf 91       	pop	r28
    16e2:	1f 91       	pop	r17
    16e4:	0f 91       	pop	r16
    16e6:	08 95       	ret

000016e8 <_ZN9RfManager10receptSDONE8RfPacket>:
    16e8:	5f 92       	push	r5
    16ea:	6f 92       	push	r6
    16ec:	7f 92       	push	r7
    16ee:	8f 92       	push	r8
    16f0:	9f 92       	push	r9
    16f2:	af 92       	push	r10
    16f4:	bf 92       	push	r11
    16f6:	cf 92       	push	r12
    16f8:	df 92       	push	r13
    16fa:	ef 92       	push	r14
    16fc:	ff 92       	push	r15
    16fe:	0f 93       	push	r16
    1700:	1f 93       	push	r17
    1702:	cf 93       	push	r28
    1704:	df 93       	push	r29
    1706:	cd b7       	in	r28, 0x3d	; 61
    1708:	de b7       	in	r29, 0x3e	; 62
    170a:	5c 01       	movw	r10, r24
    170c:	fc 01       	movw	r30, r24
    170e:	e9 5a       	subi	r30, 0xA9	; 169
    1710:	ff 4f       	sbci	r31, 0xFF	; 255
    1712:	4b a1       	ldd	r20, Y+35	; 0x23
    1714:	be 01       	movw	r22, r28
    1716:	6e 5e       	subi	r22, 0xEE	; 238
    1718:	7f 4f       	sbci	r23, 0xFF	; 255
    171a:	80 81       	ld	r24, Z
    171c:	91 81       	ldd	r25, Z+1	; 0x01
    171e:	0e 94 9f 22 	call	0x453e	; 0x453e <_ZN13SerialManager8recvSDONEPch>
    1722:	d5 01       	movw	r26, r10
    1724:	dd 96       	adiw	r26, 0x3d	; 61
    1726:	8d 91       	ld	r24, X+
    1728:	9c 91       	ld	r25, X
    172a:	de 97       	sbiw	r26, 0x3e	; 62
    172c:	89 2b       	or	r24, r25
    172e:	09 f4       	brne	.+2      	; 0x1732 <_ZN9RfManager10receptSDONE8RfPacket+0x4a>
    1730:	2c c1       	rjmp	.+600    	; 0x198a <_ZN9RfManager10receptSDONE8RfPacket+0x2a2>
    1732:	00 e0       	ldi	r16, 0x00	; 0
    1734:	10 e0       	ldi	r17, 0x00	; 0
    1736:	51 2c       	mov	r5, r1
    1738:	45 01       	movw	r8, r10
    173a:	b1 e4       	ldi	r27, 0x41	; 65
    173c:	8b 0e       	add	r8, r27
    173e:	91 1c       	adc	r9, r1
    1740:	35 01       	movw	r6, r10
    1742:	ef e3       	ldi	r30, 0x3F	; 63
    1744:	6e 0e       	add	r6, r30
    1746:	71 1c       	adc	r7, r1
    1748:	c5 01       	movw	r24, r10
    174a:	0e 94 17 05 	call	0xa2e	; 0xa2e <_ZNK9ControlRf10getAddrLenEv>
    174e:	48 2f       	mov	r20, r24
    1750:	50 e0       	ldi	r21, 0x00	; 0
    1752:	d5 01       	movw	r26, r10
    1754:	dd 96       	adiw	r26, 0x3d	; 61
    1756:	ed 90       	ld	r14, X+
    1758:	fc 90       	ld	r15, X
    175a:	de 97       	sbiw	r26, 0x3e	; 62
    175c:	67 01       	movw	r12, r14
    175e:	b1 e0       	ldi	r27, 0x01	; 1
    1760:	cb 1a       	sub	r12, r27
    1762:	d1 08       	sbc	r13, r1
    1764:	c0 16       	cp	r12, r16
    1766:	d1 06       	cpc	r13, r17
    1768:	20 f4       	brcc	.+8      	; 0x1772 <_ZN9RfManager10receptSDONE8RfPacket+0x8a>
    176a:	f4 01       	movw	r30, r8
    176c:	60 81       	ld	r22, Z
    176e:	71 81       	ldd	r23, Z+1	; 0x01
    1770:	31 c0       	rjmp	.+98     	; 0x17d4 <_ZN9RfManager10receptSDONE8RfPacket+0xec>
    1772:	c7 01       	movw	r24, r14
    1774:	96 95       	lsr	r25
    1776:	87 95       	ror	r24
    1778:	08 17       	cp	r16, r24
    177a:	19 07       	cpc	r17, r25
    177c:	88 f4       	brcc	.+34     	; 0x17a0 <_ZN9RfManager10receptSDONE8RfPacket+0xb8>
    177e:	d3 01       	movw	r26, r6
    1780:	ed 91       	ld	r30, X+
    1782:	fc 91       	ld	r31, X
    1784:	01 15       	cp	r16, r1
    1786:	11 05       	cpc	r17, r1
    1788:	e9 f0       	breq	.+58     	; 0x17c4 <_ZN9RfManager10receptSDONE8RfPacket+0xdc>
    178a:	20 e0       	ldi	r18, 0x00	; 0
    178c:	30 e0       	ldi	r19, 0x00	; 0
    178e:	04 84       	ldd	r0, Z+12	; 0x0c
    1790:	f5 85       	ldd	r31, Z+13	; 0x0d
    1792:	e0 2d       	mov	r30, r0
    1794:	2f 5f       	subi	r18, 0xFF	; 255
    1796:	3f 4f       	sbci	r19, 0xFF	; 255
    1798:	20 17       	cp	r18, r16
    179a:	31 07       	cpc	r19, r17
    179c:	c1 f7       	brne	.-16     	; 0x178e <_ZN9RfManager10receptSDONE8RfPacket+0xa6>
    179e:	15 c0       	rjmp	.+42     	; 0x17ca <_ZN9RfManager10receptSDONE8RfPacket+0xe2>
    17a0:	d4 01       	movw	r26, r8
    17a2:	ed 91       	ld	r30, X+
    17a4:	fc 91       	ld	r31, X
    17a6:	0c 15       	cp	r16, r12
    17a8:	1d 05       	cpc	r17, r13
    17aa:	90 f4       	brcc	.+36     	; 0x17d0 <_ZN9RfManager10receptSDONE8RfPacket+0xe8>
    17ac:	96 01       	movw	r18, r12
    17ae:	06 84       	ldd	r0, Z+14	; 0x0e
    17b0:	f7 85       	ldd	r31, Z+15	; 0x0f
    17b2:	e0 2d       	mov	r30, r0
    17b4:	21 50       	subi	r18, 0x01	; 1
    17b6:	31 09       	sbc	r19, r1
    17b8:	20 17       	cp	r18, r16
    17ba:	31 07       	cpc	r19, r17
    17bc:	c1 f7       	brne	.-16     	; 0x17ae <_ZN9RfManager10receptSDONE8RfPacket+0xc6>
    17be:	6e 2f       	mov	r22, r30
    17c0:	7f 2f       	mov	r23, r31
    17c2:	08 c0       	rjmp	.+16     	; 0x17d4 <_ZN9RfManager10receptSDONE8RfPacket+0xec>
    17c4:	6e 2f       	mov	r22, r30
    17c6:	7f 2f       	mov	r23, r31
    17c8:	05 c0       	rjmp	.+10     	; 0x17d4 <_ZN9RfManager10receptSDONE8RfPacket+0xec>
    17ca:	6e 2f       	mov	r22, r30
    17cc:	7f 2f       	mov	r23, r31
    17ce:	02 c0       	rjmp	.+4      	; 0x17d4 <_ZN9RfManager10receptSDONE8RfPacket+0xec>
    17d0:	6e 2f       	mov	r22, r30
    17d2:	7f 2f       	mov	r23, r31
    17d4:	ce 01       	movw	r24, r28
    17d6:	42 96       	adiw	r24, 0x12	; 18
    17d8:	0e 94 39 2b 	call	0x5672	; 0x5672 <strncmp>
    17dc:	89 2b       	or	r24, r25
    17de:	09 f0       	breq	.+2      	; 0x17e2 <_ZN9RfManager10receptSDONE8RfPacket+0xfa>
    17e0:	a6 c0       	rjmp	.+332    	; 0x192e <_ZN9RfManager10receptSDONE8RfPacket+0x246>
    17e2:	c0 16       	cp	r12, r16
    17e4:	d1 06       	cpc	r13, r17
    17e6:	38 f4       	brcc	.+14     	; 0x17f6 <_ZN9RfManager10receptSDONE8RfPacket+0x10e>
    17e8:	f5 01       	movw	r30, r10
    17ea:	ef 5b       	subi	r30, 0xBF	; 191
    17ec:	ff 4f       	sbci	r31, 0xFF	; 255
    17ee:	01 90       	ld	r0, Z+
    17f0:	f0 81       	ld	r31, Z
    17f2:	e0 2d       	mov	r30, r0
    17f4:	2a c0       	rjmp	.+84     	; 0x184a <_ZN9RfManager10receptSDONE8RfPacket+0x162>
    17f6:	f6 94       	lsr	r15
    17f8:	e7 94       	ror	r14
    17fa:	0e 15       	cp	r16, r14
    17fc:	1f 05       	cpc	r17, r15
    17fe:	98 f4       	brcc	.+38     	; 0x1826 <_ZN9RfManager10receptSDONE8RfPacket+0x13e>
    1800:	f5 01       	movw	r30, r10
    1802:	ff 96       	adiw	r30, 0x3f	; 63
    1804:	01 90       	ld	r0, Z+
    1806:	f0 81       	ld	r31, Z
    1808:	e0 2d       	mov	r30, r0
    180a:	01 15       	cp	r16, r1
    180c:	11 05       	cpc	r17, r1
    180e:	09 f4       	brne	.+2      	; 0x1812 <_ZN9RfManager10receptSDONE8RfPacket+0x12a>
    1810:	96 c0       	rjmp	.+300    	; 0x193e <_ZN9RfManager10receptSDONE8RfPacket+0x256>
    1812:	80 e0       	ldi	r24, 0x00	; 0
    1814:	90 e0       	ldi	r25, 0x00	; 0
    1816:	04 84       	ldd	r0, Z+12	; 0x0c
    1818:	f5 85       	ldd	r31, Z+13	; 0x0d
    181a:	e0 2d       	mov	r30, r0
    181c:	01 96       	adiw	r24, 0x01	; 1
    181e:	80 17       	cp	r24, r16
    1820:	91 07       	cpc	r25, r17
    1822:	c9 f7       	brne	.-14     	; 0x1816 <_ZN9RfManager10receptSDONE8RfPacket+0x12e>
    1824:	12 c0       	rjmp	.+36     	; 0x184a <_ZN9RfManager10receptSDONE8RfPacket+0x162>
    1826:	f5 01       	movw	r30, r10
    1828:	ef 5b       	subi	r30, 0xBF	; 191
    182a:	ff 4f       	sbci	r31, 0xFF	; 255
    182c:	01 90       	ld	r0, Z+
    182e:	f0 81       	ld	r31, Z
    1830:	e0 2d       	mov	r30, r0
    1832:	0c 15       	cp	r16, r12
    1834:	1d 05       	cpc	r17, r13
    1836:	48 f4       	brcc	.+18     	; 0x184a <_ZN9RfManager10receptSDONE8RfPacket+0x162>
    1838:	06 84       	ldd	r0, Z+14	; 0x0e
    183a:	f7 85       	ldd	r31, Z+15	; 0x0f
    183c:	e0 2d       	mov	r30, r0
    183e:	b1 e0       	ldi	r27, 0x01	; 1
    1840:	cb 1a       	sub	r12, r27
    1842:	d1 08       	sbc	r13, r1
    1844:	c0 16       	cp	r12, r16
    1846:	d1 06       	cpc	r13, r17
    1848:	b9 f7       	brne	.-18     	; 0x1838 <_ZN9RfManager10receptSDONE8RfPacket+0x150>
    184a:	17 82       	std	Z+7, r1	; 0x07
    184c:	f5 01       	movw	r30, r10
    184e:	25 ad       	ldd	r18, Z+61	; 0x3d
    1850:	36 ad       	ldd	r19, Z+62	; 0x3e
    1852:	c9 01       	movw	r24, r18
    1854:	01 97       	sbiw	r24, 0x01	; 1
    1856:	80 17       	cp	r24, r16
    1858:	91 07       	cpc	r25, r17
    185a:	30 f4       	brcc	.+12     	; 0x1868 <_ZN9RfManager10receptSDONE8RfPacket+0x180>
    185c:	ef 5b       	subi	r30, 0xBF	; 191
    185e:	ff 4f       	sbci	r31, 0xFF	; 255
    1860:	01 90       	ld	r0, Z+
    1862:	f0 81       	ld	r31, Z
    1864:	e0 2d       	mov	r30, r0
    1866:	28 c0       	rjmp	.+80     	; 0x18b8 <_ZN9RfManager10receptSDONE8RfPacket+0x1d0>
    1868:	36 95       	lsr	r19
    186a:	27 95       	ror	r18
    186c:	02 17       	cp	r16, r18
    186e:	13 07       	cpc	r17, r19
    1870:	98 f4       	brcc	.+38     	; 0x1898 <_ZN9RfManager10receptSDONE8RfPacket+0x1b0>
    1872:	f5 01       	movw	r30, r10
    1874:	ff 96       	adiw	r30, 0x3f	; 63
    1876:	01 90       	ld	r0, Z+
    1878:	f0 81       	ld	r31, Z
    187a:	e0 2d       	mov	r30, r0
    187c:	01 15       	cp	r16, r1
    187e:	11 05       	cpc	r17, r1
    1880:	09 f4       	brne	.+2      	; 0x1884 <_ZN9RfManager10receptSDONE8RfPacket+0x19c>
    1882:	69 c0       	rjmp	.+210    	; 0x1956 <_ZN9RfManager10receptSDONE8RfPacket+0x26e>
    1884:	80 e0       	ldi	r24, 0x00	; 0
    1886:	90 e0       	ldi	r25, 0x00	; 0
    1888:	04 84       	ldd	r0, Z+12	; 0x0c
    188a:	f5 85       	ldd	r31, Z+13	; 0x0d
    188c:	e0 2d       	mov	r30, r0
    188e:	01 96       	adiw	r24, 0x01	; 1
    1890:	80 17       	cp	r24, r16
    1892:	91 07       	cpc	r25, r17
    1894:	c9 f7       	brne	.-14     	; 0x1888 <_ZN9RfManager10receptSDONE8RfPacket+0x1a0>
    1896:	10 c0       	rjmp	.+32     	; 0x18b8 <_ZN9RfManager10receptSDONE8RfPacket+0x1d0>
    1898:	f5 01       	movw	r30, r10
    189a:	ef 5b       	subi	r30, 0xBF	; 191
    189c:	ff 4f       	sbci	r31, 0xFF	; 255
    189e:	01 90       	ld	r0, Z+
    18a0:	f0 81       	ld	r31, Z
    18a2:	e0 2d       	mov	r30, r0
    18a4:	08 17       	cp	r16, r24
    18a6:	19 07       	cpc	r17, r25
    18a8:	38 f4       	brcc	.+14     	; 0x18b8 <_ZN9RfManager10receptSDONE8RfPacket+0x1d0>
    18aa:	06 84       	ldd	r0, Z+14	; 0x0e
    18ac:	f7 85       	ldd	r31, Z+15	; 0x0f
    18ae:	e0 2d       	mov	r30, r0
    18b0:	01 97       	sbiw	r24, 0x01	; 1
    18b2:	80 17       	cp	r24, r16
    18b4:	91 07       	cpc	r25, r17
    18b6:	c9 f7       	brne	.-14     	; 0x18aa <_ZN9RfManager10receptSDONE8RfPacket+0x1c2>
    18b8:	12 86       	std	Z+10, r1	; 0x0a
    18ba:	d5 01       	movw	r26, r10
    18bc:	dd 96       	adiw	r26, 0x3d	; 61
    18be:	2d 91       	ld	r18, X+
    18c0:	3c 91       	ld	r19, X
    18c2:	de 97       	sbiw	r26, 0x3e	; 62
    18c4:	c9 01       	movw	r24, r18
    18c6:	01 97       	sbiw	r24, 0x01	; 1
    18c8:	80 17       	cp	r24, r16
    18ca:	91 07       	cpc	r25, r17
    18cc:	38 f4       	brcc	.+14     	; 0x18dc <_ZN9RfManager10receptSDONE8RfPacket+0x1f4>
    18ce:	f5 01       	movw	r30, r10
    18d0:	ef 5b       	subi	r30, 0xBF	; 191
    18d2:	ff 4f       	sbci	r31, 0xFF	; 255
    18d4:	01 90       	ld	r0, Z+
    18d6:	f0 81       	ld	r31, Z
    18d8:	e0 2d       	mov	r30, r0
    18da:	27 c0       	rjmp	.+78     	; 0x192a <_ZN9RfManager10receptSDONE8RfPacket+0x242>
    18dc:	36 95       	lsr	r19
    18de:	27 95       	ror	r18
    18e0:	02 17       	cp	r16, r18
    18e2:	13 07       	cpc	r17, r19
    18e4:	90 f4       	brcc	.+36     	; 0x190a <_ZN9RfManager10receptSDONE8RfPacket+0x222>
    18e6:	f5 01       	movw	r30, r10
    18e8:	ff 96       	adiw	r30, 0x3f	; 63
    18ea:	01 90       	ld	r0, Z+
    18ec:	f0 81       	ld	r31, Z
    18ee:	e0 2d       	mov	r30, r0
    18f0:	01 15       	cp	r16, r1
    18f2:	11 05       	cpc	r17, r1
    18f4:	d1 f0       	breq	.+52     	; 0x192a <_ZN9RfManager10receptSDONE8RfPacket+0x242>
    18f6:	80 e0       	ldi	r24, 0x00	; 0
    18f8:	90 e0       	ldi	r25, 0x00	; 0
    18fa:	04 84       	ldd	r0, Z+12	; 0x0c
    18fc:	f5 85       	ldd	r31, Z+13	; 0x0d
    18fe:	e0 2d       	mov	r30, r0
    1900:	01 96       	adiw	r24, 0x01	; 1
    1902:	80 17       	cp	r24, r16
    1904:	91 07       	cpc	r25, r17
    1906:	c9 f7       	brne	.-14     	; 0x18fa <_ZN9RfManager10receptSDONE8RfPacket+0x212>
    1908:	10 c0       	rjmp	.+32     	; 0x192a <_ZN9RfManager10receptSDONE8RfPacket+0x242>
    190a:	f5 01       	movw	r30, r10
    190c:	ef 5b       	subi	r30, 0xBF	; 191
    190e:	ff 4f       	sbci	r31, 0xFF	; 255
    1910:	01 90       	ld	r0, Z+
    1912:	f0 81       	ld	r31, Z
    1914:	e0 2d       	mov	r30, r0
    1916:	08 17       	cp	r16, r24
    1918:	19 07       	cpc	r17, r25
    191a:	38 f4       	brcc	.+14     	; 0x192a <_ZN9RfManager10receptSDONE8RfPacket+0x242>
    191c:	06 84       	ldd	r0, Z+14	; 0x0e
    191e:	f7 85       	ldd	r31, Z+15	; 0x0f
    1920:	e0 2d       	mov	r30, r0
    1922:	01 97       	sbiw	r24, 0x01	; 1
    1924:	80 17       	cp	r24, r16
    1926:	91 07       	cpc	r25, r17
    1928:	c9 f7       	brne	.-14     	; 0x191c <_ZN9RfManager10receptSDONE8RfPacket+0x234>
    192a:	13 86       	std	Z+11, r1	; 0x0b
    192c:	2e c0       	rjmp	.+92     	; 0x198a <_ZN9RfManager10receptSDONE8RfPacket+0x2a2>
    192e:	53 94       	inc	r5
    1930:	05 2d       	mov	r16, r5
    1932:	10 e0       	ldi	r17, 0x00	; 0
    1934:	0e 15       	cp	r16, r14
    1936:	1f 05       	cpc	r17, r15
    1938:	08 f4       	brcc	.+2      	; 0x193c <_ZN9RfManager10receptSDONE8RfPacket+0x254>
    193a:	06 cf       	rjmp	.-500    	; 0x1748 <_ZN9RfManager10receptSDONE8RfPacket+0x60>
    193c:	26 c0       	rjmp	.+76     	; 0x198a <_ZN9RfManager10receptSDONE8RfPacket+0x2a2>
    193e:	17 82       	std	Z+7, r1	; 0x07
    1940:	f5 01       	movw	r30, r10
    1942:	25 ad       	ldd	r18, Z+61	; 0x3d
    1944:	36 ad       	ldd	r19, Z+62	; 0x3e
    1946:	c9 01       	movw	r24, r18
    1948:	01 97       	sbiw	r24, 0x01	; 1
    194a:	36 95       	lsr	r19
    194c:	27 95       	ror	r18
    194e:	02 17       	cp	r16, r18
    1950:	13 07       	cpc	r17, r19
    1952:	78 f0       	brcs	.+30     	; 0x1972 <_ZN9RfManager10receptSDONE8RfPacket+0x28a>
    1954:	a1 cf       	rjmp	.-190    	; 0x1898 <_ZN9RfManager10receptSDONE8RfPacket+0x1b0>
    1956:	12 86       	std	Z+10, r1	; 0x0a
    1958:	d5 01       	movw	r26, r10
    195a:	dd 96       	adiw	r26, 0x3d	; 61
    195c:	2d 91       	ld	r18, X+
    195e:	3c 91       	ld	r19, X
    1960:	de 97       	sbiw	r26, 0x3e	; 62
    1962:	c9 01       	movw	r24, r18
    1964:	01 97       	sbiw	r24, 0x01	; 1
    1966:	36 95       	lsr	r19
    1968:	27 95       	ror	r18
    196a:	02 17       	cp	r16, r18
    196c:	13 07       	cpc	r17, r19
    196e:	38 f0       	brcs	.+14     	; 0x197e <_ZN9RfManager10receptSDONE8RfPacket+0x296>
    1970:	cc cf       	rjmp	.-104    	; 0x190a <_ZN9RfManager10receptSDONE8RfPacket+0x222>
    1972:	f5 01       	movw	r30, r10
    1974:	ff 96       	adiw	r30, 0x3f	; 63
    1976:	01 90       	ld	r0, Z+
    1978:	f0 81       	ld	r31, Z
    197a:	e0 2d       	mov	r30, r0
    197c:	ec cf       	rjmp	.-40     	; 0x1956 <_ZN9RfManager10receptSDONE8RfPacket+0x26e>
    197e:	f5 01       	movw	r30, r10
    1980:	ff 96       	adiw	r30, 0x3f	; 63
    1982:	01 90       	ld	r0, Z+
    1984:	f0 81       	ld	r31, Z
    1986:	e0 2d       	mov	r30, r0
    1988:	d0 cf       	rjmp	.-96     	; 0x192a <_ZN9RfManager10receptSDONE8RfPacket+0x242>
    198a:	df 91       	pop	r29
    198c:	cf 91       	pop	r28
    198e:	1f 91       	pop	r17
    1990:	0f 91       	pop	r16
    1992:	ff 90       	pop	r15
    1994:	ef 90       	pop	r14
    1996:	df 90       	pop	r13
    1998:	cf 90       	pop	r12
    199a:	bf 90       	pop	r11
    199c:	af 90       	pop	r10
    199e:	9f 90       	pop	r9
    19a0:	8f 90       	pop	r8
    19a2:	7f 90       	pop	r7
    19a4:	6f 90       	pop	r6
    19a6:	5f 90       	pop	r5
    19a8:	08 95       	ret

000019aa <_ZN9RfManager10receptDROPE8RfPacket>:
    19aa:	5f 92       	push	r5
    19ac:	6f 92       	push	r6
    19ae:	7f 92       	push	r7
    19b0:	8f 92       	push	r8
    19b2:	9f 92       	push	r9
    19b4:	af 92       	push	r10
    19b6:	bf 92       	push	r11
    19b8:	cf 92       	push	r12
    19ba:	df 92       	push	r13
    19bc:	ef 92       	push	r14
    19be:	ff 92       	push	r15
    19c0:	0f 93       	push	r16
    19c2:	1f 93       	push	r17
    19c4:	cf 93       	push	r28
    19c6:	df 93       	push	r29
    19c8:	cd b7       	in	r28, 0x3d	; 61
    19ca:	de b7       	in	r29, 0x3e	; 62
    19cc:	6c 01       	movw	r12, r24
    19ce:	dc 01       	movw	r26, r24
    19d0:	dd 96       	adiw	r26, 0x3d	; 61
    19d2:	8d 91       	ld	r24, X+
    19d4:	9c 91       	ld	r25, X
    19d6:	de 97       	sbiw	r26, 0x3e	; 62
    19d8:	89 2b       	or	r24, r25
    19da:	09 f4       	brne	.+2      	; 0x19de <_ZN9RfManager10receptDROPE8RfPacket+0x34>
    19dc:	09 c1       	rjmp	.+530    	; 0x1bf0 <_ZN9RfManager10receptDROPE8RfPacket+0x246>
    19de:	00 e0       	ldi	r16, 0x00	; 0
    19e0:	10 e0       	ldi	r17, 0x00	; 0
    19e2:	51 2c       	mov	r5, r1
    19e4:	46 01       	movw	r8, r12
    19e6:	b1 e4       	ldi	r27, 0x41	; 65
    19e8:	8b 0e       	add	r8, r27
    19ea:	91 1c       	adc	r9, r1
    19ec:	36 01       	movw	r6, r12
    19ee:	ef e3       	ldi	r30, 0x3F	; 63
    19f0:	6e 0e       	add	r6, r30
    19f2:	71 1c       	adc	r7, r1
    19f4:	c6 01       	movw	r24, r12
    19f6:	0e 94 17 05 	call	0xa2e	; 0xa2e <_ZNK9ControlRf10getAddrLenEv>
    19fa:	48 2f       	mov	r20, r24
    19fc:	50 e0       	ldi	r21, 0x00	; 0
    19fe:	d6 01       	movw	r26, r12
    1a00:	dd 96       	adiw	r26, 0x3d	; 61
    1a02:	ed 90       	ld	r14, X+
    1a04:	fc 90       	ld	r15, X
    1a06:	de 97       	sbiw	r26, 0x3e	; 62
    1a08:	57 01       	movw	r10, r14
    1a0a:	b1 e0       	ldi	r27, 0x01	; 1
    1a0c:	ab 1a       	sub	r10, r27
    1a0e:	b1 08       	sbc	r11, r1
    1a10:	a0 16       	cp	r10, r16
    1a12:	b1 06       	cpc	r11, r17
    1a14:	20 f4       	brcc	.+8      	; 0x1a1e <_ZN9RfManager10receptDROPE8RfPacket+0x74>
    1a16:	f4 01       	movw	r30, r8
    1a18:	60 81       	ld	r22, Z
    1a1a:	71 81       	ldd	r23, Z+1	; 0x01
    1a1c:	31 c0       	rjmp	.+98     	; 0x1a80 <_ZN9RfManager10receptDROPE8RfPacket+0xd6>
    1a1e:	c7 01       	movw	r24, r14
    1a20:	96 95       	lsr	r25
    1a22:	87 95       	ror	r24
    1a24:	08 17       	cp	r16, r24
    1a26:	19 07       	cpc	r17, r25
    1a28:	88 f4       	brcc	.+34     	; 0x1a4c <_ZN9RfManager10receptDROPE8RfPacket+0xa2>
    1a2a:	d3 01       	movw	r26, r6
    1a2c:	ed 91       	ld	r30, X+
    1a2e:	fc 91       	ld	r31, X
    1a30:	01 15       	cp	r16, r1
    1a32:	11 05       	cpc	r17, r1
    1a34:	e9 f0       	breq	.+58     	; 0x1a70 <_ZN9RfManager10receptDROPE8RfPacket+0xc6>
    1a36:	20 e0       	ldi	r18, 0x00	; 0
    1a38:	30 e0       	ldi	r19, 0x00	; 0
    1a3a:	04 84       	ldd	r0, Z+12	; 0x0c
    1a3c:	f5 85       	ldd	r31, Z+13	; 0x0d
    1a3e:	e0 2d       	mov	r30, r0
    1a40:	2f 5f       	subi	r18, 0xFF	; 255
    1a42:	3f 4f       	sbci	r19, 0xFF	; 255
    1a44:	20 17       	cp	r18, r16
    1a46:	31 07       	cpc	r19, r17
    1a48:	c1 f7       	brne	.-16     	; 0x1a3a <_ZN9RfManager10receptDROPE8RfPacket+0x90>
    1a4a:	15 c0       	rjmp	.+42     	; 0x1a76 <_ZN9RfManager10receptDROPE8RfPacket+0xcc>
    1a4c:	d4 01       	movw	r26, r8
    1a4e:	ed 91       	ld	r30, X+
    1a50:	fc 91       	ld	r31, X
    1a52:	0a 15       	cp	r16, r10
    1a54:	1b 05       	cpc	r17, r11
    1a56:	90 f4       	brcc	.+36     	; 0x1a7c <_ZN9RfManager10receptDROPE8RfPacket+0xd2>
    1a58:	95 01       	movw	r18, r10
    1a5a:	06 84       	ldd	r0, Z+14	; 0x0e
    1a5c:	f7 85       	ldd	r31, Z+15	; 0x0f
    1a5e:	e0 2d       	mov	r30, r0
    1a60:	21 50       	subi	r18, 0x01	; 1
    1a62:	31 09       	sbc	r19, r1
    1a64:	20 17       	cp	r18, r16
    1a66:	31 07       	cpc	r19, r17
    1a68:	c1 f7       	brne	.-16     	; 0x1a5a <_ZN9RfManager10receptDROPE8RfPacket+0xb0>
    1a6a:	6e 2f       	mov	r22, r30
    1a6c:	7f 2f       	mov	r23, r31
    1a6e:	08 c0       	rjmp	.+16     	; 0x1a80 <_ZN9RfManager10receptDROPE8RfPacket+0xd6>
    1a70:	6e 2f       	mov	r22, r30
    1a72:	7f 2f       	mov	r23, r31
    1a74:	05 c0       	rjmp	.+10     	; 0x1a80 <_ZN9RfManager10receptDROPE8RfPacket+0xd6>
    1a76:	6e 2f       	mov	r22, r30
    1a78:	7f 2f       	mov	r23, r31
    1a7a:	02 c0       	rjmp	.+4      	; 0x1a80 <_ZN9RfManager10receptDROPE8RfPacket+0xd6>
    1a7c:	6e 2f       	mov	r22, r30
    1a7e:	7f 2f       	mov	r23, r31
    1a80:	ce 01       	movw	r24, r28
    1a82:	42 96       	adiw	r24, 0x12	; 18
    1a84:	0e 94 39 2b 	call	0x5672	; 0x5672 <strncmp>
    1a88:	89 2b       	or	r24, r25
    1a8a:	09 f0       	breq	.+2      	; 0x1a8e <_ZN9RfManager10receptDROPE8RfPacket+0xe4>
    1a8c:	aa c0       	rjmp	.+340    	; 0x1be2 <_ZN9RfManager10receptDROPE8RfPacket+0x238>
    1a8e:	a0 16       	cp	r10, r16
    1a90:	b1 06       	cpc	r11, r17
    1a92:	80 f4       	brcc	.+32     	; 0x1ab4 <_ZN9RfManager10receptDROPE8RfPacket+0x10a>
    1a94:	f6 01       	movw	r30, r12
    1a96:	ef 5b       	subi	r30, 0xBF	; 191
    1a98:	ff 4f       	sbci	r31, 0xFF	; 255
    1a9a:	01 90       	ld	r0, Z+
    1a9c:	f0 81       	ld	r31, Z
    1a9e:	e0 2d       	mov	r30, r0
    1aa0:	86 81       	ldd	r24, Z+6	; 0x06
    1aa2:	d6 01       	movw	r26, r12
    1aa4:	a8 0f       	add	r26, r24
    1aa6:	b1 1d       	adc	r27, r1
    1aa8:	ab 5b       	subi	r26, 0xBB	; 187
    1aaa:	bf 4f       	sbci	r27, 0xFF	; 255
    1aac:	8c 91       	ld	r24, X
    1aae:	81 50       	subi	r24, 0x01	; 1
    1ab0:	8c 93       	st	X, r24
    1ab2:	45 c0       	rjmp	.+138    	; 0x1b3e <_ZN9RfManager10receptDROPE8RfPacket+0x194>
    1ab4:	f6 94       	lsr	r15
    1ab6:	e7 94       	ror	r14
    1ab8:	0e 15       	cp	r16, r14
    1aba:	1f 05       	cpc	r17, r15
    1abc:	98 f4       	brcc	.+38     	; 0x1ae4 <_ZN9RfManager10receptDROPE8RfPacket+0x13a>
    1abe:	f6 01       	movw	r30, r12
    1ac0:	ff 96       	adiw	r30, 0x3f	; 63
    1ac2:	01 90       	ld	r0, Z+
    1ac4:	f0 81       	ld	r31, Z
    1ac6:	e0 2d       	mov	r30, r0
    1ac8:	01 15       	cp	r16, r1
    1aca:	11 05       	cpc	r17, r1
    1acc:	09 f4       	brne	.+2      	; 0x1ad0 <_ZN9RfManager10receptDROPE8RfPacket+0x126>
    1ace:	cf c0       	rjmp	.+414    	; 0x1c6e <_ZN9RfManager10receptDROPE8RfPacket+0x2c4>
    1ad0:	80 e0       	ldi	r24, 0x00	; 0
    1ad2:	90 e0       	ldi	r25, 0x00	; 0
    1ad4:	04 84       	ldd	r0, Z+12	; 0x0c
    1ad6:	f5 85       	ldd	r31, Z+13	; 0x0d
    1ad8:	e0 2d       	mov	r30, r0
    1ada:	01 96       	adiw	r24, 0x01	; 1
    1adc:	80 17       	cp	r24, r16
    1ade:	91 07       	cpc	r25, r17
    1ae0:	c9 f7       	brne	.-14     	; 0x1ad4 <_ZN9RfManager10receptDROPE8RfPacket+0x12a>
    1ae2:	97 c0       	rjmp	.+302    	; 0x1c12 <_ZN9RfManager10receptDROPE8RfPacket+0x268>
    1ae4:	f6 01       	movw	r30, r12
    1ae6:	ef 5b       	subi	r30, 0xBF	; 191
    1ae8:	ff 4f       	sbci	r31, 0xFF	; 255
    1aea:	01 90       	ld	r0, Z+
    1aec:	f0 81       	ld	r31, Z
    1aee:	e0 2d       	mov	r30, r0
    1af0:	0a 15       	cp	r16, r10
    1af2:	1b 05       	cpc	r17, r11
    1af4:	08 f0       	brcs	.+2      	; 0x1af8 <_ZN9RfManager10receptDROPE8RfPacket+0x14e>
    1af6:	ab c0       	rjmp	.+342    	; 0x1c4e <_ZN9RfManager10receptDROPE8RfPacket+0x2a4>
    1af8:	c5 01       	movw	r24, r10
    1afa:	06 84       	ldd	r0, Z+14	; 0x0e
    1afc:	f7 85       	ldd	r31, Z+15	; 0x0f
    1afe:	e0 2d       	mov	r30, r0
    1b00:	01 97       	sbiw	r24, 0x01	; 1
    1b02:	80 17       	cp	r24, r16
    1b04:	91 07       	cpc	r25, r17
    1b06:	c9 f7       	brne	.-14     	; 0x1afa <_ZN9RfManager10receptDROPE8RfPacket+0x150>
    1b08:	98 c0       	rjmp	.+304    	; 0x1c3a <_ZN9RfManager10receptDROPE8RfPacket+0x290>
    1b0a:	04 84       	ldd	r0, Z+12	; 0x0c
    1b0c:	f5 85       	ldd	r31, Z+13	; 0x0d
    1b0e:	e0 2d       	mov	r30, r0
    1b10:	01 96       	adiw	r24, 0x01	; 1
    1b12:	80 17       	cp	r24, r16
    1b14:	91 07       	cpc	r25, r17
    1b16:	c9 f7       	brne	.-14     	; 0x1b0a <_ZN9RfManager10receptDROPE8RfPacket+0x160>
    1b18:	12 c0       	rjmp	.+36     	; 0x1b3e <_ZN9RfManager10receptDROPE8RfPacket+0x194>
    1b1a:	f6 01       	movw	r30, r12
    1b1c:	ef 5b       	subi	r30, 0xBF	; 191
    1b1e:	ff 4f       	sbci	r31, 0xFF	; 255
    1b20:	01 90       	ld	r0, Z+
    1b22:	f0 81       	ld	r31, Z
    1b24:	e0 2d       	mov	r30, r0
    1b26:	0a 15       	cp	r16, r10
    1b28:	1b 05       	cpc	r17, r11
    1b2a:	48 f4       	brcc	.+18     	; 0x1b3e <_ZN9RfManager10receptDROPE8RfPacket+0x194>
    1b2c:	06 84       	ldd	r0, Z+14	; 0x0e
    1b2e:	f7 85       	ldd	r31, Z+15	; 0x0f
    1b30:	e0 2d       	mov	r30, r0
    1b32:	b1 e0       	ldi	r27, 0x01	; 1
    1b34:	ab 1a       	sub	r10, r27
    1b36:	b1 08       	sbc	r11, r1
    1b38:	a0 16       	cp	r10, r16
    1b3a:	b1 06       	cpc	r11, r17
    1b3c:	b9 f7       	brne	.-18     	; 0x1b2c <_ZN9RfManager10receptDROPE8RfPacket+0x182>
    1b3e:	84 85       	ldd	r24, Z+12	; 0x0c
    1b40:	95 85       	ldd	r25, Z+13	; 0x0d
    1b42:	00 97       	sbiw	r24, 0x00	; 0
    1b44:	71 f4       	brne	.+28     	; 0x1b62 <_ZN9RfManager10receptDROPE8RfPacket+0x1b8>
    1b46:	a6 85       	ldd	r26, Z+14	; 0x0e
    1b48:	b7 85       	ldd	r27, Z+15	; 0x0f
    1b4a:	1d 96       	adiw	r26, 0x0d	; 13
    1b4c:	1c 92       	st	X, r1
    1b4e:	1e 92       	st	-X, r1
    1b50:	1c 97       	sbiw	r26, 0x0c	; 12
    1b52:	86 85       	ldd	r24, Z+14	; 0x0e
    1b54:	97 85       	ldd	r25, Z+15	; 0x0f
    1b56:	d6 01       	movw	r26, r12
    1b58:	af 5b       	subi	r26, 0xBF	; 191
    1b5a:	bf 4f       	sbci	r27, 0xFF	; 255
    1b5c:	8d 93       	st	X+, r24
    1b5e:	9c 93       	st	X, r25
    1b60:	0d c0       	rjmp	.+26     	; 0x1b7c <_ZN9RfManager10receptDROPE8RfPacket+0x1d2>
    1b62:	d6 01       	movw	r26, r12
    1b64:	df 96       	adiw	r26, 0x3f	; 63
    1b66:	2d 91       	ld	r18, X+
    1b68:	3c 91       	ld	r19, X
    1b6a:	e2 17       	cp	r30, r18
    1b6c:	f3 07       	cpc	r31, r19
    1b6e:	31 f0       	breq	.+12     	; 0x1b7c <_ZN9RfManager10receptDROPE8RfPacket+0x1d2>
    1b70:	a6 85       	ldd	r26, Z+14	; 0x0e
    1b72:	b7 85       	ldd	r27, Z+15	; 0x0f
    1b74:	1d 96       	adiw	r26, 0x0d	; 13
    1b76:	9c 93       	st	X, r25
    1b78:	8e 93       	st	-X, r24
    1b7a:	1c 97       	sbiw	r26, 0x0c	; 12
    1b7c:	86 85       	ldd	r24, Z+14	; 0x0e
    1b7e:	97 85       	ldd	r25, Z+15	; 0x0f
    1b80:	00 97       	sbiw	r24, 0x00	; 0
    1b82:	69 f4       	brne	.+26     	; 0x1b9e <_ZN9RfManager10receptDROPE8RfPacket+0x1f4>
    1b84:	a4 85       	ldd	r26, Z+12	; 0x0c
    1b86:	b5 85       	ldd	r27, Z+13	; 0x0d
    1b88:	1f 96       	adiw	r26, 0x0f	; 15
    1b8a:	1c 92       	st	X, r1
    1b8c:	1e 92       	st	-X, r1
    1b8e:	1e 97       	sbiw	r26, 0x0e	; 14
    1b90:	84 85       	ldd	r24, Z+12	; 0x0c
    1b92:	95 85       	ldd	r25, Z+13	; 0x0d
    1b94:	d6 01       	movw	r26, r12
    1b96:	df 96       	adiw	r26, 0x3f	; 63
    1b98:	8d 93       	st	X+, r24
    1b9a:	9c 93       	st	X, r25
    1b9c:	0e c0       	rjmp	.+28     	; 0x1bba <_ZN9RfManager10receptDROPE8RfPacket+0x210>
    1b9e:	d6 01       	movw	r26, r12
    1ba0:	af 5b       	subi	r26, 0xBF	; 191
    1ba2:	bf 4f       	sbci	r27, 0xFF	; 255
    1ba4:	2d 91       	ld	r18, X+
    1ba6:	3c 91       	ld	r19, X
    1ba8:	2e 17       	cp	r18, r30
    1baa:	3f 07       	cpc	r19, r31
    1bac:	31 f0       	breq	.+12     	; 0x1bba <_ZN9RfManager10receptDROPE8RfPacket+0x210>
    1bae:	a4 85       	ldd	r26, Z+12	; 0x0c
    1bb0:	b5 85       	ldd	r27, Z+13	; 0x0d
    1bb2:	1f 96       	adiw	r26, 0x0f	; 15
    1bb4:	9c 93       	st	X, r25
    1bb6:	8e 93       	st	-X, r24
    1bb8:	1e 97       	sbiw	r26, 0x0e	; 14
    1bba:	30 97       	sbiw	r30, 0x00	; 0
    1bbc:	19 f0       	breq	.+6      	; 0x1bc4 <_ZN9RfManager10receptDROPE8RfPacket+0x21a>
    1bbe:	cf 01       	movw	r24, r30
    1bc0:	0e 94 5c 2a 	call	0x54b8	; 0x54b8 <free>
    1bc4:	f6 01       	movw	r30, r12
    1bc6:	85 ad       	ldd	r24, Z+61	; 0x3d
    1bc8:	96 ad       	ldd	r25, Z+62	; 0x3e
    1bca:	01 97       	sbiw	r24, 0x01	; 1
    1bcc:	96 af       	std	Z+62, r25	; 0x3e
    1bce:	85 af       	std	Z+61, r24	; 0x3d
    1bd0:	89 2b       	or	r24, r25
    1bd2:	71 f4       	brne	.+28     	; 0x1bf0 <_ZN9RfManager10receptDROPE8RfPacket+0x246>
    1bd4:	ff 96       	adiw	r30, 0x3f	; 63
    1bd6:	11 82       	std	Z+1, r1	; 0x01
    1bd8:	10 82       	st	Z, r1
    1bda:	32 96       	adiw	r30, 0x02	; 2
    1bdc:	11 82       	std	Z+1, r1	; 0x01
    1bde:	10 82       	st	Z, r1
    1be0:	07 c0       	rjmp	.+14     	; 0x1bf0 <_ZN9RfManager10receptDROPE8RfPacket+0x246>
    1be2:	53 94       	inc	r5
    1be4:	05 2d       	mov	r16, r5
    1be6:	10 e0       	ldi	r17, 0x00	; 0
    1be8:	0e 15       	cp	r16, r14
    1bea:	1f 05       	cpc	r17, r15
    1bec:	08 f4       	brcc	.+2      	; 0x1bf0 <_ZN9RfManager10receptDROPE8RfPacket+0x246>
    1bee:	02 cf       	rjmp	.-508    	; 0x19f4 <_ZN9RfManager10receptDROPE8RfPacket+0x4a>
    1bf0:	f6 01       	movw	r30, r12
    1bf2:	e9 5a       	subi	r30, 0xA9	; 169
    1bf4:	ff 4f       	sbci	r31, 0xFF	; 255
    1bf6:	be 01       	movw	r22, r28
    1bf8:	6e 5e       	subi	r22, 0xEE	; 238
    1bfa:	7f 4f       	sbci	r23, 0xFF	; 255
    1bfc:	80 81       	ld	r24, Z
    1bfe:	91 81       	ldd	r25, Z+1	; 0x01
    1c00:	0e 94 eb 24 	call	0x49d6	; 0x49d6 <_ZN13SerialManager10dropDeviceEPc>
    1c04:	41 c0       	rjmp	.+130    	; 0x1c88 <_ZN9RfManager10receptDROPE8RfPacket+0x2de>
    1c06:	84 85       	ldd	r24, Z+12	; 0x0c
    1c08:	95 85       	ldd	r25, Z+13	; 0x0d
    1c0a:	89 2b       	or	r24, r25
    1c0c:	09 f4       	brne	.+2      	; 0x1c10 <_ZN9RfManager10receptDROPE8RfPacket+0x266>
    1c0e:	9b cf       	rjmp	.-202    	; 0x1b46 <_ZN9RfManager10receptDROPE8RfPacket+0x19c>
    1c10:	b5 cf       	rjmp	.-150    	; 0x1b7c <_ZN9RfManager10receptDROPE8RfPacket+0x1d2>
    1c12:	86 81       	ldd	r24, Z+6	; 0x06
    1c14:	f6 01       	movw	r30, r12
    1c16:	e8 0f       	add	r30, r24
    1c18:	f1 1d       	adc	r31, r1
    1c1a:	eb 5b       	subi	r30, 0xBB	; 187
    1c1c:	ff 4f       	sbci	r31, 0xFF	; 255
    1c1e:	80 81       	ld	r24, Z
    1c20:	81 50       	subi	r24, 0x01	; 1
    1c22:	80 83       	st	Z, r24
    1c24:	f6 01       	movw	r30, r12
    1c26:	ff 96       	adiw	r30, 0x3f	; 63
    1c28:	01 90       	ld	r0, Z+
    1c2a:	f0 81       	ld	r31, Z
    1c2c:	e0 2d       	mov	r30, r0
    1c2e:	01 15       	cp	r16, r1
    1c30:	11 05       	cpc	r17, r1
    1c32:	49 f3       	breq	.-46     	; 0x1c06 <_ZN9RfManager10receptDROPE8RfPacket+0x25c>
    1c34:	80 e0       	ldi	r24, 0x00	; 0
    1c36:	90 e0       	ldi	r25, 0x00	; 0
    1c38:	68 cf       	rjmp	.-304    	; 0x1b0a <_ZN9RfManager10receptDROPE8RfPacket+0x160>
    1c3a:	86 81       	ldd	r24, Z+6	; 0x06
    1c3c:	f6 01       	movw	r30, r12
    1c3e:	e8 0f       	add	r30, r24
    1c40:	f1 1d       	adc	r31, r1
    1c42:	eb 5b       	subi	r30, 0xBB	; 187
    1c44:	ff 4f       	sbci	r31, 0xFF	; 255
    1c46:	80 81       	ld	r24, Z
    1c48:	81 50       	subi	r24, 0x01	; 1
    1c4a:	80 83       	st	Z, r24
    1c4c:	66 cf       	rjmp	.-308    	; 0x1b1a <_ZN9RfManager10receptDROPE8RfPacket+0x170>
    1c4e:	86 81       	ldd	r24, Z+6	; 0x06
    1c50:	f6 01       	movw	r30, r12
    1c52:	e8 0f       	add	r30, r24
    1c54:	f1 1d       	adc	r31, r1
    1c56:	eb 5b       	subi	r30, 0xBB	; 187
    1c58:	ff 4f       	sbci	r31, 0xFF	; 255
    1c5a:	80 81       	ld	r24, Z
    1c5c:	81 50       	subi	r24, 0x01	; 1
    1c5e:	80 83       	st	Z, r24
    1c60:	5c cf       	rjmp	.-328    	; 0x1b1a <_ZN9RfManager10receptDROPE8RfPacket+0x170>
    1c62:	f6 01       	movw	r30, r12
    1c64:	ff 96       	adiw	r30, 0x3f	; 63
    1c66:	01 90       	ld	r0, Z+
    1c68:	f0 81       	ld	r31, Z
    1c6a:	e0 2d       	mov	r30, r0
    1c6c:	cc cf       	rjmp	.-104    	; 0x1c06 <_ZN9RfManager10receptDROPE8RfPacket+0x25c>
    1c6e:	86 81       	ldd	r24, Z+6	; 0x06
    1c70:	f6 01       	movw	r30, r12
    1c72:	e8 0f       	add	r30, r24
    1c74:	f1 1d       	adc	r31, r1
    1c76:	eb 5b       	subi	r30, 0xBB	; 187
    1c78:	ff 4f       	sbci	r31, 0xFF	; 255
    1c7a:	80 81       	ld	r24, Z
    1c7c:	81 50       	subi	r24, 0x01	; 1
    1c7e:	80 83       	st	Z, r24
    1c80:	0e 15       	cp	r16, r14
    1c82:	1f 05       	cpc	r17, r15
    1c84:	70 f3       	brcs	.-36     	; 0x1c62 <_ZN9RfManager10receptDROPE8RfPacket+0x2b8>
    1c86:	49 cf       	rjmp	.-366    	; 0x1b1a <_ZN9RfManager10receptDROPE8RfPacket+0x170>
    1c88:	df 91       	pop	r29
    1c8a:	cf 91       	pop	r28
    1c8c:	1f 91       	pop	r17
    1c8e:	0f 91       	pop	r16
    1c90:	ff 90       	pop	r15
    1c92:	ef 90       	pop	r14
    1c94:	df 90       	pop	r13
    1c96:	cf 90       	pop	r12
    1c98:	bf 90       	pop	r11
    1c9a:	af 90       	pop	r10
    1c9c:	9f 90       	pop	r9
    1c9e:	8f 90       	pop	r8
    1ca0:	7f 90       	pop	r7
    1ca2:	6f 90       	pop	r6
    1ca4:	5f 90       	pop	r5
    1ca6:	08 95       	ret

00001ca8 <_ZN9RfManager8sendPINGEPc>:
    1ca8:	4f 92       	push	r4
    1caa:	5f 92       	push	r5
    1cac:	6f 92       	push	r6
    1cae:	7f 92       	push	r7
    1cb0:	8f 92       	push	r8
    1cb2:	9f 92       	push	r9
    1cb4:	af 92       	push	r10
    1cb6:	bf 92       	push	r11
    1cb8:	cf 92       	push	r12
    1cba:	df 92       	push	r13
    1cbc:	ef 92       	push	r14
    1cbe:	ff 92       	push	r15
    1cc0:	0f 93       	push	r16
    1cc2:	1f 93       	push	r17
    1cc4:	cf 93       	push	r28
    1cc6:	df 93       	push	r29
    1cc8:	cd b7       	in	r28, 0x3d	; 61
    1cca:	de b7       	in	r29, 0x3e	; 62
    1ccc:	a2 97       	sbiw	r28, 0x22	; 34
    1cce:	0f b6       	in	r0, 0x3f	; 63
    1cd0:	f8 94       	cli
    1cd2:	de bf       	out	0x3e, r29	; 62
    1cd4:	0f be       	out	0x3f, r0	; 63
    1cd6:	cd bf       	out	0x3d, r28	; 61
    1cd8:	7c 01       	movw	r14, r24
    1cda:	6b 01       	movw	r12, r22
    1cdc:	68 2e       	mov	r6, r24
    1cde:	5f 2c       	mov	r5, r15
    1ce0:	0e 94 17 05 	call	0xa2e	; 0xa2e <_ZNK9ControlRf10getAddrLenEv>
    1ce4:	48 2f       	mov	r20, r24
    1ce6:	50 e0       	ldi	r21, 0x00	; 0
    1ce8:	b6 01       	movw	r22, r12
    1cea:	ce 01       	movw	r24, r28
    1cec:	07 96       	adiw	r24, 0x07	; 7
    1cee:	0e 94 03 2b 	call	0x5606	; 0x5606 <memcpy>
    1cf2:	d6 01       	movw	r26, r12
    1cf4:	8c 91       	ld	r24, X
    1cf6:	89 83       	std	Y+1, r24	; 0x01
    1cf8:	11 96       	adiw	r26, 0x01	; 1
    1cfa:	8c 91       	ld	r24, X
    1cfc:	11 97       	sbiw	r26, 0x01	; 1
    1cfe:	8a 83       	std	Y+2, r24	; 0x02
    1d00:	f7 01       	movw	r30, r14
    1d02:	e5 5b       	subi	r30, 0xB5	; 181
    1d04:	ff 4f       	sbci	r31, 0xFF	; 255
    1d06:	80 81       	ld	r24, Z
    1d08:	8b 83       	std	Y+3, r24	; 0x03
    1d0a:	31 96       	adiw	r30, 0x01	; 1
    1d0c:	80 81       	ld	r24, Z
    1d0e:	8c 83       	std	Y+4, r24	; 0x04
    1d10:	14 96       	adiw	r26, 0x04	; 4
    1d12:	8c 91       	ld	r24, X
    1d14:	8d 83       	std	Y+5, r24	; 0x05
    1d16:	80 e5       	ldi	r24, 0x50	; 80
    1d18:	99 e4       	ldi	r25, 0x49	; 73
    1d1a:	9e 87       	std	Y+14, r25	; 0x0e
    1d1c:	8d 87       	std	Y+13, r24	; 0x0d
    1d1e:	8e e4       	ldi	r24, 0x4E	; 78
    1d20:	97 e4       	ldi	r25, 0x47	; 71
    1d22:	98 8b       	std	Y+16, r25	; 0x10
    1d24:	8f 87       	std	Y+15, r24	; 0x0f
    1d26:	c7 01       	movw	r24, r14
    1d28:	0e 94 17 05 	call	0xa2e	; 0xa2e <_ZNK9ControlRf10getAddrLenEv>
    1d2c:	48 2f       	mov	r20, r24
    1d2e:	50 e0       	ldi	r21, 0x00	; 0
    1d30:	be 01       	movw	r22, r28
    1d32:	6f 5f       	subi	r22, 0xFF	; 255
    1d34:	7f 4f       	sbci	r23, 0xFF	; 255
    1d36:	ce 01       	movw	r24, r28
    1d38:	42 96       	adiw	r24, 0x12	; 18
    1d3a:	0e 94 03 2b 	call	0x5606	; 0x5606 <memcpy>
    1d3e:	c7 01       	movw	r24, r14
    1d40:	0e 94 17 05 	call	0xa2e	; 0xa2e <_ZNK9ControlRf10getAddrLenEv>
    1d44:	e2 e1       	ldi	r30, 0x12	; 18
    1d46:	f0 e0       	ldi	r31, 0x00	; 0
    1d48:	ec 0f       	add	r30, r28
    1d4a:	fd 1f       	adc	r31, r29
    1d4c:	e8 0f       	add	r30, r24
    1d4e:	f1 1d       	adc	r31, r1
    1d50:	80 e3       	ldi	r24, 0x30	; 48
    1d52:	80 83       	st	Z, r24
    1d54:	f7 01       	movw	r30, r14
    1d56:	85 ad       	ldd	r24, Z+61	; 0x3d
    1d58:	96 ad       	ldd	r25, Z+62	; 0x3e
    1d5a:	89 2b       	or	r24, r25
    1d5c:	09 f4       	brne	.+2      	; 0x1d60 <_ZN9RfManager8sendPINGEPc+0xb8>
    1d5e:	6d c0       	rjmp	.+218    	; 0x1e3a <_ZN9RfManager8sendPINGEPc+0x192>
    1d60:	00 e0       	ldi	r16, 0x00	; 0
    1d62:	10 e0       	ldi	r17, 0x00	; 0
    1d64:	71 2c       	mov	r7, r1
    1d66:	57 01       	movw	r10, r14
    1d68:	f1 e4       	ldi	r31, 0x41	; 65
    1d6a:	af 0e       	add	r10, r31
    1d6c:	b1 1c       	adc	r11, r1
    1d6e:	47 01       	movw	r8, r14
    1d70:	2f e3       	ldi	r18, 0x3F	; 63
    1d72:	82 0e       	add	r8, r18
    1d74:	91 1c       	adc	r9, r1
    1d76:	0f 2e       	mov	r0, r31
    1d78:	f1 e3       	ldi	r31, 0x31	; 49
    1d7a:	4f 2e       	mov	r4, r31
    1d7c:	f0 2d       	mov	r31, r0
    1d7e:	86 2d       	mov	r24, r6
    1d80:	95 2d       	mov	r25, r5
    1d82:	0e 94 17 05 	call	0xa2e	; 0xa2e <_ZNK9ControlRf10getAddrLenEv>
    1d86:	48 2f       	mov	r20, r24
    1d88:	50 e0       	ldi	r21, 0x00	; 0
    1d8a:	d7 01       	movw	r26, r14
    1d8c:	dd 96       	adiw	r26, 0x3d	; 61
    1d8e:	8d 91       	ld	r24, X+
    1d90:	9c 91       	ld	r25, X
    1d92:	de 97       	sbiw	r26, 0x3e	; 62
    1d94:	9c 01       	movw	r18, r24
    1d96:	21 50       	subi	r18, 0x01	; 1
    1d98:	31 09       	sbc	r19, r1
    1d9a:	20 17       	cp	r18, r16
    1d9c:	31 07       	cpc	r19, r17
    1d9e:	20 f4       	brcc	.+8      	; 0x1da8 <_ZN9RfManager8sendPINGEPc+0x100>
    1da0:	f5 01       	movw	r30, r10
    1da2:	60 81       	ld	r22, Z
    1da4:	71 81       	ldd	r23, Z+1	; 0x01
    1da6:	2f c0       	rjmp	.+94     	; 0x1e06 <_ZN9RfManager8sendPINGEPc+0x15e>
    1da8:	96 95       	lsr	r25
    1daa:	87 95       	ror	r24
    1dac:	08 17       	cp	r16, r24
    1dae:	19 07       	cpc	r17, r25
    1db0:	88 f4       	brcc	.+34     	; 0x1dd4 <_ZN9RfManager8sendPINGEPc+0x12c>
    1db2:	d4 01       	movw	r26, r8
    1db4:	ed 91       	ld	r30, X+
    1db6:	fc 91       	ld	r31, X
    1db8:	01 15       	cp	r16, r1
    1dba:	11 05       	cpc	r17, r1
    1dbc:	e1 f0       	breq	.+56     	; 0x1df6 <_ZN9RfManager8sendPINGEPc+0x14e>
    1dbe:	20 e0       	ldi	r18, 0x00	; 0
    1dc0:	30 e0       	ldi	r19, 0x00	; 0
    1dc2:	04 84       	ldd	r0, Z+12	; 0x0c
    1dc4:	f5 85       	ldd	r31, Z+13	; 0x0d
    1dc6:	e0 2d       	mov	r30, r0
    1dc8:	2f 5f       	subi	r18, 0xFF	; 255
    1dca:	3f 4f       	sbci	r19, 0xFF	; 255
    1dcc:	20 17       	cp	r18, r16
    1dce:	31 07       	cpc	r19, r17
    1dd0:	c1 f7       	brne	.-16     	; 0x1dc2 <_ZN9RfManager8sendPINGEPc+0x11a>
    1dd2:	14 c0       	rjmp	.+40     	; 0x1dfc <_ZN9RfManager8sendPINGEPc+0x154>
    1dd4:	d5 01       	movw	r26, r10
    1dd6:	ed 91       	ld	r30, X+
    1dd8:	fc 91       	ld	r31, X
    1dda:	02 17       	cp	r16, r18
    1ddc:	13 07       	cpc	r17, r19
    1dde:	88 f4       	brcc	.+34     	; 0x1e02 <_ZN9RfManager8sendPINGEPc+0x15a>
    1de0:	06 84       	ldd	r0, Z+14	; 0x0e
    1de2:	f7 85       	ldd	r31, Z+15	; 0x0f
    1de4:	e0 2d       	mov	r30, r0
    1de6:	21 50       	subi	r18, 0x01	; 1
    1de8:	31 09       	sbc	r19, r1
    1dea:	20 17       	cp	r18, r16
    1dec:	31 07       	cpc	r19, r17
    1dee:	c1 f7       	brne	.-16     	; 0x1de0 <_ZN9RfManager8sendPINGEPc+0x138>
    1df0:	6e 2f       	mov	r22, r30
    1df2:	7f 2f       	mov	r23, r31
    1df4:	08 c0       	rjmp	.+16     	; 0x1e06 <_ZN9RfManager8sendPINGEPc+0x15e>
    1df6:	6e 2f       	mov	r22, r30
    1df8:	7f 2f       	mov	r23, r31
    1dfa:	05 c0       	rjmp	.+10     	; 0x1e06 <_ZN9RfManager8sendPINGEPc+0x15e>
    1dfc:	6e 2f       	mov	r22, r30
    1dfe:	7f 2f       	mov	r23, r31
    1e00:	02 c0       	rjmp	.+4      	; 0x1e06 <_ZN9RfManager8sendPINGEPc+0x15e>
    1e02:	6e 2f       	mov	r22, r30
    1e04:	7f 2f       	mov	r23, r31
    1e06:	c6 01       	movw	r24, r12
    1e08:	0e 94 39 2b 	call	0x5672	; 0x5672 <strncmp>
    1e0c:	89 2b       	or	r24, r25
    1e0e:	59 f0       	breq	.+22     	; 0x1e26 <_ZN9RfManager8sendPINGEPc+0x17e>
    1e10:	86 2d       	mov	r24, r6
    1e12:	95 2d       	mov	r25, r5
    1e14:	0e 94 17 05 	call	0xa2e	; 0xa2e <_ZNK9ControlRf10getAddrLenEv>
    1e18:	e2 e1       	ldi	r30, 0x12	; 18
    1e1a:	f0 e0       	ldi	r31, 0x00	; 0
    1e1c:	ec 0f       	add	r30, r28
    1e1e:	fd 1f       	adc	r31, r29
    1e20:	e8 0f       	add	r30, r24
    1e22:	f1 1d       	adc	r31, r1
    1e24:	40 82       	st	Z, r4
    1e26:	73 94       	inc	r7
    1e28:	07 2d       	mov	r16, r7
    1e2a:	10 e0       	ldi	r17, 0x00	; 0
    1e2c:	f7 01       	movw	r30, r14
    1e2e:	85 ad       	ldd	r24, Z+61	; 0x3d
    1e30:	96 ad       	ldd	r25, Z+62	; 0x3e
    1e32:	08 17       	cp	r16, r24
    1e34:	19 07       	cpc	r17, r25
    1e36:	08 f4       	brcc	.+2      	; 0x1e3a <_ZN9RfManager8sendPINGEPc+0x192>
    1e38:	a2 cf       	rjmp	.-188    	; 0x1d7e <_ZN9RfManager8sendPINGEPc+0xd6>
    1e3a:	c7 01       	movw	r24, r14
    1e3c:	0e 94 17 05 	call	0xa2e	; 0xa2e <_ZNK9ControlRf10getAddrLenEv>
    1e40:	18 2f       	mov	r17, r24
    1e42:	c7 01       	movw	r24, r14
    1e44:	0e 94 17 05 	call	0xa2e	; 0xa2e <_ZNK9ControlRf10getAddrLenEv>
    1e48:	40 e1       	ldi	r20, 0x10	; 16
    1e4a:	50 e0       	ldi	r21, 0x00	; 0
    1e4c:	41 1b       	sub	r20, r17
    1e4e:	51 09       	sbc	r21, r1
    1e50:	9e 01       	movw	r18, r28
    1e52:	28 0f       	add	r18, r24
    1e54:	31 1d       	adc	r19, r1
    1e56:	c9 01       	movw	r24, r18
    1e58:	63 e2       	ldi	r22, 0x23	; 35
    1e5a:	70 e0       	ldi	r23, 0x00	; 0
    1e5c:	43 96       	adiw	r24, 0x13	; 19
    1e5e:	0e 94 0c 2b 	call	0x5618	; 0x5618 <memset>
    1e62:	8d b7       	in	r24, 0x3d	; 61
    1e64:	9e b7       	in	r25, 0x3e	; 62
    1e66:	82 97       	sbiw	r24, 0x22	; 34
    1e68:	0f b6       	in	r0, 0x3f	; 63
    1e6a:	f8 94       	cli
    1e6c:	9e bf       	out	0x3e, r25	; 62
    1e6e:	0f be       	out	0x3f, r0	; 63
    1e70:	8d bf       	out	0x3d, r24	; 61
    1e72:	ad b7       	in	r26, 0x3d	; 61
    1e74:	be b7       	in	r27, 0x3e	; 62
    1e76:	11 96       	adiw	r26, 0x01	; 1
    1e78:	82 e2       	ldi	r24, 0x22	; 34
    1e7a:	fe 01       	movw	r30, r28
    1e7c:	31 96       	adiw	r30, 0x01	; 1
    1e7e:	01 90       	ld	r0, Z+
    1e80:	0d 92       	st	X+, r0
    1e82:	8a 95       	dec	r24
    1e84:	e1 f7       	brne	.-8      	; 0x1e7e <_ZN9RfManager8sendPINGEPc+0x1d6>
    1e86:	c7 01       	movw	r24, r14
    1e88:	0e 94 d9 09 	call	0x13b2	; 0x13b2 <_ZN9RfManager10sendPacketE8RfPacket>
    1e8c:	0f b6       	in	r0, 0x3f	; 63
    1e8e:	f8 94       	cli
    1e90:	de bf       	out	0x3e, r29	; 62
    1e92:	0f be       	out	0x3f, r0	; 63
    1e94:	cd bf       	out	0x3d, r28	; 61
    1e96:	a2 96       	adiw	r28, 0x22	; 34
    1e98:	0f b6       	in	r0, 0x3f	; 63
    1e9a:	f8 94       	cli
    1e9c:	de bf       	out	0x3e, r29	; 62
    1e9e:	0f be       	out	0x3f, r0	; 63
    1ea0:	cd bf       	out	0x3d, r28	; 61
    1ea2:	df 91       	pop	r29
    1ea4:	cf 91       	pop	r28
    1ea6:	1f 91       	pop	r17
    1ea8:	0f 91       	pop	r16
    1eaa:	ff 90       	pop	r15
    1eac:	ef 90       	pop	r14
    1eae:	df 90       	pop	r13
    1eb0:	cf 90       	pop	r12
    1eb2:	bf 90       	pop	r11
    1eb4:	af 90       	pop	r10
    1eb6:	9f 90       	pop	r9
    1eb8:	8f 90       	pop	r8
    1eba:	7f 90       	pop	r7
    1ebc:	6f 90       	pop	r6
    1ebe:	5f 90       	pop	r5
    1ec0:	4f 90       	pop	r4
    1ec2:	08 95       	ret

00001ec4 <_ZN9RfManager8sendPONGEPc>:
    1ec4:	4f 92       	push	r4
    1ec6:	5f 92       	push	r5
    1ec8:	6f 92       	push	r6
    1eca:	7f 92       	push	r7
    1ecc:	8f 92       	push	r8
    1ece:	9f 92       	push	r9
    1ed0:	af 92       	push	r10
    1ed2:	bf 92       	push	r11
    1ed4:	cf 92       	push	r12
    1ed6:	df 92       	push	r13
    1ed8:	ef 92       	push	r14
    1eda:	ff 92       	push	r15
    1edc:	0f 93       	push	r16
    1ede:	1f 93       	push	r17
    1ee0:	cf 93       	push	r28
    1ee2:	df 93       	push	r29
    1ee4:	cd b7       	in	r28, 0x3d	; 61
    1ee6:	de b7       	in	r29, 0x3e	; 62
    1ee8:	a2 97       	sbiw	r28, 0x22	; 34
    1eea:	0f b6       	in	r0, 0x3f	; 63
    1eec:	f8 94       	cli
    1eee:	de bf       	out	0x3e, r29	; 62
    1ef0:	0f be       	out	0x3f, r0	; 63
    1ef2:	cd bf       	out	0x3d, r28	; 61
    1ef4:	7c 01       	movw	r14, r24
    1ef6:	6b 01       	movw	r12, r22
    1ef8:	68 2e       	mov	r6, r24
    1efa:	5f 2c       	mov	r5, r15
    1efc:	0e 94 17 05 	call	0xa2e	; 0xa2e <_ZNK9ControlRf10getAddrLenEv>
    1f00:	48 2f       	mov	r20, r24
    1f02:	50 e0       	ldi	r21, 0x00	; 0
    1f04:	b6 01       	movw	r22, r12
    1f06:	ce 01       	movw	r24, r28
    1f08:	07 96       	adiw	r24, 0x07	; 7
    1f0a:	0e 94 03 2b 	call	0x5606	; 0x5606 <memcpy>
    1f0e:	d6 01       	movw	r26, r12
    1f10:	8c 91       	ld	r24, X
    1f12:	89 83       	std	Y+1, r24	; 0x01
    1f14:	11 96       	adiw	r26, 0x01	; 1
    1f16:	8c 91       	ld	r24, X
    1f18:	11 97       	sbiw	r26, 0x01	; 1
    1f1a:	8a 83       	std	Y+2, r24	; 0x02
    1f1c:	f7 01       	movw	r30, r14
    1f1e:	e5 5b       	subi	r30, 0xB5	; 181
    1f20:	ff 4f       	sbci	r31, 0xFF	; 255
    1f22:	80 81       	ld	r24, Z
    1f24:	8b 83       	std	Y+3, r24	; 0x03
    1f26:	31 96       	adiw	r30, 0x01	; 1
    1f28:	80 81       	ld	r24, Z
    1f2a:	8c 83       	std	Y+4, r24	; 0x04
    1f2c:	14 96       	adiw	r26, 0x04	; 4
    1f2e:	8c 91       	ld	r24, X
    1f30:	8d 83       	std	Y+5, r24	; 0x05
    1f32:	80 e5       	ldi	r24, 0x50	; 80
    1f34:	9f e4       	ldi	r25, 0x4F	; 79
    1f36:	9e 87       	std	Y+14, r25	; 0x0e
    1f38:	8d 87       	std	Y+13, r24	; 0x0d
    1f3a:	8e e4       	ldi	r24, 0x4E	; 78
    1f3c:	97 e4       	ldi	r25, 0x47	; 71
    1f3e:	98 8b       	std	Y+16, r25	; 0x10
    1f40:	8f 87       	std	Y+15, r24	; 0x0f
    1f42:	85 e0       	ldi	r24, 0x05	; 5
    1f44:	fe 01       	movw	r30, r28
    1f46:	31 96       	adiw	r30, 0x01	; 1
    1f48:	de 01       	movw	r26, r28
    1f4a:	52 96       	adiw	r26, 0x12	; 18
    1f4c:	01 90       	ld	r0, Z+
    1f4e:	0d 92       	st	X+, r0
    1f50:	8a 95       	dec	r24
    1f52:	e1 f7       	brne	.-8      	; 0x1f4c <_ZN9RfManager8sendPONGEPc+0x88>
    1f54:	c7 01       	movw	r24, r14
    1f56:	0e 94 17 05 	call	0xa2e	; 0xa2e <_ZNK9ControlRf10getAddrLenEv>
    1f5a:	e2 e1       	ldi	r30, 0x12	; 18
    1f5c:	f0 e0       	ldi	r31, 0x00	; 0
    1f5e:	ec 0f       	add	r30, r28
    1f60:	fd 1f       	adc	r31, r29
    1f62:	e8 0f       	add	r30, r24
    1f64:	f1 1d       	adc	r31, r1
    1f66:	80 e3       	ldi	r24, 0x30	; 48
    1f68:	80 83       	st	Z, r24
    1f6a:	f7 01       	movw	r30, r14
    1f6c:	85 ad       	ldd	r24, Z+61	; 0x3d
    1f6e:	96 ad       	ldd	r25, Z+62	; 0x3e
    1f70:	89 2b       	or	r24, r25
    1f72:	09 f4       	brne	.+2      	; 0x1f76 <_ZN9RfManager8sendPONGEPc+0xb2>
    1f74:	6d c0       	rjmp	.+218    	; 0x2050 <_ZN9RfManager8sendPONGEPc+0x18c>
    1f76:	00 e0       	ldi	r16, 0x00	; 0
    1f78:	10 e0       	ldi	r17, 0x00	; 0
    1f7a:	71 2c       	mov	r7, r1
    1f7c:	57 01       	movw	r10, r14
    1f7e:	f1 e4       	ldi	r31, 0x41	; 65
    1f80:	af 0e       	add	r10, r31
    1f82:	b1 1c       	adc	r11, r1
    1f84:	47 01       	movw	r8, r14
    1f86:	8f e3       	ldi	r24, 0x3F	; 63
    1f88:	88 0e       	add	r8, r24
    1f8a:	91 1c       	adc	r9, r1
    1f8c:	0f 2e       	mov	r0, r31
    1f8e:	f1 e3       	ldi	r31, 0x31	; 49
    1f90:	4f 2e       	mov	r4, r31
    1f92:	f0 2d       	mov	r31, r0
    1f94:	86 2d       	mov	r24, r6
    1f96:	95 2d       	mov	r25, r5
    1f98:	0e 94 17 05 	call	0xa2e	; 0xa2e <_ZNK9ControlRf10getAddrLenEv>
    1f9c:	48 2f       	mov	r20, r24
    1f9e:	50 e0       	ldi	r21, 0x00	; 0
    1fa0:	d7 01       	movw	r26, r14
    1fa2:	dd 96       	adiw	r26, 0x3d	; 61
    1fa4:	8d 91       	ld	r24, X+
    1fa6:	9c 91       	ld	r25, X
    1fa8:	de 97       	sbiw	r26, 0x3e	; 62
    1faa:	9c 01       	movw	r18, r24
    1fac:	21 50       	subi	r18, 0x01	; 1
    1fae:	31 09       	sbc	r19, r1
    1fb0:	20 17       	cp	r18, r16
    1fb2:	31 07       	cpc	r19, r17
    1fb4:	20 f4       	brcc	.+8      	; 0x1fbe <_ZN9RfManager8sendPONGEPc+0xfa>
    1fb6:	f5 01       	movw	r30, r10
    1fb8:	60 81       	ld	r22, Z
    1fba:	71 81       	ldd	r23, Z+1	; 0x01
    1fbc:	2f c0       	rjmp	.+94     	; 0x201c <_ZN9RfManager8sendPONGEPc+0x158>
    1fbe:	96 95       	lsr	r25
    1fc0:	87 95       	ror	r24
    1fc2:	08 17       	cp	r16, r24
    1fc4:	19 07       	cpc	r17, r25
    1fc6:	88 f4       	brcc	.+34     	; 0x1fea <_ZN9RfManager8sendPONGEPc+0x126>
    1fc8:	d4 01       	movw	r26, r8
    1fca:	ed 91       	ld	r30, X+
    1fcc:	fc 91       	ld	r31, X
    1fce:	01 15       	cp	r16, r1
    1fd0:	11 05       	cpc	r17, r1
    1fd2:	e1 f0       	breq	.+56     	; 0x200c <_ZN9RfManager8sendPONGEPc+0x148>
    1fd4:	20 e0       	ldi	r18, 0x00	; 0
    1fd6:	30 e0       	ldi	r19, 0x00	; 0
    1fd8:	04 84       	ldd	r0, Z+12	; 0x0c
    1fda:	f5 85       	ldd	r31, Z+13	; 0x0d
    1fdc:	e0 2d       	mov	r30, r0
    1fde:	2f 5f       	subi	r18, 0xFF	; 255
    1fe0:	3f 4f       	sbci	r19, 0xFF	; 255
    1fe2:	20 17       	cp	r18, r16
    1fe4:	31 07       	cpc	r19, r17
    1fe6:	c1 f7       	brne	.-16     	; 0x1fd8 <_ZN9RfManager8sendPONGEPc+0x114>
    1fe8:	14 c0       	rjmp	.+40     	; 0x2012 <_ZN9RfManager8sendPONGEPc+0x14e>
    1fea:	d5 01       	movw	r26, r10
    1fec:	ed 91       	ld	r30, X+
    1fee:	fc 91       	ld	r31, X
    1ff0:	02 17       	cp	r16, r18
    1ff2:	13 07       	cpc	r17, r19
    1ff4:	88 f4       	brcc	.+34     	; 0x2018 <_ZN9RfManager8sendPONGEPc+0x154>
    1ff6:	06 84       	ldd	r0, Z+14	; 0x0e
    1ff8:	f7 85       	ldd	r31, Z+15	; 0x0f
    1ffa:	e0 2d       	mov	r30, r0
    1ffc:	21 50       	subi	r18, 0x01	; 1
    1ffe:	31 09       	sbc	r19, r1
    2000:	20 17       	cp	r18, r16
    2002:	31 07       	cpc	r19, r17
    2004:	c1 f7       	brne	.-16     	; 0x1ff6 <_ZN9RfManager8sendPONGEPc+0x132>
    2006:	6e 2f       	mov	r22, r30
    2008:	7f 2f       	mov	r23, r31
    200a:	08 c0       	rjmp	.+16     	; 0x201c <_ZN9RfManager8sendPONGEPc+0x158>
    200c:	6e 2f       	mov	r22, r30
    200e:	7f 2f       	mov	r23, r31
    2010:	05 c0       	rjmp	.+10     	; 0x201c <_ZN9RfManager8sendPONGEPc+0x158>
    2012:	6e 2f       	mov	r22, r30
    2014:	7f 2f       	mov	r23, r31
    2016:	02 c0       	rjmp	.+4      	; 0x201c <_ZN9RfManager8sendPONGEPc+0x158>
    2018:	6e 2f       	mov	r22, r30
    201a:	7f 2f       	mov	r23, r31
    201c:	c6 01       	movw	r24, r12
    201e:	0e 94 39 2b 	call	0x5672	; 0x5672 <strncmp>
    2022:	89 2b       	or	r24, r25
    2024:	59 f0       	breq	.+22     	; 0x203c <_ZN9RfManager8sendPONGEPc+0x178>
    2026:	86 2d       	mov	r24, r6
    2028:	95 2d       	mov	r25, r5
    202a:	0e 94 17 05 	call	0xa2e	; 0xa2e <_ZNK9ControlRf10getAddrLenEv>
    202e:	e2 e1       	ldi	r30, 0x12	; 18
    2030:	f0 e0       	ldi	r31, 0x00	; 0
    2032:	ec 0f       	add	r30, r28
    2034:	fd 1f       	adc	r31, r29
    2036:	e8 0f       	add	r30, r24
    2038:	f1 1d       	adc	r31, r1
    203a:	40 82       	st	Z, r4
    203c:	73 94       	inc	r7
    203e:	07 2d       	mov	r16, r7
    2040:	10 e0       	ldi	r17, 0x00	; 0
    2042:	f7 01       	movw	r30, r14
    2044:	85 ad       	ldd	r24, Z+61	; 0x3d
    2046:	96 ad       	ldd	r25, Z+62	; 0x3e
    2048:	08 17       	cp	r16, r24
    204a:	19 07       	cpc	r17, r25
    204c:	08 f4       	brcc	.+2      	; 0x2050 <_ZN9RfManager8sendPONGEPc+0x18c>
    204e:	a2 cf       	rjmp	.-188    	; 0x1f94 <_ZN9RfManager8sendPONGEPc+0xd0>
    2050:	c7 01       	movw	r24, r14
    2052:	0e 94 17 05 	call	0xa2e	; 0xa2e <_ZNK9ControlRf10getAddrLenEv>
    2056:	40 e1       	ldi	r20, 0x10	; 16
    2058:	50 e0       	ldi	r21, 0x00	; 0
    205a:	48 1b       	sub	r20, r24
    205c:	51 09       	sbc	r21, r1
    205e:	63 e2       	ldi	r22, 0x23	; 35
    2060:	70 e0       	ldi	r23, 0x00	; 0
    2062:	ce 01       	movw	r24, r28
    2064:	48 96       	adiw	r24, 0x18	; 24
    2066:	0e 94 0c 2b 	call	0x5618	; 0x5618 <memset>
    206a:	8d b7       	in	r24, 0x3d	; 61
    206c:	9e b7       	in	r25, 0x3e	; 62
    206e:	82 97       	sbiw	r24, 0x22	; 34
    2070:	0f b6       	in	r0, 0x3f	; 63
    2072:	f8 94       	cli
    2074:	9e bf       	out	0x3e, r25	; 62
    2076:	0f be       	out	0x3f, r0	; 63
    2078:	8d bf       	out	0x3d, r24	; 61
    207a:	ad b7       	in	r26, 0x3d	; 61
    207c:	be b7       	in	r27, 0x3e	; 62
    207e:	11 96       	adiw	r26, 0x01	; 1
    2080:	82 e2       	ldi	r24, 0x22	; 34
    2082:	fe 01       	movw	r30, r28
    2084:	31 96       	adiw	r30, 0x01	; 1
    2086:	01 90       	ld	r0, Z+
    2088:	0d 92       	st	X+, r0
    208a:	8a 95       	dec	r24
    208c:	e1 f7       	brne	.-8      	; 0x2086 <_ZN9RfManager8sendPONGEPc+0x1c2>
    208e:	c7 01       	movw	r24, r14
    2090:	0e 94 d9 09 	call	0x13b2	; 0x13b2 <_ZN9RfManager10sendPacketE8RfPacket>
    2094:	0f b6       	in	r0, 0x3f	; 63
    2096:	f8 94       	cli
    2098:	de bf       	out	0x3e, r29	; 62
    209a:	0f be       	out	0x3f, r0	; 63
    209c:	cd bf       	out	0x3d, r28	; 61
    209e:	a2 96       	adiw	r28, 0x22	; 34
    20a0:	0f b6       	in	r0, 0x3f	; 63
    20a2:	f8 94       	cli
    20a4:	de bf       	out	0x3e, r29	; 62
    20a6:	0f be       	out	0x3f, r0	; 63
    20a8:	cd bf       	out	0x3d, r28	; 61
    20aa:	df 91       	pop	r29
    20ac:	cf 91       	pop	r28
    20ae:	1f 91       	pop	r17
    20b0:	0f 91       	pop	r16
    20b2:	ff 90       	pop	r15
    20b4:	ef 90       	pop	r14
    20b6:	df 90       	pop	r13
    20b8:	cf 90       	pop	r12
    20ba:	bf 90       	pop	r11
    20bc:	af 90       	pop	r10
    20be:	9f 90       	pop	r9
    20c0:	8f 90       	pop	r8
    20c2:	7f 90       	pop	r7
    20c4:	6f 90       	pop	r6
    20c6:	5f 90       	pop	r5
    20c8:	4f 90       	pop	r4
    20ca:	08 95       	ret

000020cc <_ZN9RfManager10receptPINGE8RfPacket>:
    20cc:	2f 92       	push	r2
    20ce:	3f 92       	push	r3
    20d0:	4f 92       	push	r4
    20d2:	5f 92       	push	r5
    20d4:	6f 92       	push	r6
    20d6:	7f 92       	push	r7
    20d8:	8f 92       	push	r8
    20da:	9f 92       	push	r9
    20dc:	af 92       	push	r10
    20de:	bf 92       	push	r11
    20e0:	cf 92       	push	r12
    20e2:	df 92       	push	r13
    20e4:	ef 92       	push	r14
    20e6:	ff 92       	push	r15
    20e8:	0f 93       	push	r16
    20ea:	1f 93       	push	r17
    20ec:	cf 93       	push	r28
    20ee:	df 93       	push	r29
    20f0:	1f 92       	push	r1
    20f2:	cd b7       	in	r28, 0x3d	; 61
    20f4:	de b7       	in	r29, 0x3e	; 62
    20f6:	7c 01       	movw	r14, r24
    20f8:	6d b6       	in	r6, 0x3d	; 61
    20fa:	7e b6       	in	r7, 0x3e	; 62
    20fc:	48 2e       	mov	r4, r24
    20fe:	3f 2c       	mov	r3, r15
    2100:	0e 94 17 05 	call	0xa2e	; 0xa2e <_ZNK9ControlRf10getAddrLenEv>
    2104:	48 2f       	mov	r20, r24
    2106:	50 e0       	ldi	r21, 0x00	; 0
    2108:	4f 5f       	subi	r20, 0xFF	; 255
    210a:	5f 4f       	sbci	r21, 0xFF	; 255
    210c:	8d b7       	in	r24, 0x3d	; 61
    210e:	9e b7       	in	r25, 0x3e	; 62
    2110:	84 1b       	sub	r24, r20
    2112:	95 0b       	sbc	r25, r21
    2114:	0f b6       	in	r0, 0x3f	; 63
    2116:	f8 94       	cli
    2118:	9e bf       	out	0x3e, r25	; 62
    211a:	0f be       	out	0x3f, r0	; 63
    211c:	8d bf       	out	0x3d, r24	; 61
    211e:	ad b7       	in	r26, 0x3d	; 61
    2120:	be b7       	in	r27, 0x3e	; 62
    2122:	11 96       	adiw	r26, 0x01	; 1
    2124:	5d 01       	movw	r10, r26
    2126:	a9 83       	std	Y+1, r26	; 0x01
    2128:	2b 2c       	mov	r2, r11
    212a:	6c e0       	ldi	r22, 0x0C	; 12
    212c:	71 e0       	ldi	r23, 0x01	; 1
    212e:	cd 01       	movw	r24, r26
    2130:	0e 94 03 2b 	call	0x5606	; 0x5606 <memcpy>
    2134:	f7 01       	movw	r30, r14
    2136:	85 ad       	ldd	r24, Z+61	; 0x3d
    2138:	96 ad       	ldd	r25, Z+62	; 0x3e
    213a:	89 2b       	or	r24, r25
    213c:	09 f4       	brne	.+2      	; 0x2140 <_ZN9RfManager10receptPINGE8RfPacket+0x74>
    213e:	a8 c0       	rjmp	.+336    	; 0x2290 <_ZN9RfManager10receptPINGE8RfPacket+0x1c4>
    2140:	00 e0       	ldi	r16, 0x00	; 0
    2142:	10 e0       	ldi	r17, 0x00	; 0
    2144:	51 2c       	mov	r5, r1
    2146:	67 01       	movw	r12, r14
    2148:	f1 e4       	ldi	r31, 0x41	; 65
    214a:	cf 0e       	add	r12, r31
    214c:	d1 1c       	adc	r13, r1
    214e:	47 01       	movw	r8, r14
    2150:	8f e3       	ldi	r24, 0x3F	; 63
    2152:	88 0e       	add	r8, r24
    2154:	91 1c       	adc	r9, r1
    2156:	84 2d       	mov	r24, r4
    2158:	93 2d       	mov	r25, r3
    215a:	0e 94 17 05 	call	0xa2e	; 0xa2e <_ZNK9ControlRf10getAddrLenEv>
    215e:	48 2f       	mov	r20, r24
    2160:	50 e0       	ldi	r21, 0x00	; 0
    2162:	d7 01       	movw	r26, r14
    2164:	dd 96       	adiw	r26, 0x3d	; 61
    2166:	8d 91       	ld	r24, X+
    2168:	9c 91       	ld	r25, X
    216a:	de 97       	sbiw	r26, 0x3e	; 62
    216c:	9c 01       	movw	r18, r24
    216e:	21 50       	subi	r18, 0x01	; 1
    2170:	31 09       	sbc	r19, r1
    2172:	20 17       	cp	r18, r16
    2174:	31 07       	cpc	r19, r17
    2176:	20 f4       	brcc	.+8      	; 0x2180 <_ZN9RfManager10receptPINGE8RfPacket+0xb4>
    2178:	f6 01       	movw	r30, r12
    217a:	80 81       	ld	r24, Z
    217c:	91 81       	ldd	r25, Z+1	; 0x01
    217e:	2d c0       	rjmp	.+90     	; 0x21da <_ZN9RfManager10receptPINGE8RfPacket+0x10e>
    2180:	96 95       	lsr	r25
    2182:	87 95       	ror	r24
    2184:	08 17       	cp	r16, r24
    2186:	19 07       	cpc	r17, r25
    2188:	90 f4       	brcc	.+36     	; 0x21ae <_ZN9RfManager10receptPINGE8RfPacket+0xe2>
    218a:	d4 01       	movw	r26, r8
    218c:	ed 91       	ld	r30, X+
    218e:	fc 91       	ld	r31, X
    2190:	01 15       	cp	r16, r1
    2192:	11 05       	cpc	r17, r1
    2194:	09 f4       	brne	.+2      	; 0x2198 <_ZN9RfManager10receptPINGE8RfPacket+0xcc>
    2196:	a0 c0       	rjmp	.+320    	; 0x22d8 <_ZN9RfManager10receptPINGE8RfPacket+0x20c>
    2198:	20 e0       	ldi	r18, 0x00	; 0
    219a:	30 e0       	ldi	r19, 0x00	; 0
    219c:	04 84       	ldd	r0, Z+12	; 0x0c
    219e:	f5 85       	ldd	r31, Z+13	; 0x0d
    21a0:	e0 2d       	mov	r30, r0
    21a2:	2f 5f       	subi	r18, 0xFF	; 255
    21a4:	3f 4f       	sbci	r19, 0xFF	; 255
    21a6:	20 17       	cp	r18, r16
    21a8:	31 07       	cpc	r19, r17
    21aa:	c1 f7       	brne	.-16     	; 0x219c <_ZN9RfManager10receptPINGE8RfPacket+0xd0>
    21ac:	11 c0       	rjmp	.+34     	; 0x21d0 <_ZN9RfManager10receptPINGE8RfPacket+0x104>
    21ae:	d6 01       	movw	r26, r12
    21b0:	ed 91       	ld	r30, X+
    21b2:	fc 91       	ld	r31, X
    21b4:	02 17       	cp	r16, r18
    21b6:	13 07       	cpc	r17, r19
    21b8:	70 f4       	brcc	.+28     	; 0x21d6 <_ZN9RfManager10receptPINGE8RfPacket+0x10a>
    21ba:	06 84       	ldd	r0, Z+14	; 0x0e
    21bc:	f7 85       	ldd	r31, Z+15	; 0x0f
    21be:	e0 2d       	mov	r30, r0
    21c0:	21 50       	subi	r18, 0x01	; 1
    21c2:	31 09       	sbc	r19, r1
    21c4:	20 17       	cp	r18, r16
    21c6:	31 07       	cpc	r19, r17
    21c8:	c1 f7       	brne	.-16     	; 0x21ba <_ZN9RfManager10receptPINGE8RfPacket+0xee>
    21ca:	8e 2f       	mov	r24, r30
    21cc:	9f 2f       	mov	r25, r31
    21ce:	05 c0       	rjmp	.+10     	; 0x21da <_ZN9RfManager10receptPINGE8RfPacket+0x10e>
    21d0:	8e 2f       	mov	r24, r30
    21d2:	9f 2f       	mov	r25, r31
    21d4:	02 c0       	rjmp	.+4      	; 0x21da <_ZN9RfManager10receptPINGE8RfPacket+0x10e>
    21d6:	8e 2f       	mov	r24, r30
    21d8:	9f 2f       	mov	r25, r31
    21da:	be 01       	movw	r22, r28
    21dc:	69 5d       	subi	r22, 0xD9	; 217
    21de:	7f 4f       	sbci	r23, 0xFF	; 255
    21e0:	0e 94 39 2b 	call	0x5672	; 0x5672 <strncmp>
    21e4:	89 2b       	or	r24, r25
    21e6:	09 f0       	breq	.+2      	; 0x21ea <_ZN9RfManager10receptPINGE8RfPacket+0x11e>
    21e8:	49 c0       	rjmp	.+146    	; 0x227c <_ZN9RfManager10receptPINGE8RfPacket+0x1b0>
    21ea:	84 2d       	mov	r24, r4
    21ec:	93 2d       	mov	r25, r3
    21ee:	0e 94 17 05 	call	0xa2e	; 0xa2e <_ZNK9ControlRf10getAddrLenEv>
    21f2:	48 2f       	mov	r20, r24
    21f4:	50 e0       	ldi	r21, 0x00	; 0
    21f6:	4f 5f       	subi	r20, 0xFF	; 255
    21f8:	5f 4f       	sbci	r21, 0xFF	; 255
    21fa:	f7 01       	movw	r30, r14
    21fc:	85 ad       	ldd	r24, Z+61	; 0x3d
    21fe:	96 ad       	ldd	r25, Z+62	; 0x3e
    2200:	9c 01       	movw	r18, r24
    2202:	21 50       	subi	r18, 0x01	; 1
    2204:	31 09       	sbc	r19, r1
    2206:	20 17       	cp	r18, r16
    2208:	31 07       	cpc	r19, r17
    220a:	28 f4       	brcc	.+10     	; 0x2216 <_ZN9RfManager10receptPINGE8RfPacket+0x14a>
    220c:	d6 01       	movw	r26, r12
    220e:	6c 91       	ld	r22, X
    2210:	11 96       	adiw	r26, 0x01	; 1
    2212:	7c 91       	ld	r23, X
    2214:	2f c0       	rjmp	.+94     	; 0x2274 <_ZN9RfManager10receptPINGE8RfPacket+0x1a8>
    2216:	96 95       	lsr	r25
    2218:	87 95       	ror	r24
    221a:	08 17       	cp	r16, r24
    221c:	19 07       	cpc	r17, r25
    221e:	88 f4       	brcc	.+34     	; 0x2242 <_ZN9RfManager10receptPINGE8RfPacket+0x176>
    2220:	d4 01       	movw	r26, r8
    2222:	ed 91       	ld	r30, X+
    2224:	fc 91       	ld	r31, X
    2226:	01 15       	cp	r16, r1
    2228:	11 05       	cpc	r17, r1
    222a:	e1 f0       	breq	.+56     	; 0x2264 <_ZN9RfManager10receptPINGE8RfPacket+0x198>
    222c:	20 e0       	ldi	r18, 0x00	; 0
    222e:	30 e0       	ldi	r19, 0x00	; 0
    2230:	04 84       	ldd	r0, Z+12	; 0x0c
    2232:	f5 85       	ldd	r31, Z+13	; 0x0d
    2234:	e0 2d       	mov	r30, r0
    2236:	2f 5f       	subi	r18, 0xFF	; 255
    2238:	3f 4f       	sbci	r19, 0xFF	; 255
    223a:	20 17       	cp	r18, r16
    223c:	31 07       	cpc	r19, r17
    223e:	c1 f7       	brne	.-16     	; 0x2230 <_ZN9RfManager10receptPINGE8RfPacket+0x164>
    2240:	14 c0       	rjmp	.+40     	; 0x226a <_ZN9RfManager10receptPINGE8RfPacket+0x19e>
    2242:	d6 01       	movw	r26, r12
    2244:	ed 91       	ld	r30, X+
    2246:	fc 91       	ld	r31, X
    2248:	02 17       	cp	r16, r18
    224a:	13 07       	cpc	r17, r19
    224c:	88 f4       	brcc	.+34     	; 0x2270 <_ZN9RfManager10receptPINGE8RfPacket+0x1a4>
    224e:	06 84       	ldd	r0, Z+14	; 0x0e
    2250:	f7 85       	ldd	r31, Z+15	; 0x0f
    2252:	e0 2d       	mov	r30, r0
    2254:	21 50       	subi	r18, 0x01	; 1
    2256:	31 09       	sbc	r19, r1
    2258:	20 17       	cp	r18, r16
    225a:	31 07       	cpc	r19, r17
    225c:	c1 f7       	brne	.-16     	; 0x224e <_ZN9RfManager10receptPINGE8RfPacket+0x182>
    225e:	6e 2f       	mov	r22, r30
    2260:	7f 2f       	mov	r23, r31
    2262:	08 c0       	rjmp	.+16     	; 0x2274 <_ZN9RfManager10receptPINGE8RfPacket+0x1a8>
    2264:	6e 2f       	mov	r22, r30
    2266:	7f 2f       	mov	r23, r31
    2268:	05 c0       	rjmp	.+10     	; 0x2274 <_ZN9RfManager10receptPINGE8RfPacket+0x1a8>
    226a:	6e 2f       	mov	r22, r30
    226c:	7f 2f       	mov	r23, r31
    226e:	02 c0       	rjmp	.+4      	; 0x2274 <_ZN9RfManager10receptPINGE8RfPacket+0x1a8>
    2270:	6e 2f       	mov	r22, r30
    2272:	7f 2f       	mov	r23, r31
    2274:	89 81       	ldd	r24, Y+1	; 0x01
    2276:	92 2d       	mov	r25, r2
    2278:	0e 94 03 2b 	call	0x5606	; 0x5606 <memcpy>
    227c:	53 94       	inc	r5
    227e:	05 2d       	mov	r16, r5
    2280:	10 e0       	ldi	r17, 0x00	; 0
    2282:	f7 01       	movw	r30, r14
    2284:	85 ad       	ldd	r24, Z+61	; 0x3d
    2286:	96 ad       	ldd	r25, Z+62	; 0x3e
    2288:	08 17       	cp	r16, r24
    228a:	19 07       	cpc	r17, r25
    228c:	08 f4       	brcc	.+2      	; 0x2290 <_ZN9RfManager10receptPINGE8RfPacket+0x1c4>
    228e:	63 cf       	rjmp	.-314    	; 0x2156 <_ZN9RfManager10receptPINGE8RfPacket+0x8a>
    2290:	d5 01       	movw	r26, r10
    2292:	8c 91       	ld	r24, X
    2294:	81 11       	cpse	r24, r1
    2296:	2e c0       	rjmp	.+92     	; 0x22f4 <_ZN9RfManager10receptPINGE8RfPacket+0x228>
    2298:	c7 01       	movw	r24, r14
    229a:	0e 94 17 05 	call	0xa2e	; 0xa2e <_ZNK9ControlRf10getAddrLenEv>
    229e:	48 2f       	mov	r20, r24
    22a0:	50 e0       	ldi	r21, 0x00	; 0
    22a2:	be 01       	movw	r22, r28
    22a4:	69 5d       	subi	r22, 0xD9	; 217
    22a6:	7f 4f       	sbci	r23, 0xFF	; 255
    22a8:	c5 01       	movw	r24, r10
    22aa:	0e 94 03 2b 	call	0x5606	; 0x5606 <memcpy>
    22ae:	22 c0       	rjmp	.+68     	; 0x22f4 <_ZN9RfManager10receptPINGE8RfPacket+0x228>
    22b0:	84 2d       	mov	r24, r4
    22b2:	93 2d       	mov	r25, r3
    22b4:	0e 94 17 05 	call	0xa2e	; 0xa2e <_ZNK9ControlRf10getAddrLenEv>
    22b8:	48 2f       	mov	r20, r24
    22ba:	50 e0       	ldi	r21, 0x00	; 0
    22bc:	4f 5f       	subi	r20, 0xFF	; 255
    22be:	5f 4f       	sbci	r21, 0xFF	; 255
    22c0:	f7 01       	movw	r30, r14
    22c2:	85 ad       	ldd	r24, Z+61	; 0x3d
    22c4:	96 ad       	ldd	r25, Z+62	; 0x3e
    22c6:	9c 01       	movw	r18, r24
    22c8:	21 50       	subi	r18, 0x01	; 1
    22ca:	31 09       	sbc	r19, r1
    22cc:	96 95       	lsr	r25
    22ce:	87 95       	ror	r24
    22d0:	08 17       	cp	r16, r24
    22d2:	19 07       	cpc	r17, r25
    22d4:	50 f0       	brcs	.+20     	; 0x22ea <_ZN9RfManager10receptPINGE8RfPacket+0x21e>
    22d6:	b5 cf       	rjmp	.-150    	; 0x2242 <_ZN9RfManager10receptPINGE8RfPacket+0x176>
    22d8:	be 01       	movw	r22, r28
    22da:	69 5d       	subi	r22, 0xD9	; 217
    22dc:	7f 4f       	sbci	r23, 0xFF	; 255
    22de:	cf 01       	movw	r24, r30
    22e0:	0e 94 39 2b 	call	0x5672	; 0x5672 <strncmp>
    22e4:	89 2b       	or	r24, r25
    22e6:	51 f6       	brne	.-108    	; 0x227c <_ZN9RfManager10receptPINGE8RfPacket+0x1b0>
    22e8:	e3 cf       	rjmp	.-58     	; 0x22b0 <_ZN9RfManager10receptPINGE8RfPacket+0x1e4>
    22ea:	d4 01       	movw	r26, r8
    22ec:	6c 91       	ld	r22, X
    22ee:	11 96       	adiw	r26, 0x01	; 1
    22f0:	7c 91       	ld	r23, X
    22f2:	c0 cf       	rjmp	.-128    	; 0x2274 <_ZN9RfManager10receptPINGE8RfPacket+0x1a8>
    22f4:	b5 01       	movw	r22, r10
    22f6:	c7 01       	movw	r24, r14
    22f8:	0e 94 62 0f 	call	0x1ec4	; 0x1ec4 <_ZN9RfManager8sendPONGEPc>
    22fc:	0f b6       	in	r0, 0x3f	; 63
    22fe:	f8 94       	cli
    2300:	7e be       	out	0x3e, r7	; 62
    2302:	0f be       	out	0x3f, r0	; 63
    2304:	6d be       	out	0x3d, r6	; 61
    2306:	0f 90       	pop	r0
    2308:	df 91       	pop	r29
    230a:	cf 91       	pop	r28
    230c:	1f 91       	pop	r17
    230e:	0f 91       	pop	r16
    2310:	ff 90       	pop	r15
    2312:	ef 90       	pop	r14
    2314:	df 90       	pop	r13
    2316:	cf 90       	pop	r12
    2318:	bf 90       	pop	r11
    231a:	af 90       	pop	r10
    231c:	9f 90       	pop	r9
    231e:	8f 90       	pop	r8
    2320:	7f 90       	pop	r7
    2322:	6f 90       	pop	r6
    2324:	5f 90       	pop	r5
    2326:	4f 90       	pop	r4
    2328:	3f 90       	pop	r3
    232a:	2f 90       	pop	r2
    232c:	08 95       	ret

0000232e <_ZN9RfManager8sendSCONEPch>:
    232e:	cf 92       	push	r12
    2330:	df 92       	push	r13
    2332:	ef 92       	push	r14
    2334:	ff 92       	push	r15
    2336:	0f 93       	push	r16
    2338:	1f 93       	push	r17
    233a:	cf 93       	push	r28
    233c:	df 93       	push	r29
    233e:	cd b7       	in	r28, 0x3d	; 61
    2340:	de b7       	in	r29, 0x3e	; 62
    2342:	ae 97       	sbiw	r28, 0x2e	; 46
    2344:	0f b6       	in	r0, 0x3f	; 63
    2346:	f8 94       	cli
    2348:	de bf       	out	0x3e, r29	; 62
    234a:	0f be       	out	0x3f, r0	; 63
    234c:	cd bf       	out	0x3d, r28	; 61
    234e:	8c 01       	movw	r16, r24
    2350:	d6 2e       	mov	r13, r22
    2352:	c7 2e       	mov	r12, r23
    2354:	f4 2e       	mov	r15, r20
    2356:	0e 94 17 05 	call	0xa2e	; 0xa2e <_ZNK9ControlRf10getAddrLenEv>
    235a:	48 2f       	mov	r20, r24
    235c:	50 e0       	ldi	r21, 0x00	; 0
    235e:	4f 5f       	subi	r20, 0xFF	; 255
    2360:	5f 4f       	sbci	r21, 0xFF	; 255
    2362:	6d 2d       	mov	r22, r13
    2364:	7c 2d       	mov	r23, r12
    2366:	ce 01       	movw	r24, r28
    2368:	83 96       	adiw	r24, 0x23	; 35
    236a:	0e 94 03 2b 	call	0x5606	; 0x5606 <memcpy>
    236e:	f9 a6       	std	Y+41, r15	; 0x29
    2370:	1b a6       	std	Y+43, r1	; 0x2b
    2372:	1a a6       	std	Y+42, r1	; 0x2a
    2374:	1c a6       	std	Y+44, r1	; 0x2c
    2376:	1e a6       	std	Y+46, r1	; 0x2e
    2378:	1d a6       	std	Y+45, r1	; 0x2d
    237a:	80 e1       	ldi	r24, 0x10	; 16
    237c:	90 e0       	ldi	r25, 0x00	; 0
    237e:	0e 94 c4 29 	call	0x5388	; 0x5388 <malloc>
    2382:	fc 01       	movw	r30, r24
    2384:	15 86       	std	Z+13, r1	; 0x0d
    2386:	14 86       	std	Z+12, r1	; 0x0c
    2388:	17 86       	std	Z+15, r1	; 0x0f
    238a:	16 86       	std	Z+14, r1	; 0x0e
    238c:	2c e0       	ldi	r18, 0x0C	; 12
    238e:	fe 01       	movw	r30, r28
    2390:	b3 96       	adiw	r30, 0x23	; 35
    2392:	dc 01       	movw	r26, r24
    2394:	01 90       	ld	r0, Z+
    2396:	0d 92       	st	X+, r0
    2398:	2a 95       	dec	r18
    239a:	e1 f7       	brne	.-8      	; 0x2394 <_ZN9RfManager8sendSCONEPch+0x66>
    239c:	f8 01       	movw	r30, r16
    239e:	25 ad       	ldd	r18, Z+61	; 0x3d
    23a0:	36 ad       	ldd	r19, Z+62	; 0x3e
    23a2:	23 2b       	or	r18, r19
    23a4:	39 f4       	brne	.+14     	; 0x23b4 <_ZN9RfManager8sendSCONEPch+0x86>
    23a6:	ff 96       	adiw	r30, 0x3f	; 63
    23a8:	91 83       	std	Z+1, r25	; 0x01
    23aa:	80 83       	st	Z, r24
    23ac:	32 96       	adiw	r30, 0x02	; 2
    23ae:	91 83       	std	Z+1, r25	; 0x01
    23b0:	80 83       	st	Z, r24
    23b2:	10 c0       	rjmp	.+32     	; 0x23d4 <_ZN9RfManager8sendSCONEPch+0xa6>
    23b4:	98 01       	movw	r18, r16
    23b6:	2f 5b       	subi	r18, 0xBF	; 191
    23b8:	3f 4f       	sbci	r19, 0xFF	; 255
    23ba:	f9 01       	movw	r30, r18
    23bc:	a0 81       	ld	r26, Z
    23be:	b1 81       	ldd	r27, Z+1	; 0x01
    23c0:	fc 01       	movw	r30, r24
    23c2:	b7 87       	std	Z+15, r27	; 0x0f
    23c4:	a6 87       	std	Z+14, r26	; 0x0e
    23c6:	1d 96       	adiw	r26, 0x0d	; 13
    23c8:	9c 93       	st	X, r25
    23ca:	8e 93       	st	-X, r24
    23cc:	1c 97       	sbiw	r26, 0x0c	; 12
    23ce:	f9 01       	movw	r30, r18
    23d0:	91 83       	std	Z+1, r25	; 0x01
    23d2:	80 83       	st	Z, r24
    23d4:	f8 01       	movw	r30, r16
    23d6:	85 ad       	ldd	r24, Z+61	; 0x3d
    23d8:	96 ad       	ldd	r25, Z+62	; 0x3e
    23da:	01 96       	adiw	r24, 0x01	; 1
    23dc:	96 af       	std	Z+62, r25	; 0x3e
    23de:	85 af       	std	Z+61, r24	; 0x3d
    23e0:	c8 01       	movw	r24, r16
    23e2:	0e 94 17 05 	call	0xa2e	; 0xa2e <_ZNK9ControlRf10getAddrLenEv>
    23e6:	cf 92       	push	r12
    23e8:	df 92       	push	r13
    23ea:	1f 92       	push	r1
    23ec:	8f 93       	push	r24
    23ee:	ce 01       	movw	r24, r28
    23f0:	07 96       	adiw	r24, 0x07	; 7
    23f2:	9f 93       	push	r25
    23f4:	8f 93       	push	r24
    23f6:	0e 94 9d 2b 	call	0x573a	; 0x573a <snprintf>
    23fa:	1f 92       	push	r1
    23fc:	80 e3       	ldi	r24, 0x30	; 48
    23fe:	8f 93       	push	r24
    2400:	f8 01       	movw	r30, r16
    2402:	e4 5b       	subi	r30, 0xB4	; 180
    2404:	ff 4f       	sbci	r31, 0xFF	; 255
    2406:	90 81       	ld	r25, Z
    2408:	1f 92       	push	r1
    240a:	9f 93       	push	r25
    240c:	31 97       	sbiw	r30, 0x01	; 1
    240e:	90 81       	ld	r25, Z
    2410:	1f 92       	push	r1
    2412:	9f 93       	push	r25
    2414:	1f 92       	push	r1
    2416:	92 e3       	ldi	r25, 0x32	; 50
    2418:	9f 93       	push	r25
    241a:	1f 92       	push	r1
    241c:	8f 93       	push	r24
    241e:	8e e3       	ldi	r24, 0x3E	; 62
    2420:	91 e0       	ldi	r25, 0x01	; 1
    2422:	9f 93       	push	r25
    2424:	8f 93       	push	r24
    2426:	9e 01       	movw	r18, r28
    2428:	2f 5f       	subi	r18, 0xFF	; 255
    242a:	3f 4f       	sbci	r19, 0xFF	; 255
    242c:	69 01       	movw	r12, r18
    242e:	3f 93       	push	r19
    2430:	2f 93       	push	r18
    2432:	0e 94 cd 2b 	call	0x579a	; 0x579a <sprintf>
    2436:	85 e0       	ldi	r24, 0x05	; 5
    2438:	e9 e4       	ldi	r30, 0x49	; 73
    243a:	f1 e0       	ldi	r31, 0x01	; 1
    243c:	de 01       	movw	r26, r28
    243e:	1d 96       	adiw	r26, 0x0d	; 13
    2440:	01 90       	ld	r0, Z+
    2442:	0d 92       	st	X+, r0
    2444:	8a 95       	dec	r24
    2446:	e1 f7       	brne	.-8      	; 0x2440 <_ZN9RfManager8sendSCONEPch+0x112>
    2448:	ae 01       	movw	r20, r28
    244a:	4e 5e       	subi	r20, 0xEE	; 238
    244c:	5f 4f       	sbci	r21, 0xFF	; 255
    244e:	6f 2d       	mov	r22, r15
    2450:	c8 01       	movw	r24, r16
    2452:	0e 94 fe 04 	call	0x9fc	; 0x9fc <_ZN9ControlRf10getPipAddrEhPc>
    2456:	c8 01       	movw	r24, r16
    2458:	0e 94 17 05 	call	0xa2e	; 0xa2e <_ZNK9ControlRf10getAddrLenEv>
    245c:	e8 2e       	mov	r14, r24
    245e:	c8 01       	movw	r24, r16
    2460:	0e 94 17 05 	call	0xa2e	; 0xa2e <_ZNK9ControlRf10getAddrLenEv>
    2464:	4f e0       	ldi	r20, 0x0F	; 15
    2466:	50 e0       	ldi	r21, 0x00	; 0
    2468:	4e 19       	sub	r20, r14
    246a:	51 09       	sbc	r21, r1
    246c:	63 e2       	ldi	r22, 0x23	; 35
    246e:	70 e0       	ldi	r23, 0x00	; 0
    2470:	e2 e1       	ldi	r30, 0x12	; 18
    2472:	f0 e0       	ldi	r31, 0x00	; 0
    2474:	ec 0f       	add	r30, r28
    2476:	fd 1f       	adc	r31, r29
    2478:	e8 0f       	add	r30, r24
    247a:	f1 1d       	adc	r31, r1
    247c:	cf 01       	movw	r24, r30
    247e:	0e 94 0c 2b 	call	0x5618	; 0x5618 <memset>
    2482:	2d b7       	in	r18, 0x3d	; 61
    2484:	3e b7       	in	r19, 0x3e	; 62
    2486:	22 52       	subi	r18, 0x22	; 34
    2488:	31 09       	sbc	r19, r1
    248a:	0f b6       	in	r0, 0x3f	; 63
    248c:	f8 94       	cli
    248e:	3e bf       	out	0x3e, r19	; 62
    2490:	0f be       	out	0x3f, r0	; 63
    2492:	2d bf       	out	0x3d, r18	; 61
    2494:	ad b7       	in	r26, 0x3d	; 61
    2496:	be b7       	in	r27, 0x3e	; 62
    2498:	11 96       	adiw	r26, 0x01	; 1
    249a:	82 e2       	ldi	r24, 0x22	; 34
    249c:	f6 01       	movw	r30, r12
    249e:	01 90       	ld	r0, Z+
    24a0:	0d 92       	st	X+, r0
    24a2:	8a 95       	dec	r24
    24a4:	e1 f7       	brne	.-8      	; 0x249e <_ZN9RfManager8sendSCONEPch+0x170>
    24a6:	c8 01       	movw	r24, r16
    24a8:	0e 94 d9 09 	call	0x13b2	; 0x13b2 <_ZN9RfManager10sendPacketE8RfPacket>
    24ac:	0f b6       	in	r0, 0x3f	; 63
    24ae:	f8 94       	cli
    24b0:	de bf       	out	0x3e, r29	; 62
    24b2:	0f be       	out	0x3f, r0	; 63
    24b4:	cd bf       	out	0x3d, r28	; 61
    24b6:	f8 01       	movw	r30, r16
    24b8:	e9 5a       	subi	r30, 0xA9	; 169
    24ba:	ff 4f       	sbci	r31, 0xFF	; 255
    24bc:	4f 2d       	mov	r20, r15
    24be:	be 01       	movw	r22, r28
    24c0:	6d 5d       	subi	r22, 0xDD	; 221
    24c2:	7f 4f       	sbci	r23, 0xFF	; 255
    24c4:	80 81       	ld	r24, Z
    24c6:	91 81       	ldd	r25, Z+1	; 0x01
    24c8:	0e 94 6e 20 	call	0x40dc	; 0x40dc <_ZN13SerialManager8recvNCONEPch>
    24cc:	ae 96       	adiw	r28, 0x2e	; 46
    24ce:	0f b6       	in	r0, 0x3f	; 63
    24d0:	f8 94       	cli
    24d2:	de bf       	out	0x3e, r29	; 62
    24d4:	0f be       	out	0x3f, r0	; 63
    24d6:	cd bf       	out	0x3d, r28	; 61
    24d8:	df 91       	pop	r29
    24da:	cf 91       	pop	r28
    24dc:	1f 91       	pop	r17
    24de:	0f 91       	pop	r16
    24e0:	ff 90       	pop	r15
    24e2:	ef 90       	pop	r14
    24e4:	df 90       	pop	r13
    24e6:	cf 90       	pop	r12
    24e8:	08 95       	ret

000024ea <_ZN9RfManager8sendBCONEPc>:
    24ea:	ef 92       	push	r14
    24ec:	ff 92       	push	r15
    24ee:	0f 93       	push	r16
    24f0:	1f 93       	push	r17
    24f2:	cf 93       	push	r28
    24f4:	df 93       	push	r29
    24f6:	cd b7       	in	r28, 0x3d	; 61
    24f8:	de b7       	in	r29, 0x3e	; 62
    24fa:	a2 97       	sbiw	r28, 0x22	; 34
    24fc:	0f b6       	in	r0, 0x3f	; 63
    24fe:	f8 94       	cli
    2500:	de bf       	out	0x3e, r29	; 62
    2502:	0f be       	out	0x3f, r0	; 63
    2504:	cd bf       	out	0x3d, r28	; 61
    2506:	8c 01       	movw	r16, r24
    2508:	7b 01       	movw	r14, r22
    250a:	0e 94 17 05 	call	0xa2e	; 0xa2e <_ZNK9ControlRf10getAddrLenEv>
    250e:	48 2f       	mov	r20, r24
    2510:	50 e0       	ldi	r21, 0x00	; 0
    2512:	b7 01       	movw	r22, r14
    2514:	ce 01       	movw	r24, r28
